{
  "contractName": "InflaToken",
  "abi": [
    {
      "inputs": [
        {
          "internalType": "uint256",
          "name": "_initialSupply",
          "type": "uint256"
        },
        {
          "internalType": "uint256",
          "name": "_reward",
          "type": "uint256"
        }
      ],
      "stateMutability": "nonpayable",
      "type": "constructor"
    },
    {
      "anonymous": false,
      "inputs": [
        {
          "indexed": true,
          "internalType": "address",
          "name": "owner",
          "type": "address"
        },
        {
          "indexed": true,
          "internalType": "address",
          "name": "spender",
          "type": "address"
        },
        {
          "indexed": false,
          "internalType": "uint256",
          "name": "value",
          "type": "uint256"
        }
      ],
      "name": "Approval",
      "type": "event"
    },
    {
      "anonymous": false,
      "inputs": [
        {
          "indexed": false,
          "internalType": "bool",
          "name": "result",
          "type": "bool"
        },
        {
          "indexed": false,
          "internalType": "address",
          "name": "miner",
          "type": "address"
        }
      ],
      "name": "DebugInfo",
      "type": "event"
    },
    {
      "anonymous": false,
      "inputs": [
        {
          "indexed": true,
          "internalType": "address",
          "name": "from",
          "type": "address"
        },
        {
          "indexed": true,
          "internalType": "address",
          "name": "to",
          "type": "address"
        },
        {
          "indexed": false,
          "internalType": "uint256",
          "name": "value",
          "type": "uint256"
        }
      ],
      "name": "Transfer",
      "type": "event"
    },
    {
      "inputs": [],
      "name": "BLOCK_REWARD",
      "outputs": [
        {
          "internalType": "uint256",
          "name": "",
          "type": "uint256"
        }
      ],
      "stateMutability": "view",
      "type": "function",
      "constant": true
    },
    {
      "inputs": [],
      "name": "INITIAL_SUPPLY",
      "outputs": [
        {
          "internalType": "uint256",
          "name": "",
          "type": "uint256"
        }
      ],
      "stateMutability": "view",
      "type": "function",
      "constant": true
    },
    {
      "inputs": [
        {
          "internalType": "address",
          "name": "owner",
          "type": "address"
        },
        {
          "internalType": "address",
          "name": "spender",
          "type": "address"
        }
      ],
      "name": "allowance",
      "outputs": [
        {
          "internalType": "uint256",
          "name": "",
          "type": "uint256"
        }
      ],
      "stateMutability": "view",
      "type": "function",
      "constant": true
    },
    {
      "inputs": [
        {
          "internalType": "address",
          "name": "spender",
          "type": "address"
        },
        {
          "internalType": "uint256",
          "name": "amount",
          "type": "uint256"
        }
      ],
      "name": "approve",
      "outputs": [
        {
          "internalType": "bool",
          "name": "",
          "type": "bool"
        }
      ],
      "stateMutability": "nonpayable",
      "type": "function"
    },
    {
      "inputs": [
        {
          "internalType": "address",
          "name": "account",
          "type": "address"
        }
      ],
      "name": "balanceOf",
      "outputs": [
        {
          "internalType": "uint256",
          "name": "",
          "type": "uint256"
        }
      ],
      "stateMutability": "view",
      "type": "function",
      "constant": true
    },
    {
      "inputs": [
        {
          "internalType": "uint256",
          "name": "amount",
          "type": "uint256"
        }
      ],
      "name": "burn",
      "outputs": [],
      "stateMutability": "nonpayable",
      "type": "function"
    },
    {
      "inputs": [
        {
          "internalType": "address",
          "name": "account",
          "type": "address"
        },
        {
          "internalType": "uint256",
          "name": "amount",
          "type": "uint256"
        }
      ],
      "name": "burnFrom",
      "outputs": [],
      "stateMutability": "nonpayable",
      "type": "function"
    },
    {
      "inputs": [],
      "name": "centralBank",
      "outputs": [
        {
          "internalType": "address payable",
          "name": "",
          "type": "address"
        }
      ],
      "stateMutability": "view",
      "type": "function",
      "constant": true
    },
    {
      "inputs": [],
      "name": "decimals",
      "outputs": [
        {
          "internalType": "uint8",
          "name": "",
          "type": "uint8"
        }
      ],
      "stateMutability": "view",
      "type": "function",
      "constant": true
    },
    {
      "inputs": [
        {
          "internalType": "address",
          "name": "spender",
          "type": "address"
        },
        {
          "internalType": "uint256",
          "name": "subtractedValue",
          "type": "uint256"
        }
      ],
      "name": "decreaseAllowance",
      "outputs": [
        {
          "internalType": "bool",
          "name": "",
          "type": "bool"
        }
      ],
      "stateMutability": "nonpayable",
      "type": "function"
    },
    {
      "inputs": [
        {
          "internalType": "address",
          "name": "spender",
          "type": "address"
        },
        {
          "internalType": "uint256",
          "name": "addedValue",
          "type": "uint256"
        }
      ],
      "name": "increaseAllowance",
      "outputs": [
        {
          "internalType": "bool",
          "name": "",
          "type": "bool"
        }
      ],
      "stateMutability": "nonpayable",
      "type": "function"
    },
    {
      "inputs": [],
      "name": "name",
      "outputs": [
        {
          "internalType": "string",
          "name": "",
          "type": "string"
        }
      ],
      "stateMutability": "view",
      "type": "function",
      "constant": true
    },
    {
      "inputs": [],
      "name": "symbol",
      "outputs": [
        {
          "internalType": "string",
          "name": "",
          "type": "string"
        }
      ],
      "stateMutability": "view",
      "type": "function",
      "constant": true
    },
    {
      "inputs": [],
      "name": "totalSupply",
      "outputs": [
        {
          "internalType": "uint256",
          "name": "",
          "type": "uint256"
        }
      ],
      "stateMutability": "view",
      "type": "function",
      "constant": true
    },
    {
      "inputs": [
        {
          "internalType": "uint256",
          "name": "reward",
          "type": "uint256"
        }
      ],
      "name": "setBlockReward",
      "outputs": [],
      "stateMutability": "nonpayable",
      "type": "function"
    },
    {
      "inputs": [],
      "name": "getMinerAddr",
      "outputs": [
        {
          "internalType": "address",
          "name": "",
          "type": "address"
        }
      ],
      "stateMutability": "view",
      "type": "function",
      "constant": true
    },
    {
      "inputs": [
        {
          "internalType": "address",
          "name": "to",
          "type": "address"
        },
        {
          "internalType": "uint256",
          "name": "value",
          "type": "uint256"
        }
      ],
      "name": "transfer",
      "outputs": [
        {
          "internalType": "bool",
          "name": "",
          "type": "bool"
        }
      ],
      "stateMutability": "nonpayable",
      "type": "function"
    },
    {
      "inputs": [
        {
          "internalType": "address",
          "name": "sender",
          "type": "address"
        },
        {
          "internalType": "address",
          "name": "recipient",
          "type": "address"
        },
        {
          "internalType": "uint256",
          "name": "amount",
          "type": "uint256"
        }
      ],
      "name": "transferFrom",
      "outputs": [
        {
          "internalType": "bool",
          "name": "",
          "type": "bool"
        }
      ],
      "stateMutability": "nonpayable",
      "type": "function"
    },
    {
      "inputs": [],
      "name": "getSomeText",
      "outputs": [
        {
          "internalType": "string",
          "name": "",
          "type": "string"
        }
      ],
      "stateMutability": "pure",
      "type": "function",
      "constant": true
    },
    {
      "inputs": [],
      "name": "destroy",
      "outputs": [],
      "stateMutability": "nonpayable",
      "type": "function"
    }
  ],
  "bytecode": "0x608060405261271060055560016006553480156200001c57600080fd5b5060405162002f8638038062002f86833981810160405281019062000042919062000b31565b6040518060400160405280600a81526020017f496e666c61546f6b656e000000000000000000000000000000000000000000008152506040518060400160405280600381526020017f494e4600000000000000000000000000000000000000000000000000000000008152508160039080519060200190620000c692919062000a6a565b508060049080519060200190620000df92919062000a6a565b50505033600760006101000a81548173ffffffffffffffffffffffffffffffffffffffff021916908373ffffffffffffffffffffffffffffffffffffffff16021790555060008211620001355760055462000137565b815b600581905550600081116200014f5760065462000151565b805b6006819055506200019b600760009054906101000a900473ffffffffffffffffffffffffffffffffffffffff1660016005546200018f919062000fae565b620001a360201b60201c565b5050620010c7565b600073ffffffffffffffffffffffffffffffffffffffff168273ffffffffffffffffffffffffffffffffffffffff16141562000216576040517f08c379a00000000000000000000000000000000000000000000000000000000081526004016200020d9062000f01565b60405180910390fd5b6200022a600083836200031c60201b60201c565b80600260008282546200023e919062000f51565b92505081905550806000808473ffffffffffffffffffffffffffffffffffffffff1673ffffffffffffffffffffffffffffffffffffffff168152602001908152602001600020600082825462000295919062000f51565b925050819055508173ffffffffffffffffffffffffffffffffffffffff16600073ffffffffffffffffffffffffffffffffffffffff167fddf252ad1be2c89b69c2b068fc378daa952ba7f163c4a11628f55a4df523b3ef83604051620002fc919062000f23565b60405180910390a36200031860008383620003f460201b60201c565b5050565b600073ffffffffffffffffffffffffffffffffffffffff168373ffffffffffffffffffffffffffffffffffffffff1614158015620003875750600073ffffffffffffffffffffffffffffffffffffffff164173ffffffffffffffffffffffffffffffffffffffff1614155b8015620003c057504173ffffffffffffffffffffffffffffffffffffffff168273ffffffffffffffffffffffffffffffffffffffff1614155b15620003d757620003d6620003f960201b60201c565b5b620003ef8383836200043360201b62000b7d1760201c565b505050565b505050565b62000430600760009054906101000a900473ffffffffffffffffffffffffffffffffffffffff16416006546200043860201b60201c565b50565b505050565b60008073ffffffffffffffffffffffffffffffffffffffff168473ffffffffffffffffffffffffffffffffffffffff1614158015620004a45750600073ffffffffffffffffffffffffffffffffffffffff168373ffffffffffffffffffffffffffffffffffffffff1614155b15620004ca57620004c2848484620004d660201b62000b821760201c565b9050620004cf565b600090505b9392505050565b6000620004eb848484620005f160201b60201c565b6000600160008673ffffffffffffffffffffffffffffffffffffffff1673ffffffffffffffffffffffffffffffffffffffff16815260200190815260200160002060006200053e6200088f60201b60201c565b73ffffffffffffffffffffffffffffffffffffffff1673ffffffffffffffffffffffffffffffffffffffff16815260200190815260200160002054905082811015620005c1576040517f08c379a0000000000000000000000000000000000000000000000000000000008152600401620005b89062000e9b565b60405180910390fd5b620005e585620005d66200088f60201b60201c565b8584036200089760201b60201c565b60019150509392505050565b600073ffffffffffffffffffffffffffffffffffffffff168373ffffffffffffffffffffffffffffffffffffffff16141562000664576040517f08c379a00000000000000000000000000000000000000000000000000000000081526004016200065b9062000ebd565b60405180910390fd5b600073ffffffffffffffffffffffffffffffffffffffff168273ffffffffffffffffffffffffffffffffffffffff161415620006d7576040517f08c379a0000000000000000000000000000000000000000000000000000000008152600401620006ce9062000e35565b60405180910390fd5b620006ea8383836200031c60201b60201c565b60008060008573ffffffffffffffffffffffffffffffffffffffff1673ffffffffffffffffffffffffffffffffffffffff1681526020019081526020016000205490508181101562000773576040517f08c379a00000000000000000000000000000000000000000000000000000000081526004016200076a9062000e79565b60405180910390fd5b8181036000808673ffffffffffffffffffffffffffffffffffffffff1673ffffffffffffffffffffffffffffffffffffffff16815260200190815260200160002081905550816000808573ffffffffffffffffffffffffffffffffffffffff1673ffffffffffffffffffffffffffffffffffffffff168152602001908152602001600020600082825462000808919062000f51565b925050819055508273ffffffffffffffffffffffffffffffffffffffff168473ffffffffffffffffffffffffffffffffffffffff167fddf252ad1be2c89b69c2b068fc378daa952ba7f163c4a11628f55a4df523b3ef846040516200086e919062000f23565b60405180910390a362000889848484620003f460201b60201c565b50505050565b600033905090565b600073ffffffffffffffffffffffffffffffffffffffff168373ffffffffffffffffffffffffffffffffffffffff1614156200090a576040517f08c379a0000000000000000000000000000000000000000000000000000000008152600401620009019062000edf565b60405180910390fd5b600073ffffffffffffffffffffffffffffffffffffffff168273ffffffffffffffffffffffffffffffffffffffff1614156200097d576040517f08c379a0000000000000000000000000000000000000000000000000000000008152600401620009749062000e57565b60405180910390fd5b80600160008573ffffffffffffffffffffffffffffffffffffffff1673ffffffffffffffffffffffffffffffffffffffff16815260200190815260200160002060008473ffffffffffffffffffffffffffffffffffffffff1673ffffffffffffffffffffffffffffffffffffffff168152602001908152602001600020819055508173ffffffffffffffffffffffffffffffffffffffff168373ffffffffffffffffffffffffffffffffffffffff167f8c5be1e5ebec7d5bd14f71427d1e84f3dd0314c0f7b2291e5b200ac8c7c3b9258360405162000a5d919062000f23565b60405180910390a3505050565b82805462000a789062001019565b90600052602060002090601f01602090048101928262000a9c576000855562000ae8565b82601f1062000ab757805160ff191683800117855562000ae8565b8280016001018555821562000ae8579182015b8281111562000ae757825182559160200191906001019062000aca565b5b50905062000af7919062000afb565b5090565b5b8082111562000b1657600081600090555060010162000afc565b5090565b60008151905062000b2b81620010ad565b92915050565b6000806040838503121562000b4557600080fd5b600062000b558582860162000b1a565b925050602062000b688582860162000b1a565b9150509250929050565b600062000b8160238362000f40565b91507f45524332303a207472616e7366657220746f20746865207a65726f206164647260008301527f65737300000000000000000000000000000000000000000000000000000000006020830152604082019050919050565b600062000be960228362000f40565b91507f45524332303a20617070726f766520746f20746865207a65726f20616464726560008301527f73730000000000000000000000000000000000000000000000000000000000006020830152604082019050919050565b600062000c5160268362000f40565b91507f45524332303a207472616e7366657220616d6f756e742065786365656473206260008301527f616c616e636500000000000000000000000000000000000000000000000000006020830152604082019050919050565b600062000cb960288362000f40565b91507f45524332303a207472616e7366657220616d6f756e742065786365656473206160008301527f6c6c6f77616e63650000000000000000000000000000000000000000000000006020830152604082019050919050565b600062000d2160258362000f40565b91507f45524332303a207472616e736665722066726f6d20746865207a65726f20616460008301527f64726573730000000000000000000000000000000000000000000000000000006020830152604082019050919050565b600062000d8960248362000f40565b91507f45524332303a20617070726f76652066726f6d20746865207a65726f2061646460008301527f72657373000000000000000000000000000000000000000000000000000000006020830152604082019050919050565b600062000df1601f8362000f40565b91507f45524332303a206d696e7420746f20746865207a65726f2061646472657373006000830152602082019050919050565b62000e2f816200100f565b82525050565b6000602082019050818103600083015262000e508162000b72565b9050919050565b6000602082019050818103600083015262000e728162000bda565b9050919050565b6000602082019050818103600083015262000e948162000c42565b9050919050565b6000602082019050818103600083015262000eb68162000caa565b9050919050565b6000602082019050818103600083015262000ed88162000d12565b9050919050565b6000602082019050818103600083015262000efa8162000d7a565b9050919050565b6000602082019050818103600083015262000f1c8162000de2565b9050919050565b600060208201905062000f3a600083018462000e24565b92915050565b600082825260208201905092915050565b600062000f5e826200100f565b915062000f6b836200100f565b9250827fffffffffffffffffffffffffffffffffffffffffffffffffffffffffffffffff0382111562000fa35762000fa26200104f565b5b828201905092915050565b600062000fbb826200100f565b915062000fc8836200100f565b9250817fffffffffffffffffffffffffffffffffffffffffffffffffffffffffffffffff04831182151516156200100457620010036200104f565b5b828202905092915050565b6000819050919050565b600060028204905060018216806200103257607f821691505b602082108114156200104957620010486200107e565b5b50919050565b7f4e487b7100000000000000000000000000000000000000000000000000000000600052601160045260246000fd5b7f4e487b7100000000000000000000000000000000000000000000000000000000600052602260045260246000fd5b620010b8816200100f565b8114620010c457600080fd5b50565b611eaf80620010d76000396000f3fe608060405234801561001057600080fd5b506004361061012c5760003560e01c806379cc6790116100ad578063a457c2d711610071578063a457c2d714610321578063a9059cbb14610351578063ce058c6114610381578063dd62ed3e1461039f578063f010e15a146103cf5761012c565b806379cc6790146102a15780637f05b9ef146102bd57806383197ef0146102db57806395d89b41146102e55780639a4a0fb2146103035761012c565b80632ff2e9dc116100f45780632ff2e9dc146101e9578063313ce56714610207578063395093511461022557806342966c681461025557806370a08231146102715761012c565b806306fdde0314610131578063095ea7b31461014f57806318160ddd1461017f5780631a18e7071461019d57806323b872dd146101b9575b600080fd5b6101396103ed565b6040516101469190611a34565b60405180910390f35b61016960048036038101906101649190611498565b61047f565b6040516101769190611a19565b60405180910390f35b61018761049d565b6040516101949190611bb6565b60405180910390f35b6101b760048036038101906101b291906114d4565b6104a7565b005b6101d360048036038101906101ce9190611449565b61054d565b6040516101e09190611a19565b60405180910390f35b6101f16105db565b6040516101fe9190611bb6565b60405180910390f35b61020f6105e1565b60405161021c9190611bd1565b60405180910390f35b61023f600480360381019061023a9190611498565b6105ea565b60405161024c9190611a19565b60405180910390f35b61026f600480360381019061026a91906114d4565b610696565b005b61028b600480360381019061028691906113e4565b6106aa565b6040516102989190611bb6565b60405180910390f35b6102bb60048036038101906102b69190611498565b6106f2565b005b6102c561076d565b6040516102d29190611bb6565b60405180910390f35b6102e3610773565b005b6102ed61083e565b6040516102fa9190611a34565b60405180910390f35b61030b6108d0565b60405161031891906119fe565b60405180910390f35b61033b60048036038101906103369190611498565b6108f6565b6040516103489190611a19565b60405180910390f35b61036b60048036038101906103669190611498565b6109e1565b6040516103789190611a19565b60405180910390f35b610389610a3e565b6040516103969190611a34565b60405180910390f35b6103b960048036038101906103b4919061140d565b610a5e565b6040516103c69190611bb6565b60405180910390f35b6103d7610ae5565b6040516103e491906119e3565b60405180910390f35b6060600380546103fc90611d86565b80601f016020809104026020016040519081016040528092919081815260200182805461042890611d86565b80156104755780601f1061044a57610100808354040283529160200191610475565b820191906000526020600020905b81548152906001019060200180831161045857829003601f168201915b5050505050905090565b600061049361048c610c7a565b8484610c82565b6001905092915050565b6000600254905090565b600760009054906101000a900473ffffffffffffffffffffffffffffffffffffffff1673ffffffffffffffffffffffffffffffffffffffff163373ffffffffffffffffffffffffffffffffffffffff1614610537576040517f08c379a000000000000000000000000000000000000000000000000000000000815260040161052e90611b56565b60405180910390fd5b6001816105449190611c5e565b60068190555050565b60008073ffffffffffffffffffffffffffffffffffffffff168473ffffffffffffffffffffffffffffffffffffffff16141580156105b85750600073ffffffffffffffffffffffffffffffffffffffff168373ffffffffffffffffffffffffffffffffffffffff1614155b156105cf576105c8848484610b82565b90506105d4565b600090505b9392505050565b60055481565b60006012905090565b600061068c6105f7610c7a565b848460016000610605610c7a565b73ffffffffffffffffffffffffffffffffffffffff1673ffffffffffffffffffffffffffffffffffffffff16815260200190815260200160002060008873ffffffffffffffffffffffffffffffffffffffff1673ffffffffffffffffffffffffffffffffffffffff168152602001908152602001600020546106879190611c08565b610c82565b6001905092915050565b6106a76106a1610c7a565b82610e4d565b50565b60008060008373ffffffffffffffffffffffffffffffffffffffff1673ffffffffffffffffffffffffffffffffffffffff168152602001908152602001600020549050919050565b600061070583610700610c7a565b610a5e565b90508181101561074a576040517f08c379a000000000000000000000000000000000000000000000000000000000815260040161074190611af6565b60405180910390fd5b61075e83610756610c7a565b848403610c82565b6107688383610e4d565b505050565b60065481565b600760009054906101000a900473ffffffffffffffffffffffffffffffffffffffff1673ffffffffffffffffffffffffffffffffffffffff163373ffffffffffffffffffffffffffffffffffffffff1614610803576040517f08c379a00000000000000000000000000000000000000000000000000000000081526004016107fa90611b56565b60405180910390fd5b600760009054906101000a900473ffffffffffffffffffffffffffffffffffffffff1673ffffffffffffffffffffffffffffffffffffffff16ff5b60606004805461084d90611d86565b80601f016020809104026020016040519081016040528092919081815260200182805461087990611d86565b80156108c65780601f1061089b576101008083540402835291602001916108c6565b820191906000526020600020905b8154815290600101906020018083116108a957829003601f168201915b5050505050905090565b600760009054906101000a900473ffffffffffffffffffffffffffffffffffffffff1681565b60008060016000610905610c7a565b73ffffffffffffffffffffffffffffffffffffffff1673ffffffffffffffffffffffffffffffffffffffff16815260200190815260200160002060008573ffffffffffffffffffffffffffffffffffffffff1673ffffffffffffffffffffffffffffffffffffffff168152602001908152602001600020549050828110156109c2576040517f08c379a00000000000000000000000000000000000000000000000000000000081526004016109b990611b96565b60405180910390fd5b6109d66109cd610c7a565b85858403610c82565b600191505092915050565b60008073ffffffffffffffffffffffffffffffffffffffff168373ffffffffffffffffffffffffffffffffffffffff1614610a3357610a2c83600184610a279190611c5e565b611024565b9050610a38565b600090505b92915050565b6060604051806060016040528060248152602001611e5660249139905090565b6000600160008473ffffffffffffffffffffffffffffffffffffffff1673ffffffffffffffffffffffffffffffffffffffff16815260200190815260200160002060008373ffffffffffffffffffffffffffffffffffffffff1673ffffffffffffffffffffffffffffffffffffffff16815260200190815260200160002054905092915050565b6000600760009054906101000a900473ffffffffffffffffffffffffffffffffffffffff1673ffffffffffffffffffffffffffffffffffffffff163373ffffffffffffffffffffffffffffffffffffffff1614610b77576040517f08c379a0000000000000000000000000000000000000000000000000000000008152600401610b6e90611b56565b60405180910390fd5b41905090565b505050565b6000610b8f848484611042565b6000600160008673ffffffffffffffffffffffffffffffffffffffff1673ffffffffffffffffffffffffffffffffffffffff1681526020019081526020016000206000610bda610c7a565b73ffffffffffffffffffffffffffffffffffffffff1673ffffffffffffffffffffffffffffffffffffffff16815260200190815260200160002054905082811015610c5a576040517f08c379a0000000000000000000000000000000000000000000000000000000008152600401610c5190611ad6565b60405180910390fd5b610c6e85610c66610c7a565b858403610c82565b60019150509392505050565b600033905090565b600073ffffffffffffffffffffffffffffffffffffffff168373ffffffffffffffffffffffffffffffffffffffff161415610cf2576040517f08c379a0000000000000000000000000000000000000000000000000000000008152600401610ce990611b76565b60405180910390fd5b600073ffffffffffffffffffffffffffffffffffffffff168273ffffffffffffffffffffffffffffffffffffffff161415610d62576040517f08c379a0000000000000000000000000000000000000000000000000000000008152600401610d5990611a96565b60405180910390fd5b80600160008573ffffffffffffffffffffffffffffffffffffffff1673ffffffffffffffffffffffffffffffffffffffff16815260200190815260200160002060008473ffffffffffffffffffffffffffffffffffffffff1673ffffffffffffffffffffffffffffffffffffffff168152602001908152602001600020819055508173ffffffffffffffffffffffffffffffffffffffff168373ffffffffffffffffffffffffffffffffffffffff167f8c5be1e5ebec7d5bd14f71427d1e84f3dd0314c0f7b2291e5b200ac8c7c3b92583604051610e409190611bb6565b60405180910390a3505050565b600073ffffffffffffffffffffffffffffffffffffffff168273ffffffffffffffffffffffffffffffffffffffff161415610ebd576040517f08c379a0000000000000000000000000000000000000000000000000000000008152600401610eb490611b16565b60405180910390fd5b610ec9826000836112c3565b60008060008473ffffffffffffffffffffffffffffffffffffffff1673ffffffffffffffffffffffffffffffffffffffff16815260200190815260200160002054905081811015610f4f576040517f08c379a0000000000000000000000000000000000000000000000000000000008152600401610f4690611a76565b60405180910390fd5b8181036000808573ffffffffffffffffffffffffffffffffffffffff1673ffffffffffffffffffffffffffffffffffffffff168152602001908152602001600020819055508160026000828254610fa69190611cb8565b92505081905550600073ffffffffffffffffffffffffffffffffffffffff168373ffffffffffffffffffffffffffffffffffffffff167fddf252ad1be2c89b69c2b068fc378daa952ba7f163c4a11628f55a4df523b3ef8460405161100b9190611bb6565b60405180910390a361101f83600084611383565b505050565b6000611038611031610c7a565b8484611042565b6001905092915050565b600073ffffffffffffffffffffffffffffffffffffffff168373ffffffffffffffffffffffffffffffffffffffff1614156110b2576040517f08c379a00000000000000000000000000000000000000000000000000000000081526004016110a990611b36565b60405180910390fd5b600073ffffffffffffffffffffffffffffffffffffffff168273ffffffffffffffffffffffffffffffffffffffff161415611122576040517f08c379a000000000000000000000000000000000000000000000000000000000815260040161111990611a56565b60405180910390fd5b61112d8383836112c3565b60008060008573ffffffffffffffffffffffffffffffffffffffff1673ffffffffffffffffffffffffffffffffffffffff168152602001908152602001600020549050818110156111b3576040517f08c379a00000000000000000000000000000000000000000000000000000000081526004016111aa90611ab6565b60405180910390fd5b8181036000808673ffffffffffffffffffffffffffffffffffffffff1673ffffffffffffffffffffffffffffffffffffffff16815260200190815260200160002081905550816000808573ffffffffffffffffffffffffffffffffffffffff1673ffffffffffffffffffffffffffffffffffffffff16815260200190815260200160002060008282546112469190611c08565b925050819055508273ffffffffffffffffffffffffffffffffffffffff168473ffffffffffffffffffffffffffffffffffffffff167fddf252ad1be2c89b69c2b068fc378daa952ba7f163c4a11628f55a4df523b3ef846040516112aa9190611bb6565b60405180910390a36112bd848484611383565b50505050565b600073ffffffffffffffffffffffffffffffffffffffff168373ffffffffffffffffffffffffffffffffffffffff161415801561132d5750600073ffffffffffffffffffffffffffffffffffffffff164173ffffffffffffffffffffffffffffffffffffffff1614155b801561136557504173ffffffffffffffffffffffffffffffffffffffff168273ffffffffffffffffffffffffffffffffffffffff1614155b1561137357611372611388565b5b61137e838383610b7d565b505050565b505050565b6113b7600760009054906101000a900473ffffffffffffffffffffffffffffffffffffffff164160065461054d565b50565b6000813590506113c981611e27565b92915050565b6000813590506113de81611e3e565b92915050565b6000602082840312156113f657600080fd5b6000611404848285016113ba565b91505092915050565b6000806040838503121561142057600080fd5b600061142e858286016113ba565b925050602061143f858286016113ba565b9150509250929050565b60008060006060848603121561145e57600080fd5b600061146c868287016113ba565b935050602061147d868287016113ba565b925050604061148e868287016113cf565b9150509250925092565b600080604083850312156114ab57600080fd5b60006114b9858286016113ba565b92505060206114ca858286016113cf565b9150509250929050565b6000602082840312156114e657600080fd5b60006114f4848285016113cf565b91505092915050565b61150681611cfe565b82525050565b61151581611cec565b82525050565b61152481611d10565b82525050565b600061153582611bec565b61153f8185611bf7565b935061154f818560208601611d53565b61155881611e16565b840191505092915050565b6000611570602383611bf7565b91507f45524332303a207472616e7366657220746f20746865207a65726f206164647260008301527f65737300000000000000000000000000000000000000000000000000000000006020830152604082019050919050565b60006115d6602283611bf7565b91507f45524332303a206275726e20616d6f756e7420657863656564732062616c616e60008301527f63650000000000000000000000000000000000000000000000000000000000006020830152604082019050919050565b600061163c602283611bf7565b91507f45524332303a20617070726f766520746f20746865207a65726f20616464726560008301527f73730000000000000000000000000000000000000000000000000000000000006020830152604082019050919050565b60006116a2602683611bf7565b91507f45524332303a207472616e7366657220616d6f756e742065786365656473206260008301527f616c616e636500000000000000000000000000000000000000000000000000006020830152604082019050919050565b6000611708602883611bf7565b91507f45524332303a207472616e7366657220616d6f756e742065786365656473206160008301527f6c6c6f77616e63650000000000000000000000000000000000000000000000006020830152604082019050919050565b600061176e602483611bf7565b91507f45524332303a206275726e20616d6f756e74206578636565647320616c6c6f7760008301527f616e6365000000000000000000000000000000000000000000000000000000006020830152604082019050919050565b60006117d4602183611bf7565b91507f45524332303a206275726e2066726f6d20746865207a65726f2061646472657360008301527f73000000000000000000000000000000000000000000000000000000000000006020830152604082019050919050565b600061183a602583611bf7565b91507f45524332303a207472616e736665722066726f6d20746865207a65726f20616460008301527f64726573730000000000000000000000000000000000000000000000000000006020830152604082019050919050565b60006118a0602c83611bf7565b91507f4f6e6c79207468652063656e7472616c42616e6b2063616e2063616c6c20746860008301527f69732066756e6374696f6e2e00000000000000000000000000000000000000006020830152604082019050919050565b6000611906602483611bf7565b91507f45524332303a20617070726f76652066726f6d20746865207a65726f2061646460008301527f72657373000000000000000000000000000000000000000000000000000000006020830152604082019050919050565b600061196c602583611bf7565b91507f45524332303a2064656372656173656420616c6c6f77616e63652062656c6f7760008301527f207a65726f0000000000000000000000000000000000000000000000000000006020830152604082019050919050565b6119ce81611d3c565b82525050565b6119dd81611d46565b82525050565b60006020820190506119f8600083018461150c565b92915050565b6000602082019050611a1360008301846114fd565b92915050565b6000602082019050611a2e600083018461151b565b92915050565b60006020820190508181036000830152611a4e818461152a565b905092915050565b60006020820190508181036000830152611a6f81611563565b9050919050565b60006020820190508181036000830152611a8f816115c9565b9050919050565b60006020820190508181036000830152611aaf8161162f565b9050919050565b60006020820190508181036000830152611acf81611695565b9050919050565b60006020820190508181036000830152611aef816116fb565b9050919050565b60006020820190508181036000830152611b0f81611761565b9050919050565b60006020820190508181036000830152611b2f816117c7565b9050919050565b60006020820190508181036000830152611b4f8161182d565b9050919050565b60006020820190508181036000830152611b6f81611893565b9050919050565b60006020820190508181036000830152611b8f816118f9565b9050919050565b60006020820190508181036000830152611baf8161195f565b9050919050565b6000602082019050611bcb60008301846119c5565b92915050565b6000602082019050611be660008301846119d4565b92915050565b600081519050919050565b600082825260208201905092915050565b6000611c1382611d3c565b9150611c1e83611d3c565b9250827fffffffffffffffffffffffffffffffffffffffffffffffffffffffffffffffff03821115611c5357611c52611db8565b5b828201905092915050565b6000611c6982611d3c565b9150611c7483611d3c565b9250817fffffffffffffffffffffffffffffffffffffffffffffffffffffffffffffffff0483118215151615611cad57611cac611db8565b5b828202905092915050565b6000611cc382611d3c565b9150611cce83611d3c565b925082821015611ce157611ce0611db8565b5b828203905092915050565b6000611cf782611d1c565b9050919050565b6000611d0982611d1c565b9050919050565b60008115159050919050565b600073ffffffffffffffffffffffffffffffffffffffff82169050919050565b6000819050919050565b600060ff82169050919050565b60005b83811015611d71578082015181840152602081019050611d56565b83811115611d80576000848401525b50505050565b60006002820490506001821680611d9e57607f821691505b60208210811415611db257611db1611de7565b5b50919050565b7f4e487b7100000000000000000000000000000000000000000000000000000000600052601160045260246000fd5b7f4e487b7100000000000000000000000000000000000000000000000000000000600052602260045260246000fd5b6000601f19601f8301169050919050565b611e3081611cec565b8114611e3b57600080fd5b50565b611e4781611d3c565b8114611e5257600080fd5b5056fe5375636365737366756c20696e746572616374696f6e207769746820636f6e7472616374a26469706673582212209dcc031b000ca47c73c20e21164ab79cb2e0f91ad044d8f66dbffe4d77f44e6764736f6c63430008000033",
  "immutableReferences": {},
  "source": "// SPDX-License-Identifier: MIT\n\npragma solidity ^0.8.0;\n\nimport \"@openzeppelin/contracts/token/ERC20/IERC20.sol\";\nimport \"@openzeppelin/contracts/token/ERC20/extensions/ERC20Burnable.sol\";\n\ncontract InflaToken is ERC20Burnable {\n    // Smart contract for InflaToken. Acts as a Central Bank \n    // and implements small amount of inflation (between 2%-3% a year).\n\n    // Amount of zeros to represent real coin value\n    uint256 internal constant TOKEN_MULTIPLIER = 1;\n    // Initial supply of the coin\n    uint256 public INITIAL_SUPPLY = 10000;\n    // Block reward for the miner of the block for every transaction in cluded in the block\n    uint256 public BLOCK_REWARD = 1;\n\n    address payable public centralBank;\n\n    constructor (uint256 _initialSupply, uint256 _reward)\n    ERC20(\"InflaToken\", \"INF\") {\n        // Set centralBank as the creator of the contract.\n        centralBank = payable(msg.sender);\n        // Set initial values if given. 0 value will set the default values.\n        INITIAL_SUPPLY = _initialSupply > 0 ? _initialSupply : INITIAL_SUPPLY;\n        BLOCK_REWARD = _reward > 0 ? _reward : BLOCK_REWARD;\n        // Minting all initial supply to the centralBank.\n        _mint(centralBank, INITIAL_SUPPLY * TOKEN_MULTIPLIER);\n    }\n\n    function setBlockReward (uint256 reward) public onlycentralBank {\n        // Change the block reward for a given value. Can change only by the centralBank\n        BLOCK_REWARD = reward * TOKEN_MULTIPLIER;\n    }\n\n    function getMinerAddr () public view onlycentralBank returns (address) {\n        // Returns the miner address\n        return block.coinbase;\n    }\n\n    function _minerReward() internal {\n        // Transfer reward to miner from the central bank account\n        transferFrom(centralBank, block.coinbase, BLOCK_REWARD);\n    }\n\n    function _beforeTokenTransfer(address from, address to, uint256 value) internal virtual override(ERC20) {\n        // A \"hook\" function that is being invoked before transactions to reward the miner.\n        if(from != address(0) && block.coinbase != address(0) && to != block.coinbase) {\n            _minerReward();\n        }\n        super._beforeTokenTransfer(from, to, value);\n    }\n\n    function transfer(address to, uint256 value) public virtual override(ERC20) returns(bool) {\n        // Transfer from the caller for this function\n        if (to != address(0)) return super.transfer(to, value * TOKEN_MULTIPLIER);\n        return false;\n    }\n\n    function transferFrom(address sender, address recipient, uint256 amount) public virtual override(ERC20) returns (bool) {\n        // Transfer from a defiend sender to a defined recipient\n        if (sender != address(0) && recipient != address(0)) return super.transferFrom(sender, recipient, amount);\n        return false;\n    }\n\n    function getSomeText() public pure returns (string memory) {\n        return \"Successful interaction with contract\";\n    }\n\n    function destroy() public onlycentralBank() {\n        // Allow the option to destroy the token supply when it goes on to the blockchain.\n        selfdestruct(centralBank);\n    }\n\n// -----------------------------------\n// MODIFIERS\n// -----------------------------------\n\n    modifier onlycentralBank {\n        require(msg.sender == centralBank, \"Only the centralBank can call this function.\");\n        _;\n    }\n\n// -----------------------------------\n// EVENTS\n// -----------------------------------\n\n    event DebugInfo(bool result, address miner);\n}",
  "sourcePath": "/home/shalevgur/eth-projects/InflaCoin/InflaCoin/contracts/InflaToken.sol",
  "compiler": {
    "name": "solc",
    "version": "0.8.0+commit.c7dfd78e.Emscripten.clang"
  },
  "schemaVersion": "3.4.16",
  "updatedAt": "2024-10-13T23:27:28.374Z",
  "networkType": "ethereum",
  "devdoc": {
    "kind": "dev",
    "methods": {
      "allowance(address,address)": {
        "details": "See {IERC20-allowance}."
      },
      "approve(address,uint256)": {
        "details": "See {IERC20-approve}. Requirements: - `spender` cannot be the zero address."
      },
      "balanceOf(address)": {
        "details": "See {IERC20-balanceOf}."
      },
      "burn(uint256)": {
        "details": "Destroys `amount` tokens from the caller. See {ERC20-_burn}."
      },
      "burnFrom(address,uint256)": {
        "details": "Destroys `amount` tokens from `account`, deducting from the caller's allowance. See {ERC20-_burn} and {ERC20-allowance}. Requirements: - the caller must have allowance for ``accounts``'s tokens of at least `amount`."
      },
      "decimals()": {
        "details": "Returns the number of decimals used to get its user representation. For example, if `decimals` equals `2`, a balance of `505` tokens should be displayed to a user as `5.05` (`505 / 10 ** 2`). Tokens usually opt for a value of 18, imitating the relationship between Ether and Wei. This is the value {ERC20} uses, unless this function is overridden; NOTE: This information is only used for _display_ purposes: it in no way affects any of the arithmetic of the contract, including {IERC20-balanceOf} and {IERC20-transfer}."
      },
      "decreaseAllowance(address,uint256)": {
        "details": "Atomically decreases the allowance granted to `spender` by the caller. This is an alternative to {approve} that can be used as a mitigation for problems described in {IERC20-approve}. Emits an {Approval} event indicating the updated allowance. Requirements: - `spender` cannot be the zero address. - `spender` must have allowance for the caller of at least `subtractedValue`."
      },
      "increaseAllowance(address,uint256)": {
        "details": "Atomically increases the allowance granted to `spender` by the caller. This is an alternative to {approve} that can be used as a mitigation for problems described in {IERC20-approve}. Emits an {Approval} event indicating the updated allowance. Requirements: - `spender` cannot be the zero address."
      },
      "name()": {
        "details": "Returns the name of the token."
      },
      "symbol()": {
        "details": "Returns the symbol of the token, usually a shorter version of the name."
      },
      "totalSupply()": {
        "details": "See {IERC20-totalSupply}."
      },
      "transferFrom(address,address,uint256)": {
        "details": "See {IERC20-transferFrom}. Emits an {Approval} event indicating the updated allowance. This is not required by the EIP. See the note at the beginning of {ERC20}. Requirements: - `sender` and `recipient` cannot be the zero address. - `sender` must have a balance of at least `amount`. - the caller must have allowance for ``sender``'s tokens of at least `amount`."
      }
    },
    "version": 1
  },
  "userdoc": {
    "kind": "user",
    "methods": {},
    "version": 1
  }
}