{
  "contractName": "InflaToken",
  "abi": [
    {
      "inputs": [
        {
          "internalType": "uint256",
          "name": "_initialSupply",
          "type": "uint256"
        },
        {
          "internalType": "uint256",
          "name": "_reward",
          "type": "uint256"
        }
      ],
      "stateMutability": "nonpayable",
      "type": "constructor"
    },
    {
      "anonymous": false,
      "inputs": [
        {
          "indexed": true,
          "internalType": "address",
          "name": "owner",
          "type": "address"
        },
        {
          "indexed": true,
          "internalType": "address",
          "name": "spender",
          "type": "address"
        },
        {
          "indexed": false,
          "internalType": "uint256",
          "name": "value",
          "type": "uint256"
        }
      ],
      "name": "Approval",
      "type": "event"
    },
    {
      "anonymous": false,
      "inputs": [
        {
          "indexed": false,
          "internalType": "uint256",
          "name": "loanId",
          "type": "uint256"
        },
        {
          "indexed": false,
          "internalType": "uint256",
          "name": "repayAmount",
          "type": "uint256"
        },
        {
          "indexed": false,
          "internalType": "uint256",
          "name": "dueDate",
          "type": "uint256"
        },
        {
          "indexed": false,
          "internalType": "string",
          "name": "message",
          "type": "string"
        }
      ],
      "name": "BorrowResult",
      "type": "event"
    },
    {
      "anonymous": false,
      "inputs": [
        {
          "indexed": true,
          "internalType": "address",
          "name": "from",
          "type": "address"
        },
        {
          "indexed": true,
          "internalType": "address",
          "name": "to",
          "type": "address"
        },
        {
          "indexed": false,
          "internalType": "uint256",
          "name": "value",
          "type": "uint256"
        }
      ],
      "name": "Transfer",
      "type": "event"
    },
    {
      "anonymous": false,
      "inputs": [
        {
          "indexed": false,
          "internalType": "string",
          "name": "actionType",
          "type": "string"
        },
        {
          "indexed": false,
          "internalType": "string",
          "name": "message",
          "type": "string"
        }
      ],
      "name": "TransferResult",
      "type": "event"
    },
    {
      "inputs": [],
      "name": "BLOCK_REWARD",
      "outputs": [
        {
          "internalType": "uint256",
          "name": "",
          "type": "uint256"
        }
      ],
      "stateMutability": "view",
      "type": "function",
      "constant": true
    },
    {
      "inputs": [],
      "name": "INITIAL_SUPPLY",
      "outputs": [
        {
          "internalType": "uint256",
          "name": "",
          "type": "uint256"
        }
      ],
      "stateMutability": "view",
      "type": "function",
      "constant": true
    },
    {
      "inputs": [
        {
          "internalType": "address",
          "name": "owner",
          "type": "address"
        },
        {
          "internalType": "address",
          "name": "spender",
          "type": "address"
        }
      ],
      "name": "allowance",
      "outputs": [
        {
          "internalType": "uint256",
          "name": "",
          "type": "uint256"
        }
      ],
      "stateMutability": "view",
      "type": "function",
      "constant": true
    },
    {
      "inputs": [
        {
          "internalType": "address",
          "name": "spender",
          "type": "address"
        },
        {
          "internalType": "uint256",
          "name": "amount",
          "type": "uint256"
        }
      ],
      "name": "approve",
      "outputs": [
        {
          "internalType": "bool",
          "name": "",
          "type": "bool"
        }
      ],
      "stateMutability": "nonpayable",
      "type": "function"
    },
    {
      "inputs": [
        {
          "internalType": "address",
          "name": "account",
          "type": "address"
        }
      ],
      "name": "balanceOf",
      "outputs": [
        {
          "internalType": "uint256",
          "name": "",
          "type": "uint256"
        }
      ],
      "stateMutability": "view",
      "type": "function",
      "constant": true
    },
    {
      "inputs": [
        {
          "internalType": "uint256",
          "name": "amount",
          "type": "uint256"
        }
      ],
      "name": "burn",
      "outputs": [],
      "stateMutability": "nonpayable",
      "type": "function"
    },
    {
      "inputs": [
        {
          "internalType": "address",
          "name": "account",
          "type": "address"
        },
        {
          "internalType": "uint256",
          "name": "amount",
          "type": "uint256"
        }
      ],
      "name": "burnFrom",
      "outputs": [],
      "stateMutability": "nonpayable",
      "type": "function"
    },
    {
      "inputs": [],
      "name": "decimals",
      "outputs": [
        {
          "internalType": "uint8",
          "name": "",
          "type": "uint8"
        }
      ],
      "stateMutability": "view",
      "type": "function",
      "constant": true
    },
    {
      "inputs": [
        {
          "internalType": "address",
          "name": "spender",
          "type": "address"
        },
        {
          "internalType": "uint256",
          "name": "subtractedValue",
          "type": "uint256"
        }
      ],
      "name": "decreaseAllowance",
      "outputs": [
        {
          "internalType": "bool",
          "name": "",
          "type": "bool"
        }
      ],
      "stateMutability": "nonpayable",
      "type": "function"
    },
    {
      "inputs": [
        {
          "internalType": "address",
          "name": "spender",
          "type": "address"
        },
        {
          "internalType": "uint256",
          "name": "addedValue",
          "type": "uint256"
        }
      ],
      "name": "increaseAllowance",
      "outputs": [
        {
          "internalType": "bool",
          "name": "",
          "type": "bool"
        }
      ],
      "stateMutability": "nonpayable",
      "type": "function"
    },
    {
      "inputs": [],
      "name": "name",
      "outputs": [
        {
          "internalType": "string",
          "name": "",
          "type": "string"
        }
      ],
      "stateMutability": "view",
      "type": "function",
      "constant": true
    },
    {
      "inputs": [],
      "name": "symbol",
      "outputs": [
        {
          "internalType": "string",
          "name": "",
          "type": "string"
        }
      ],
      "stateMutability": "view",
      "type": "function",
      "constant": true
    },
    {
      "inputs": [],
      "name": "totalSupply",
      "outputs": [
        {
          "internalType": "uint256",
          "name": "",
          "type": "uint256"
        }
      ],
      "stateMutability": "view",
      "type": "function",
      "constant": true
    },
    {
      "inputs": [
        {
          "internalType": "uint256",
          "name": "reward",
          "type": "uint256"
        }
      ],
      "name": "setBlockReward",
      "outputs": [],
      "stateMutability": "nonpayable",
      "type": "function"
    },
    {
      "inputs": [
        {
          "internalType": "address",
          "name": "_loanContractAddress",
          "type": "address"
        }
      ],
      "name": "setLoanContractAddress",
      "outputs": [],
      "stateMutability": "nonpayable",
      "type": "function"
    },
    {
      "inputs": [],
      "name": "getMinerAddr",
      "outputs": [
        {
          "internalType": "address",
          "name": "",
          "type": "address"
        }
      ],
      "stateMutability": "view",
      "type": "function",
      "constant": true
    },
    {
      "inputs": [],
      "name": "getInterestRate",
      "outputs": [
        {
          "internalType": "uint256",
          "name": "",
          "type": "uint256"
        }
      ],
      "stateMutability": "view",
      "type": "function",
      "constant": true
    },
    {
      "inputs": [
        {
          "internalType": "address",
          "name": "to",
          "type": "address"
        },
        {
          "internalType": "uint256",
          "name": "value",
          "type": "uint256"
        }
      ],
      "name": "transfer",
      "outputs": [
        {
          "internalType": "bool",
          "name": "",
          "type": "bool"
        }
      ],
      "stateMutability": "nonpayable",
      "type": "function"
    },
    {
      "inputs": [
        {
          "internalType": "address",
          "name": "sender",
          "type": "address"
        },
        {
          "internalType": "address",
          "name": "recipient",
          "type": "address"
        },
        {
          "internalType": "uint256",
          "name": "amount",
          "type": "uint256"
        }
      ],
      "name": "transferFrom",
      "outputs": [
        {
          "internalType": "bool",
          "name": "",
          "type": "bool"
        }
      ],
      "stateMutability": "nonpayable",
      "type": "function"
    },
    {
      "inputs": [
        {
          "internalType": "string",
          "name": "actionType",
          "type": "string"
        },
        {
          "internalType": "address",
          "name": "sender",
          "type": "address"
        },
        {
          "internalType": "address",
          "name": "recipient",
          "type": "address"
        },
        {
          "internalType": "uint256",
          "name": "amount",
          "type": "uint256"
        }
      ],
      "name": "transferTo",
      "outputs": [
        {
          "internalType": "string",
          "name": "",
          "type": "string"
        }
      ],
      "stateMutability": "nonpayable",
      "type": "function"
    },
    {
      "inputs": [
        {
          "internalType": "address",
          "name": "account",
          "type": "address"
        },
        {
          "internalType": "uint256",
          "name": "amount",
          "type": "uint256"
        }
      ],
      "name": "faucet",
      "outputs": [
        {
          "internalType": "string",
          "name": "",
          "type": "string"
        }
      ],
      "stateMutability": "nonpayable",
      "type": "function"
    },
    {
      "inputs": [
        {
          "internalType": "address",
          "name": "borrower",
          "type": "address"
        },
        {
          "internalType": "uint256",
          "name": "amount",
          "type": "uint256"
        },
        {
          "internalType": "uint256",
          "name": "duration",
          "type": "uint256"
        }
      ],
      "name": "borrow",
      "outputs": [
        {
          "internalType": "uint256",
          "name": "loanId",
          "type": "uint256"
        },
        {
          "internalType": "uint256",
          "name": "repayAmount",
          "type": "uint256"
        },
        {
          "internalType": "uint256",
          "name": "dueDate",
          "type": "uint256"
        },
        {
          "internalType": "string",
          "name": "",
          "type": "string"
        }
      ],
      "stateMutability": "nonpayable",
      "type": "function"
    },
    {
      "inputs": [],
      "name": "getSomeText",
      "outputs": [
        {
          "internalType": "string",
          "name": "",
          "type": "string"
        }
      ],
      "stateMutability": "pure",
      "type": "function",
      "constant": true
    },
    {
      "inputs": [],
      "name": "destroy",
      "outputs": [],
      "stateMutability": "nonpayable",
      "type": "function"
    }
  ],
  "bytecode": "0x608060405261271060055560016006553480156200001c57600080fd5b5060405162003a4438038062003a44833981810160405281019062000042919062000b31565b6040518060400160405280600a81526020017f496e666c61546f6b656e000000000000000000000000000000000000000000008152506040518060400160405280600381526020017f494e4600000000000000000000000000000000000000000000000000000000008152508160039080519060200190620000c692919062000a6a565b508060049080519060200190620000df92919062000a6a565b50505033600760006101000a81548173ffffffffffffffffffffffffffffffffffffffff021916908373ffffffffffffffffffffffffffffffffffffffff16021790555060008211620001355760055462000137565b815b600581905550600081116200014f5760065462000151565b805b6006819055506200019b600760009054906101000a900473ffffffffffffffffffffffffffffffffffffffff1660016005546200018f919062000fae565b620001a360201b60201c565b5050620010c7565b600073ffffffffffffffffffffffffffffffffffffffff168273ffffffffffffffffffffffffffffffffffffffff16141562000216576040517f08c379a00000000000000000000000000000000000000000000000000000000081526004016200020d9062000f01565b60405180910390fd5b6200022a600083836200031c60201b60201c565b80600260008282546200023e919062000f51565b92505081905550806000808473ffffffffffffffffffffffffffffffffffffffff1673ffffffffffffffffffffffffffffffffffffffff168152602001908152602001600020600082825462000295919062000f51565b925050819055508173ffffffffffffffffffffffffffffffffffffffff16600073ffffffffffffffffffffffffffffffffffffffff167fddf252ad1be2c89b69c2b068fc378daa952ba7f163c4a11628f55a4df523b3ef83604051620002fc919062000f23565b60405180910390a36200031860008383620003f460201b60201c565b5050565b600073ffffffffffffffffffffffffffffffffffffffff168373ffffffffffffffffffffffffffffffffffffffff1614158015620003875750600073ffffffffffffffffffffffffffffffffffffffff164173ffffffffffffffffffffffffffffffffffffffff1614155b8015620003c057504173ffffffffffffffffffffffffffffffffffffffff168273ffffffffffffffffffffffffffffffffffffffff1614155b15620003d757620003d6620003f960201b60201c565b5b620003ef8383836200043360201b6200117a1760201c565b505050565b505050565b62000430600760009054906101000a900473ffffffffffffffffffffffffffffffffffffffff16416006546200043860201b60201c565b50565b505050565b60008073ffffffffffffffffffffffffffffffffffffffff168473ffffffffffffffffffffffffffffffffffffffff1614158015620004a45750600073ffffffffffffffffffffffffffffffffffffffff168373ffffffffffffffffffffffffffffffffffffffff1614155b15620004ca57620004c2848484620004d660201b6200117f1760201c565b9050620004cf565b600090505b9392505050565b6000620004eb848484620005f160201b60201c565b6000600160008673ffffffffffffffffffffffffffffffffffffffff1673ffffffffffffffffffffffffffffffffffffffff16815260200190815260200160002060006200053e6200088f60201b60201c565b73ffffffffffffffffffffffffffffffffffffffff1673ffffffffffffffffffffffffffffffffffffffff16815260200190815260200160002054905082811015620005c1576040517f08c379a0000000000000000000000000000000000000000000000000000000008152600401620005b89062000e9b565b60405180910390fd5b620005e585620005d66200088f60201b60201c565b8584036200089760201b60201c565b60019150509392505050565b600073ffffffffffffffffffffffffffffffffffffffff168373ffffffffffffffffffffffffffffffffffffffff16141562000664576040517f08c379a00000000000000000000000000000000000000000000000000000000081526004016200065b9062000ebd565b60405180910390fd5b600073ffffffffffffffffffffffffffffffffffffffff168273ffffffffffffffffffffffffffffffffffffffff161415620006d7576040517f08c379a0000000000000000000000000000000000000000000000000000000008152600401620006ce9062000e35565b60405180910390fd5b620006ea8383836200031c60201b60201c565b60008060008573ffffffffffffffffffffffffffffffffffffffff1673ffffffffffffffffffffffffffffffffffffffff1681526020019081526020016000205490508181101562000773576040517f08c379a00000000000000000000000000000000000000000000000000000000081526004016200076a9062000e79565b60405180910390fd5b8181036000808673ffffffffffffffffffffffffffffffffffffffff1673ffffffffffffffffffffffffffffffffffffffff16815260200190815260200160002081905550816000808573ffffffffffffffffffffffffffffffffffffffff1673ffffffffffffffffffffffffffffffffffffffff168152602001908152602001600020600082825462000808919062000f51565b925050819055508273ffffffffffffffffffffffffffffffffffffffff168473ffffffffffffffffffffffffffffffffffffffff167fddf252ad1be2c89b69c2b068fc378daa952ba7f163c4a11628f55a4df523b3ef846040516200086e919062000f23565b60405180910390a362000889848484620003f460201b60201c565b50505050565b600033905090565b600073ffffffffffffffffffffffffffffffffffffffff168373ffffffffffffffffffffffffffffffffffffffff1614156200090a576040517f08c379a0000000000000000000000000000000000000000000000000000000008152600401620009019062000edf565b60405180910390fd5b600073ffffffffffffffffffffffffffffffffffffffff168273ffffffffffffffffffffffffffffffffffffffff1614156200097d576040517f08c379a0000000000000000000000000000000000000000000000000000000008152600401620009749062000e57565b60405180910390fd5b80600160008573ffffffffffffffffffffffffffffffffffffffff1673ffffffffffffffffffffffffffffffffffffffff16815260200190815260200160002060008473ffffffffffffffffffffffffffffffffffffffff1673ffffffffffffffffffffffffffffffffffffffff168152602001908152602001600020819055508173ffffffffffffffffffffffffffffffffffffffff168373ffffffffffffffffffffffffffffffffffffffff167f8c5be1e5ebec7d5bd14f71427d1e84f3dd0314c0f7b2291e5b200ac8c7c3b9258360405162000a5d919062000f23565b60405180910390a3505050565b82805462000a789062001019565b90600052602060002090601f01602090048101928262000a9c576000855562000ae8565b82601f1062000ab757805160ff191683800117855562000ae8565b8280016001018555821562000ae8579182015b8281111562000ae757825182559160200191906001019062000aca565b5b50905062000af7919062000afb565b5090565b5b8082111562000b1657600081600090555060010162000afc565b5090565b60008151905062000b2b81620010ad565b92915050565b6000806040838503121562000b4557600080fd5b600062000b558582860162000b1a565b925050602062000b688582860162000b1a565b9150509250929050565b600062000b8160238362000f40565b91507f45524332303a207472616e7366657220746f20746865207a65726f206164647260008301527f65737300000000000000000000000000000000000000000000000000000000006020830152604082019050919050565b600062000be960228362000f40565b91507f45524332303a20617070726f766520746f20746865207a65726f20616464726560008301527f73730000000000000000000000000000000000000000000000000000000000006020830152604082019050919050565b600062000c5160268362000f40565b91507f45524332303a207472616e7366657220616d6f756e742065786365656473206260008301527f616c616e636500000000000000000000000000000000000000000000000000006020830152604082019050919050565b600062000cb960288362000f40565b91507f45524332303a207472616e7366657220616d6f756e742065786365656473206160008301527f6c6c6f77616e63650000000000000000000000000000000000000000000000006020830152604082019050919050565b600062000d2160258362000f40565b91507f45524332303a207472616e736665722066726f6d20746865207a65726f20616460008301527f64726573730000000000000000000000000000000000000000000000000000006020830152604082019050919050565b600062000d8960248362000f40565b91507f45524332303a20617070726f76652066726f6d20746865207a65726f2061646460008301527f72657373000000000000000000000000000000000000000000000000000000006020830152604082019050919050565b600062000df1601f8362000f40565b91507f45524332303a206d696e7420746f20746865207a65726f2061646472657373006000830152602082019050919050565b62000e2f816200100f565b82525050565b6000602082019050818103600083015262000e508162000b72565b9050919050565b6000602082019050818103600083015262000e728162000bda565b9050919050565b6000602082019050818103600083015262000e948162000c42565b9050919050565b6000602082019050818103600083015262000eb68162000caa565b9050919050565b6000602082019050818103600083015262000ed88162000d12565b9050919050565b6000602082019050818103600083015262000efa8162000d7a565b9050919050565b6000602082019050818103600083015262000f1c8162000de2565b9050919050565b600060208201905062000f3a600083018462000e24565b92915050565b600082825260208201905092915050565b600062000f5e826200100f565b915062000f6b836200100f565b9250827fffffffffffffffffffffffffffffffffffffffffffffffffffffffffffffffff0382111562000fa35762000fa26200104f565b5b828201905092915050565b600062000fbb826200100f565b915062000fc8836200100f565b9250817fffffffffffffffffffffffffffffffffffffffffffffffffffffffffffffffff04831182151516156200100457620010036200104f565b5b828202905092915050565b6000819050919050565b600060028204905060018216806200103257607f821691505b602082108114156200104957620010486200107e565b5b50919050565b7f4e487b7100000000000000000000000000000000000000000000000000000000600052601160045260246000fd5b7f4e487b7100000000000000000000000000000000000000000000000000000000600052602260045260246000fd5b620010b8816200100f565b8114620010c457600080fd5b50565b61296d80620010d76000396000f3fe608060405234801561001057600080fd5b50600436106101585760003560e01c80637b56c2b2116100c3578063af0563ec1161007c578063af0563ec146103dd578063b2ba07db1461040d578063c1bce0b714610429578063ce058c611461045c578063dd62ed3e1461047a578063f010e15a146104aa57610158565b80637b56c2b2146103075780637f05b9ef1461033757806383197ef01461035557806395d89b411461035f578063a457c2d71461037d578063a9059cbb146103ad57610158565b8063313ce56711610115578063313ce56714610233578063395093511461025157806342966c68146102815780635257b5661461029d57806370a08231146102bb57806379cc6790146102eb57610158565b806306fdde031461015d578063095ea7b31461017b57806318160ddd146101ab5780631a18e707146101c957806323b872dd146101e55780632ff2e9dc14610215575b600080fd5b6101656104c8565b6040516101729190612337565b60405180910390f35b61019560048036038101906101909190611b7a565b61055a565b6040516101a2919061231c565b60405180910390f35b6101b3610578565b6040516101c09190612523565b60405180910390f35b6101e360048036038101906101de9190611c80565b610582565b005b6101ff60048036038101906101fa9190611b2b565b610628565b60405161020c919061231c565b60405180910390f35b61021d6106b6565b60405161022a9190612523565b60405180910390f35b61023b6106bc565b604051610248919061258a565b60405180910390f35b61026b60048036038101906102669190611b7a565b6106c5565b604051610278919061231c565b60405180910390f35b61029b60048036038101906102969190611c80565b610771565b005b6102a5610785565b6040516102b29190612523565b60405180910390f35b6102d560048036038101906102d09190611ac6565b61082c565b6040516102e29190612523565b60405180910390f35b61030560048036038101906103009190611b7a565b610874565b005b610321600480360381019061031c9190611b7a565b6108ef565b60405161032e9190612337565b60405180910390f35b61033f610a08565b60405161034c9190612523565b60405180910390f35b61035d610a0e565b005b610367610ad9565b6040516103749190612337565b60405180910390f35b61039760048036038101906103929190611b7a565b610b6b565b6040516103a4919061231c565b60405180910390f35b6103c760048036038101906103c29190611b7a565b610c56565b6040516103d4919061231c565b60405180910390f35b6103f760048036038101906103f29190611c05565b610cb3565b6040516104049190612337565b60405180910390f35b61042760048036038101906104229190611ac6565b610e46565b005b610443600480360381019061043e9190611bb6565b610f1a565b604051610453949392919061253e565b60405180910390f35b61046461103b565b6040516104719190612337565b60405180910390f35b610494600480360381019061048f9190611aef565b61105b565b6040516104a19190612523565b60405180910390f35b6104b26110e2565b6040516104bf91906122ca565b60405180910390f35b6060600380546104d79061279d565b80601f01602080910402602001604051908101604052809291908181526020018280546105039061279d565b80156105505780601f1061052557610100808354040283529160200191610550565b820191906000526020600020905b81548152906001019060200180831161053357829003601f168201915b5050505050905090565b600061056e610567611277565b848461127f565b6001905092915050565b6000600254905090565b600760009054906101000a900473ffffffffffffffffffffffffffffffffffffffff1673ffffffffffffffffffffffffffffffffffffffff163373ffffffffffffffffffffffffffffffffffffffff1614610612576040517f08c379a0000000000000000000000000000000000000000000000000000000008152600401610609906124c3565b60405180910390fd5b60018161061f9190612678565b60068190555050565b60008073ffffffffffffffffffffffffffffffffffffffff168473ffffffffffffffffffffffffffffffffffffffff16141580156106935750600073ffffffffffffffffffffffffffffffffffffffff168373ffffffffffffffffffffffffffffffffffffffff1614155b156106aa576106a384848461117f565b90506106af565b600090505b9392505050565b60055481565b60006012905090565b60006107676106d2611277565b8484600160006106e0611277565b73ffffffffffffffffffffffffffffffffffffffff1673ffffffffffffffffffffffffffffffffffffffff16815260200190815260200160002060008873ffffffffffffffffffffffffffffffffffffffff1673ffffffffffffffffffffffffffffffffffffffff168152602001908152602001600020546107629190612622565b61127f565b6001905092915050565b61078261077c611277565b8261144a565b50565b6000600860009054906101000a900473ffffffffffffffffffffffffffffffffffffffff1673ffffffffffffffffffffffffffffffffffffffff16635257b5666040518163ffffffff1660e01b815260040160206040518083038186803b1580156107ef57600080fd5b505afa158015610803573d6000803e3d6000fd5b505050506040513d601f19601f820116820180604052508101906108279190611ca9565b905090565b60008060008373ffffffffffffffffffffffffffffffffffffffff1673ffffffffffffffffffffffffffffffffffffffff168152602001908152602001600020549050919050565b600061088783610882611277565b61105b565b9050818110156108cc576040517f08c379a00000000000000000000000000000000000000000000000000000000081526004016108c390612463565b60405180910390fd5b6108e0836108d8611277565b84840361127f565b6108ea838361144a565b505050565b6060600760009054906101000a900473ffffffffffffffffffffffffffffffffffffffff1673ffffffffffffffffffffffffffffffffffffffff168373ffffffffffffffffffffffffffffffffffffffff16141561099c577f6a5b67bb68c36d255fee91306fc157d6cff6496193b3eea935aac3b9d92d4230604051610974906123f0565b60405180910390a160405180606001604052806026815260200161289c602691399050610a02565b6109ff6040518060400160405280600681526020017f6661756365740000000000000000000000000000000000000000000000000000815250600760009054906101000a900473ffffffffffffffffffffffffffffffffffffffff168585610cb3565b90505b92915050565b60065481565b600760009054906101000a900473ffffffffffffffffffffffffffffffffffffffff1673ffffffffffffffffffffffffffffffffffffffff163373ffffffffffffffffffffffffffffffffffffffff1614610a9e576040517f08c379a0000000000000000000000000000000000000000000000000000000008152600401610a95906124c3565b60405180910390fd5b600760009054906101000a900473ffffffffffffffffffffffffffffffffffffffff1673ffffffffffffffffffffffffffffffffffffffff16ff5b606060048054610ae89061279d565b80601f0160208091040260200160405190810160405280929190818152602001828054610b149061279d565b8015610b615780601f10610b3657610100808354040283529160200191610b61565b820191906000526020600020905b815481529060010190602001808311610b4457829003601f168201915b5050505050905090565b60008060016000610b7a611277565b73ffffffffffffffffffffffffffffffffffffffff1673ffffffffffffffffffffffffffffffffffffffff16815260200190815260200160002060008573ffffffffffffffffffffffffffffffffffffffff1673ffffffffffffffffffffffffffffffffffffffff16815260200190815260200160002054905082811015610c37576040517f08c379a0000000000000000000000000000000000000000000000000000000008152600401610c2e90612503565b60405180910390fd5b610c4b610c42611277565b8585840361127f565b600191505092915050565b60008073ffffffffffffffffffffffffffffffffffffffff168373ffffffffffffffffffffffffffffffffffffffff1614610ca857610ca183600184610c9c9190612678565b611621565b9050610cad565b600090505b92915050565b6060806000610cc18661082c565b9050600073ffffffffffffffffffffffffffffffffffffffff168573ffffffffffffffffffffffffffffffffffffffff161415610d73576040518060400160405280602081526020017f4e6f2073756368206164647265737320617320676976656e206164647265737381525091507f6a5b67bb68c36d255fee91306fc157d6cff6496193b3eea935aac3b9d92d42308783604051610d61929190612359565b60405180910390a18192505050610e3e565b83811015610dd9576040518060600160405280602b81526020016128c2602b913991507f6a5b67bb68c36d255fee91306fc157d6cff6496193b3eea935aac3b9d92d42308783604051610dc7929190612359565b60405180910390a18192505050610e3e565b610de486868661163f565b6040518060600160405280602781526020016128ed6027913991507f6a5b67bb68c36d255fee91306fc157d6cff6496193b3eea935aac3b9d92d42308783604051610e30929190612359565b60405180910390a181925050505b949350505050565b600760009054906101000a900473ffffffffffffffffffffffffffffffffffffffff1673ffffffffffffffffffffffffffffffffffffffff163373ffffffffffffffffffffffffffffffffffffffff1614610ed6576040517f08c379a0000000000000000000000000000000000000000000000000000000008152600401610ecd906124c3565b60405180910390fd5b80600860006101000a81548173ffffffffffffffffffffffffffffffffffffffff021916908373ffffffffffffffffffffffffffffffffffffffff16021790555050565b60008060006060600080600080600860009054906101000a900473ffffffffffffffffffffffffffffffffffffffff1673ffffffffffffffffffffffffffffffffffffffff1663c1bce0b78c8c8c6040518463ffffffff1660e01b8152600401610f86939291906122e5565b600060405180830381600087803b158015610fa057600080fd5b505af1158015610fb4573d6000803e3d6000fd5b505050506040513d6000823e3d601f19601f82011682018060405250810190610fdd9190611cd2565b93509350935093507fa8fd7e6055487307ffef256482e3f9cf36c83781a79e5d04ffb0609a323c99ed8484848460405161101a949392919061253e565b60405180910390a18383838397509750975097505050505093509350935093565b606060405180606001604052806024815260200161291460249139905090565b6000600160008473ffffffffffffffffffffffffffffffffffffffff1673ffffffffffffffffffffffffffffffffffffffff16815260200190815260200160002060008373ffffffffffffffffffffffffffffffffffffffff1673ffffffffffffffffffffffffffffffffffffffff16815260200190815260200160002054905092915050565b6000600760009054906101000a900473ffffffffffffffffffffffffffffffffffffffff1673ffffffffffffffffffffffffffffffffffffffff163373ffffffffffffffffffffffffffffffffffffffff1614611174576040517f08c379a000000000000000000000000000000000000000000000000000000000815260040161116b906124c3565b60405180910390fd5b41905090565b505050565b600061118c84848461163f565b6000600160008673ffffffffffffffffffffffffffffffffffffffff1673ffffffffffffffffffffffffffffffffffffffff16815260200190815260200160002060006111d7611277565b73ffffffffffffffffffffffffffffffffffffffff1673ffffffffffffffffffffffffffffffffffffffff16815260200190815260200160002054905082811015611257576040517f08c379a000000000000000000000000000000000000000000000000000000000815260040161124e90612443565b60405180910390fd5b61126b85611263611277565b85840361127f565b60019150509392505050565b600033905090565b600073ffffffffffffffffffffffffffffffffffffffff168373ffffffffffffffffffffffffffffffffffffffff1614156112ef576040517f08c379a00000000000000000000000000000000000000000000000000000000081526004016112e6906124e3565b60405180910390fd5b600073ffffffffffffffffffffffffffffffffffffffff168273ffffffffffffffffffffffffffffffffffffffff16141561135f576040517f08c379a0000000000000000000000000000000000000000000000000000000008152600401611356906123d0565b60405180910390fd5b80600160008573ffffffffffffffffffffffffffffffffffffffff1673ffffffffffffffffffffffffffffffffffffffff16815260200190815260200160002060008473ffffffffffffffffffffffffffffffffffffffff1673ffffffffffffffffffffffffffffffffffffffff168152602001908152602001600020819055508173ffffffffffffffffffffffffffffffffffffffff168373ffffffffffffffffffffffffffffffffffffffff167f8c5be1e5ebec7d5bd14f71427d1e84f3dd0314c0f7b2291e5b200ac8c7c3b9258360405161143d9190612523565b60405180910390a3505050565b600073ffffffffffffffffffffffffffffffffffffffff168273ffffffffffffffffffffffffffffffffffffffff1614156114ba576040517f08c379a00000000000000000000000000000000000000000000000000000000081526004016114b190612483565b60405180910390fd5b6114c6826000836118c0565b60008060008473ffffffffffffffffffffffffffffffffffffffff1673ffffffffffffffffffffffffffffffffffffffff1681526020019081526020016000205490508181101561154c576040517f08c379a0000000000000000000000000000000000000000000000000000000008152600401611543906123b0565b60405180910390fd5b8181036000808573ffffffffffffffffffffffffffffffffffffffff1673ffffffffffffffffffffffffffffffffffffffff1681526020019081526020016000208190555081600260008282546115a391906126d2565b92505081905550600073ffffffffffffffffffffffffffffffffffffffff168373ffffffffffffffffffffffffffffffffffffffff167fddf252ad1be2c89b69c2b068fc378daa952ba7f163c4a11628f55a4df523b3ef846040516116089190612523565b60405180910390a361161c83600084611980565b505050565b600061163561162e611277565b848461163f565b6001905092915050565b600073ffffffffffffffffffffffffffffffffffffffff168373ffffffffffffffffffffffffffffffffffffffff1614156116af576040517f08c379a00000000000000000000000000000000000000000000000000000000081526004016116a6906124a3565b60405180910390fd5b600073ffffffffffffffffffffffffffffffffffffffff168273ffffffffffffffffffffffffffffffffffffffff16141561171f576040517f08c379a000000000000000000000000000000000000000000000000000000000815260040161171690612390565b60405180910390fd5b61172a8383836118c0565b60008060008573ffffffffffffffffffffffffffffffffffffffff1673ffffffffffffffffffffffffffffffffffffffff168152602001908152602001600020549050818110156117b0576040517f08c379a00000000000000000000000000000000000000000000000000000000081526004016117a790612423565b60405180910390fd5b8181036000808673ffffffffffffffffffffffffffffffffffffffff1673ffffffffffffffffffffffffffffffffffffffff16815260200190815260200160002081905550816000808573ffffffffffffffffffffffffffffffffffffffff1673ffffffffffffffffffffffffffffffffffffffff16815260200190815260200160002060008282546118439190612622565b925050819055508273ffffffffffffffffffffffffffffffffffffffff168473ffffffffffffffffffffffffffffffffffffffff167fddf252ad1be2c89b69c2b068fc378daa952ba7f163c4a11628f55a4df523b3ef846040516118a79190612523565b60405180910390a36118ba848484611980565b50505050565b600073ffffffffffffffffffffffffffffffffffffffff168373ffffffffffffffffffffffffffffffffffffffff161415801561192a5750600073ffffffffffffffffffffffffffffffffffffffff164173ffffffffffffffffffffffffffffffffffffffff1614155b801561196257504173ffffffffffffffffffffffffffffffffffffffff168273ffffffffffffffffffffffffffffffffffffffff1614155b156119705761196f611985565b5b61197b83838361117a565b505050565b505050565b6119b4600760009054906101000a900473ffffffffffffffffffffffffffffffffffffffff1641600654610628565b50565b60006119ca6119c5846125d6565b6125a5565b9050828152602081018484840111156119e257600080fd5b6119ed84828561275b565b509392505050565b6000611a08611a03846125d6565b6125a5565b905082815260208101848484011115611a2057600080fd5b611a2b84828561276a565b509392505050565b600081359050611a428161286d565b92915050565b600082601f830112611a5957600080fd5b8135611a698482602086016119b7565b91505092915050565b600082601f830112611a8357600080fd5b8151611a938482602086016119f5565b91505092915050565b600081359050611aab81612884565b92915050565b600081519050611ac081612884565b92915050565b600060208284031215611ad857600080fd5b6000611ae684828501611a33565b91505092915050565b60008060408385031215611b0257600080fd5b6000611b1085828601611a33565b9250506020611b2185828601611a33565b9150509250929050565b600080600060608486031215611b4057600080fd5b6000611b4e86828701611a33565b9350506020611b5f86828701611a33565b9250506040611b7086828701611a9c565b9150509250925092565b60008060408385031215611b8d57600080fd5b6000611b9b85828601611a33565b9250506020611bac85828601611a9c565b9150509250929050565b600080600060608486031215611bcb57600080fd5b6000611bd986828701611a33565b9350506020611bea86828701611a9c565b9250506040611bfb86828701611a9c565b9150509250925092565b60008060008060808587031215611c1b57600080fd5b600085013567ffffffffffffffff811115611c3557600080fd5b611c4187828801611a48565b9450506020611c5287828801611a33565b9350506040611c6387828801611a33565b9250506060611c7487828801611a9c565b91505092959194509250565b600060208284031215611c9257600080fd5b6000611ca084828501611a9c565b91505092915050565b600060208284031215611cbb57600080fd5b6000611cc984828501611ab1565b91505092915050565b60008060008060808587031215611ce857600080fd5b6000611cf687828801611ab1565b9450506020611d0787828801611ab1565b9350506040611d1887828801611ab1565b925050606085015167ffffffffffffffff811115611d3557600080fd5b611d4187828801611a72565b91505092959194509250565b611d5681612706565b82525050565b611d6581612718565b82525050565b6000611d7682612606565b611d808185612611565b9350611d9081856020860161276a565b611d998161285c565b840191505092915050565b6000611db1602383612611565b91507f45524332303a207472616e7366657220746f20746865207a65726f206164647260008301527f65737300000000000000000000000000000000000000000000000000000000006020830152604082019050919050565b6000611e17602283612611565b91507f45524332303a206275726e20616d6f756e7420657863656564732062616c616e60008301527f63650000000000000000000000000000000000000000000000000000000000006020830152604082019050919050565b6000611e7d602283612611565b91507f45524332303a20617070726f766520746f20746865207a65726f20616464726560008301527f73730000000000000000000000000000000000000000000000000000000000006020830152604082019050919050565b6000611ee3600683612611565b91507f66617563657400000000000000000000000000000000000000000000000000006000830152602082019050919050565b6000611f23602683612611565b91507f45524332303a207472616e7366657220616d6f756e742065786365656473206260008301527f616c616e636500000000000000000000000000000000000000000000000000006020830152604082019050919050565b6000611f89602683612611565b91507f43616e206e6f74207472616e736665722066756e647320746f2074686973206160008301527f63636f756e7400000000000000000000000000000000000000000000000000006020830152604082019050919050565b6000611fef602883612611565b91507f45524332303a207472616e7366657220616d6f756e742065786365656473206160008301527f6c6c6f77616e63650000000000000000000000000000000000000000000000006020830152604082019050919050565b6000612055602483612611565b91507f45524332303a206275726e20616d6f756e74206578636565647320616c6c6f7760008301527f616e6365000000000000000000000000000000000000000000000000000000006020830152604082019050919050565b60006120bb602183612611565b91507f45524332303a206275726e2066726f6d20746865207a65726f2061646472657360008301527f73000000000000000000000000000000000000000000000000000000000000006020830152604082019050919050565b6000612121602583612611565b91507f45524332303a207472616e736665722066726f6d20746865207a65726f20616460008301527f64726573730000000000000000000000000000000000000000000000000000006020830152604082019050919050565b6000612187602c83612611565b91507f4f6e6c79207468652063656e7472616c42616e6b2063616e2063616c6c20746860008301527f69732066756e6374696f6e2e00000000000000000000000000000000000000006020830152604082019050919050565b60006121ed602483612611565b91507f45524332303a20617070726f76652066726f6d20746865207a65726f2061646460008301527f72657373000000000000000000000000000000000000000000000000000000006020830152604082019050919050565b6000612253602583612611565b91507f45524332303a2064656372656173656420616c6c6f77616e63652062656c6f7760008301527f207a65726f0000000000000000000000000000000000000000000000000000006020830152604082019050919050565b6122b581612744565b82525050565b6122c48161274e565b82525050565b60006020820190506122df6000830184611d4d565b92915050565b60006060820190506122fa6000830186611d4d565b61230760208301856122ac565b61231460408301846122ac565b949350505050565b60006020820190506123316000830184611d5c565b92915050565b600060208201905081810360008301526123518184611d6b565b905092915050565b600060408201905081810360008301526123738185611d6b565b905081810360208301526123878184611d6b565b90509392505050565b600060208201905081810360008301526123a981611da4565b9050919050565b600060208201905081810360008301526123c981611e0a565b9050919050565b600060208201905081810360008301526123e981611e70565b9050919050565b6000604082019050818103600083015261240981611ed6565b9050818103602083015261241c81611f7c565b9050919050565b6000602082019050818103600083015261243c81611f16565b9050919050565b6000602082019050818103600083015261245c81611fe2565b9050919050565b6000602082019050818103600083015261247c81612048565b9050919050565b6000602082019050818103600083015261249c816120ae565b9050919050565b600060208201905081810360008301526124bc81612114565b9050919050565b600060208201905081810360008301526124dc8161217a565b9050919050565b600060208201905081810360008301526124fc816121e0565b9050919050565b6000602082019050818103600083015261251c81612246565b9050919050565b600060208201905061253860008301846122ac565b92915050565b600060808201905061255360008301876122ac565b61256060208301866122ac565b61256d60408301856122ac565b818103606083015261257f8184611d6b565b905095945050505050565b600060208201905061259f60008301846122bb565b92915050565b6000604051905081810181811067ffffffffffffffff821117156125cc576125cb61282d565b5b8060405250919050565b600067ffffffffffffffff8211156125f1576125f061282d565b5b601f19601f8301169050602081019050919050565b600081519050919050565b600082825260208201905092915050565b600061262d82612744565b915061263883612744565b9250827fffffffffffffffffffffffffffffffffffffffffffffffffffffffffffffffff0382111561266d5761266c6127cf565b5b828201905092915050565b600061268382612744565b915061268e83612744565b9250817fffffffffffffffffffffffffffffffffffffffffffffffffffffffffffffffff04831182151516156126c7576126c66127cf565b5b828202905092915050565b60006126dd82612744565b91506126e883612744565b9250828210156126fb576126fa6127cf565b5b828203905092915050565b600061271182612724565b9050919050565b60008115159050919050565b600073ffffffffffffffffffffffffffffffffffffffff82169050919050565b6000819050919050565b600060ff82169050919050565b82818337600083830152505050565b60005b8381101561278857808201518184015260208101905061276d565b83811115612797576000848401525b50505050565b600060028204905060018216806127b557607f821691505b602082108114156127c9576127c86127fe565b5b50919050565b7f4e487b7100000000000000000000000000000000000000000000000000000000600052601160045260246000fd5b7f4e487b7100000000000000000000000000000000000000000000000000000000600052602260045260246000fd5b7f4e487b7100000000000000000000000000000000000000000000000000000000600052604160045260246000fd5b6000601f19601f8301169050919050565b61287681612706565b811461288157600080fd5b50565b61288d81612744565b811461289857600080fd5b5056fe43616e206e6f74207472616e736665722066756e647320746f2074686973206163636f756e744e6f2073756666696369656e742066756e647320746f20707265666f726d20746865207472616e7366657246756e64732068617665206265656e207472616e736665726564207375636365737366756c6c795375636365737366756c20696e746572616374696f6e207769746820636f6e7472616374a264697066735822122083d1cfdcf7d27d6c367a7b3f5f9e85fee55523191fd8ac17a72e13162771fa1064736f6c63430008000033",
  "immutableReferences": {},
  "source": "// SPDX-License-Identifier: MIT\n\npragma solidity ^0.8.0;\n\nimport \"@openzeppelin/contracts/token/ERC20/IERC20.sol\";\nimport \"@openzeppelin/contracts/token/ERC20/extensions/ERC20Burnable.sol\";\n\n\n// LoanContract interface to perform loan operations\ninterface ILoanContract {\n    function getInterestRate () external view returns(uint256);\n    function borrow (address borrower, uint256 amount, uint256 duration) external returns (uint256 loanId, uint256 repayAmount, uint256 dueDate, string memory);\n}\n\ncontract InflaToken is ERC20Burnable {\n    // Smart contract for InflaToken. Acts as a Central Bank \n    // and implements small amount of inflation (between 2%-3% a year).\n\n    // Amount of zeros to represent real coin value\n    uint256 internal constant TOKEN_MULTIPLIER = 1;\n    // Initial supply of the coin\n    uint256 public INITIAL_SUPPLY = 10000;\n    // Block reward for the miner of the block for every transaction in cluded in the block\n    uint256 public BLOCK_REWARD = 1;\n\n    // centralBank address - the creator of the contract\n    address payable internal centralBank;\n\n    // Declaration of LoanContract interface\n    ILoanContract internal loanContract;\n\n    constructor (uint256 _initialSupply, uint256 _reward)\n    ERC20(\"InflaToken\", \"INF\") {\n        // Set centralBank as the creator of the contract.\n        centralBank = payable(msg.sender);\n        // Set initial values if given. 0 value will set the default values.\n        INITIAL_SUPPLY = _initialSupply > 0 ? _initialSupply : INITIAL_SUPPLY;\n        BLOCK_REWARD = _reward > 0 ? _reward : BLOCK_REWARD;\n        // Minting all initial supply to the centralBank.\n        _mint(centralBank, INITIAL_SUPPLY * TOKEN_MULTIPLIER);\n    }\n\n    function setBlockReward (uint256 reward) public onlyCentralBank {\n        // Change the block reward for a given value. Can change only by the centralBank\n        BLOCK_REWARD = reward * TOKEN_MULTIPLIER;\n    }\n\n    function setLoanContractAddress (address _loanContractAddress) public onlyCentralBank {\n        // Set the loanContract Address in the loanContract interface\n        loanContract = ILoanContract(_loanContractAddress);\n    }\n\n    function getMinerAddr () public view onlyCentralBank returns (address) {\n        // Returns the miner address\n        return block.coinbase;\n    }\n\n    function getInterestRate () public view returns (uint256) {\n        // Returning interest rate value\n        return loanContract.getInterestRate();\n    }\n\n    function _minerReward() internal {\n        // Transfer reward to miner from the central bank account\n        transferFrom(centralBank, block.coinbase, BLOCK_REWARD);\n    }\n\n    function _beforeTokenTransfer(address from, address to, uint256 value) internal virtual override(ERC20) {\n        // A \"hook\" function that is being invoked before transactions to reward the miner.\n        if(from != address(0) && block.coinbase != address(0) && to != block.coinbase) {\n            _minerReward();\n        }\n        super._beforeTokenTransfer(from, to, value);\n    }\n\n    function transfer(address to, uint256 value) public virtual override(ERC20) returns(bool) {\n        // Transfer from the caller for this function\n        if (to != address(0)) return super.transfer(to, value * TOKEN_MULTIPLIER);\n        return false;\n    }\n\n    function transferFrom(address sender, address recipient, uint256 amount) public virtual override(ERC20) returns (bool) {\n        // Transfer from a defiend sender to a defined recipient\n        // This function is being called on behalf of a third party and require that the \n        // token holder will give the necessary approving (approving need to be implemented according\n        // to ERC20 standard).\n        if (sender != address(0) && recipient != address(0)) return super.transferFrom(sender, recipient, amount);\n        return false;\n    }\n\n    function transferTo(string memory actionType, address sender, address recipient, uint256 amount) public returns (string memory) {\n        // Allows direct transfer of tokens from the specified sender to the recipient\n        // This function is designed for development purposes to bypass the need for \n        // third-party approval, enabling immediate transfers.\n        string memory message;\n        uint256 senderBalance = balanceOf(sender);\n        if (recipient == address(0)) {\n            message = \"No such address as given address\";\n            emit TransferResult(actionType, message);\n            return message;\n        }\n        if (senderBalance < amount) {\n            message = \"No sufficient funds to preform the transfer\";\n            emit TransferResult(actionType, message);\n            return message;\n        }\n        _transfer(sender, recipient, amount);\n        message = \"Funds have been transfered successfully\";\n        emit TransferResult(actionType, message);\n        return message;\n    }\n\n    function faucet(address account, uint256 amount) public returns (string memory) {\n        // Faucet specified amount of tokens to the given account address\n        if (account == centralBank) {\n            emit TransferResult(\"faucet\", \"Can not transfer funds to this account\");\n            return \"Can not transfer funds to this account\";\n        }\n        else return transferTo(\"faucet\", centralBank, account, amount);\n    }\n\n    function borrow (address borrower, uint256 amount, uint256 duration) public returns (uint256 loanId, uint256 repayAmount, uint256 dueDate, string memory) {\n        // Borrow from Central Bank with current interest rate.\n        // Uses LoanContract implementation.\n        (uint256 resLoanId, uint256 resRepayAmount, uint256 resDueDate, string memory resMessage) = loanContract.borrow(borrower, amount, duration);\n        emit BorrowResult(resLoanId, resRepayAmount, resDueDate, resMessage);\n        return (resLoanId, resRepayAmount, resDueDate, resMessage);\n    }\n\n    function getSomeText() public pure returns (string memory) {\n        // Function for testing interaction with the deployed contract\n        return \"Successful interaction with contract\";\n    }\n\n    function destroy() public onlyCentralBank() {\n        // Allow the option to destroy the token supply when it goes on to the blockchain.\n        selfdestruct(centralBank);\n    }\n\n// -----------------------------------\n// MODIFIERS\n// -----------------------------------\n\n    modifier onlyCentralBank {\n        require(msg.sender == centralBank, \"Only the centralBank can call this function.\");\n        _;\n    }\n\n// -----------------------------------\n// EVENTS\n// -----------------------------------\n\n    event TransferResult(string actionType, string message);\n    event BorrowResult(uint256 loanId, uint256 repayAmount, uint256 dueDate, string message);\n    //event DebugInfo(bool result);\n}",
  "sourcePath": "/home/shalevgur/eth-projects/InflaCoin/InflaCoin/contracts/InflaToken.sol",
  "compiler": {
    "name": "solc",
    "version": "0.8.0+commit.c7dfd78e.Emscripten.clang"
  },
  "schemaVersion": "3.4.16",
  "updatedAt": "2024-10-24T22:41:24.520Z",
  "networkType": "ethereum",
  "devdoc": {
    "kind": "dev",
    "methods": {
      "allowance(address,address)": {
        "details": "See {IERC20-allowance}."
      },
      "approve(address,uint256)": {
        "details": "See {IERC20-approve}. Requirements: - `spender` cannot be the zero address."
      },
      "balanceOf(address)": {
        "details": "See {IERC20-balanceOf}."
      },
      "burn(uint256)": {
        "details": "Destroys `amount` tokens from the caller. See {ERC20-_burn}."
      },
      "burnFrom(address,uint256)": {
        "details": "Destroys `amount` tokens from `account`, deducting from the caller's allowance. See {ERC20-_burn} and {ERC20-allowance}. Requirements: - the caller must have allowance for ``accounts``'s tokens of at least `amount`."
      },
      "decimals()": {
        "details": "Returns the number of decimals used to get its user representation. For example, if `decimals` equals `2`, a balance of `505` tokens should be displayed to a user as `5.05` (`505 / 10 ** 2`). Tokens usually opt for a value of 18, imitating the relationship between Ether and Wei. This is the value {ERC20} uses, unless this function is overridden; NOTE: This information is only used for _display_ purposes: it in no way affects any of the arithmetic of the contract, including {IERC20-balanceOf} and {IERC20-transfer}."
      },
      "decreaseAllowance(address,uint256)": {
        "details": "Atomically decreases the allowance granted to `spender` by the caller. This is an alternative to {approve} that can be used as a mitigation for problems described in {IERC20-approve}. Emits an {Approval} event indicating the updated allowance. Requirements: - `spender` cannot be the zero address. - `spender` must have allowance for the caller of at least `subtractedValue`."
      },
      "increaseAllowance(address,uint256)": {
        "details": "Atomically increases the allowance granted to `spender` by the caller. This is an alternative to {approve} that can be used as a mitigation for problems described in {IERC20-approve}. Emits an {Approval} event indicating the updated allowance. Requirements: - `spender` cannot be the zero address."
      },
      "name()": {
        "details": "Returns the name of the token."
      },
      "symbol()": {
        "details": "Returns the symbol of the token, usually a shorter version of the name."
      },
      "totalSupply()": {
        "details": "See {IERC20-totalSupply}."
      },
      "transferFrom(address,address,uint256)": {
        "details": "See {IERC20-transferFrom}. Emits an {Approval} event indicating the updated allowance. This is not required by the EIP. See the note at the beginning of {ERC20}. Requirements: - `sender` and `recipient` cannot be the zero address. - `sender` must have a balance of at least `amount`. - the caller must have allowance for ``sender``'s tokens of at least `amount`."
      }
    },
    "version": 1
  },
  "userdoc": {
    "kind": "user",
    "methods": {},
    "version": 1
  }
}