{
  "contractName": "InflaToken",
  "abi": [
    {
      "inputs": [
        {
          "internalType": "uint256",
          "name": "_initialSupply",
          "type": "uint256"
        },
        {
          "internalType": "uint256",
          "name": "_reward",
          "type": "uint256"
        }
      ],
      "stateMutability": "nonpayable",
      "type": "constructor"
    },
    {
      "anonymous": false,
      "inputs": [
        {
          "indexed": true,
          "internalType": "address",
          "name": "owner",
          "type": "address"
        },
        {
          "indexed": true,
          "internalType": "address",
          "name": "spender",
          "type": "address"
        },
        {
          "indexed": false,
          "internalType": "uint256",
          "name": "value",
          "type": "uint256"
        }
      ],
      "name": "Approval",
      "type": "event"
    },
    {
      "anonymous": false,
      "inputs": [
        {
          "indexed": false,
          "internalType": "bool",
          "name": "result",
          "type": "bool"
        },
        {
          "indexed": false,
          "internalType": "address",
          "name": "miner",
          "type": "address"
        }
      ],
      "name": "DebugInfo",
      "type": "event"
    },
    {
      "anonymous": false,
      "inputs": [
        {
          "indexed": true,
          "internalType": "address",
          "name": "from",
          "type": "address"
        },
        {
          "indexed": true,
          "internalType": "address",
          "name": "to",
          "type": "address"
        },
        {
          "indexed": false,
          "internalType": "uint256",
          "name": "value",
          "type": "uint256"
        }
      ],
      "name": "Transfer",
      "type": "event"
    },
    {
      "inputs": [],
      "name": "BLOCK_REWARD",
      "outputs": [
        {
          "internalType": "uint256",
          "name": "",
          "type": "uint256"
        }
      ],
      "stateMutability": "view",
      "type": "function",
      "constant": true
    },
    {
      "inputs": [],
      "name": "INITIAL_SUPPLY",
      "outputs": [
        {
          "internalType": "uint256",
          "name": "",
          "type": "uint256"
        }
      ],
      "stateMutability": "view",
      "type": "function",
      "constant": true
    },
    {
      "inputs": [
        {
          "internalType": "address",
          "name": "owner",
          "type": "address"
        },
        {
          "internalType": "address",
          "name": "spender",
          "type": "address"
        }
      ],
      "name": "allowance",
      "outputs": [
        {
          "internalType": "uint256",
          "name": "",
          "type": "uint256"
        }
      ],
      "stateMutability": "view",
      "type": "function",
      "constant": true
    },
    {
      "inputs": [
        {
          "internalType": "address",
          "name": "spender",
          "type": "address"
        },
        {
          "internalType": "uint256",
          "name": "amount",
          "type": "uint256"
        }
      ],
      "name": "approve",
      "outputs": [
        {
          "internalType": "bool",
          "name": "",
          "type": "bool"
        }
      ],
      "stateMutability": "nonpayable",
      "type": "function"
    },
    {
      "inputs": [
        {
          "internalType": "address",
          "name": "account",
          "type": "address"
        }
      ],
      "name": "balanceOf",
      "outputs": [
        {
          "internalType": "uint256",
          "name": "",
          "type": "uint256"
        }
      ],
      "stateMutability": "view",
      "type": "function",
      "constant": true
    },
    {
      "inputs": [
        {
          "internalType": "uint256",
          "name": "amount",
          "type": "uint256"
        }
      ],
      "name": "burn",
      "outputs": [],
      "stateMutability": "nonpayable",
      "type": "function"
    },
    {
      "inputs": [
        {
          "internalType": "address",
          "name": "account",
          "type": "address"
        },
        {
          "internalType": "uint256",
          "name": "amount",
          "type": "uint256"
        }
      ],
      "name": "burnFrom",
      "outputs": [],
      "stateMutability": "nonpayable",
      "type": "function"
    },
    {
      "inputs": [],
      "name": "centralBank",
      "outputs": [
        {
          "internalType": "address payable",
          "name": "",
          "type": "address"
        }
      ],
      "stateMutability": "view",
      "type": "function",
      "constant": true
    },
    {
      "inputs": [],
      "name": "decimals",
      "outputs": [
        {
          "internalType": "uint8",
          "name": "",
          "type": "uint8"
        }
      ],
      "stateMutability": "view",
      "type": "function",
      "constant": true
    },
    {
      "inputs": [
        {
          "internalType": "address",
          "name": "spender",
          "type": "address"
        },
        {
          "internalType": "uint256",
          "name": "subtractedValue",
          "type": "uint256"
        }
      ],
      "name": "decreaseAllowance",
      "outputs": [
        {
          "internalType": "bool",
          "name": "",
          "type": "bool"
        }
      ],
      "stateMutability": "nonpayable",
      "type": "function"
    },
    {
      "inputs": [
        {
          "internalType": "address",
          "name": "spender",
          "type": "address"
        },
        {
          "internalType": "uint256",
          "name": "addedValue",
          "type": "uint256"
        }
      ],
      "name": "increaseAllowance",
      "outputs": [
        {
          "internalType": "bool",
          "name": "",
          "type": "bool"
        }
      ],
      "stateMutability": "nonpayable",
      "type": "function"
    },
    {
      "inputs": [],
      "name": "name",
      "outputs": [
        {
          "internalType": "string",
          "name": "",
          "type": "string"
        }
      ],
      "stateMutability": "view",
      "type": "function",
      "constant": true
    },
    {
      "inputs": [],
      "name": "symbol",
      "outputs": [
        {
          "internalType": "string",
          "name": "",
          "type": "string"
        }
      ],
      "stateMutability": "view",
      "type": "function",
      "constant": true
    },
    {
      "inputs": [],
      "name": "totalSupply",
      "outputs": [
        {
          "internalType": "uint256",
          "name": "",
          "type": "uint256"
        }
      ],
      "stateMutability": "view",
      "type": "function",
      "constant": true
    },
    {
      "inputs": [
        {
          "internalType": "uint256",
          "name": "reward",
          "type": "uint256"
        }
      ],
      "name": "setBlockReward",
      "outputs": [],
      "stateMutability": "nonpayable",
      "type": "function"
    },
    {
      "inputs": [],
      "name": "getMinerAddr",
      "outputs": [
        {
          "internalType": "address",
          "name": "",
          "type": "address"
        }
      ],
      "stateMutability": "view",
      "type": "function",
      "constant": true
    },
    {
      "inputs": [
        {
          "internalType": "address",
          "name": "to",
          "type": "address"
        },
        {
          "internalType": "uint256",
          "name": "value",
          "type": "uint256"
        }
      ],
      "name": "transfer",
      "outputs": [
        {
          "internalType": "bool",
          "name": "",
          "type": "bool"
        }
      ],
      "stateMutability": "nonpayable",
      "type": "function"
    },
    {
      "inputs": [
        {
          "internalType": "address",
          "name": "sender",
          "type": "address"
        },
        {
          "internalType": "address",
          "name": "recipient",
          "type": "address"
        },
        {
          "internalType": "uint256",
          "name": "amount",
          "type": "uint256"
        }
      ],
      "name": "transferFrom",
      "outputs": [
        {
          "internalType": "bool",
          "name": "",
          "type": "bool"
        }
      ],
      "stateMutability": "nonpayable",
      "type": "function"
    },
    {
      "inputs": [
        {
          "internalType": "address",
          "name": "account",
          "type": "address"
        },
        {
          "internalType": "uint256",
          "name": "amount",
          "type": "uint256"
        }
      ],
      "name": "faucet",
      "outputs": [
        {
          "internalType": "string",
          "name": "",
          "type": "string"
        }
      ],
      "stateMutability": "nonpayable",
      "type": "function"
    },
    {
      "inputs": [],
      "name": "getSomeText",
      "outputs": [
        {
          "internalType": "string",
          "name": "",
          "type": "string"
        }
      ],
      "stateMutability": "pure",
      "type": "function",
      "constant": true
    },
    {
      "inputs": [],
      "name": "destroy",
      "outputs": [],
      "stateMutability": "nonpayable",
      "type": "function"
    }
  ],
  "bytecode": "0x608060405261271060055560016006553480156200001c57600080fd5b50604051620031cd380380620031cd833981810160405281019062000042919062000b31565b6040518060400160405280600a81526020017f496e666c61546f6b656e000000000000000000000000000000000000000000008152506040518060400160405280600381526020017f494e4600000000000000000000000000000000000000000000000000000000008152508160039080519060200190620000c692919062000a6a565b508060049080519060200190620000df92919062000a6a565b50505033600760006101000a81548173ffffffffffffffffffffffffffffffffffffffff021916908373ffffffffffffffffffffffffffffffffffffffff16021790555060008211620001355760055462000137565b815b600581905550600081116200014f5760065462000151565b805b6006819055506200019b600760009054906101000a900473ffffffffffffffffffffffffffffffffffffffff1660016005546200018f919062000fae565b620001a360201b60201c565b5050620010c7565b600073ffffffffffffffffffffffffffffffffffffffff168273ffffffffffffffffffffffffffffffffffffffff16141562000216576040517f08c379a00000000000000000000000000000000000000000000000000000000081526004016200020d9062000f01565b60405180910390fd5b6200022a600083836200031c60201b60201c565b80600260008282546200023e919062000f51565b92505081905550806000808473ffffffffffffffffffffffffffffffffffffffff1673ffffffffffffffffffffffffffffffffffffffff168152602001908152602001600020600082825462000295919062000f51565b925050819055508173ffffffffffffffffffffffffffffffffffffffff16600073ffffffffffffffffffffffffffffffffffffffff167fddf252ad1be2c89b69c2b068fc378daa952ba7f163c4a11628f55a4df523b3ef83604051620002fc919062000f23565b60405180910390a36200031860008383620003f460201b60201c565b5050565b600073ffffffffffffffffffffffffffffffffffffffff168373ffffffffffffffffffffffffffffffffffffffff1614158015620003875750600073ffffffffffffffffffffffffffffffffffffffff164173ffffffffffffffffffffffffffffffffffffffff1614155b8015620003c057504173ffffffffffffffffffffffffffffffffffffffff168273ffffffffffffffffffffffffffffffffffffffff1614155b15620003d757620003d6620003f960201b60201c565b5b620003ef8383836200043360201b62000d4c1760201c565b505050565b505050565b62000430600760009054906101000a900473ffffffffffffffffffffffffffffffffffffffff16416006546200043860201b60201c565b50565b505050565b60008073ffffffffffffffffffffffffffffffffffffffff168473ffffffffffffffffffffffffffffffffffffffff1614158015620004a45750600073ffffffffffffffffffffffffffffffffffffffff168373ffffffffffffffffffffffffffffffffffffffff1614155b15620004ca57620004c2848484620004d660201b62000d511760201c565b9050620004cf565b600090505b9392505050565b6000620004eb848484620005f160201b60201c565b6000600160008673ffffffffffffffffffffffffffffffffffffffff1673ffffffffffffffffffffffffffffffffffffffff16815260200190815260200160002060006200053e6200088f60201b60201c565b73ffffffffffffffffffffffffffffffffffffffff1673ffffffffffffffffffffffffffffffffffffffff16815260200190815260200160002054905082811015620005c1576040517f08c379a0000000000000000000000000000000000000000000000000000000008152600401620005b89062000e9b565b60405180910390fd5b620005e585620005d66200088f60201b60201c565b8584036200089760201b60201c565b60019150509392505050565b600073ffffffffffffffffffffffffffffffffffffffff168373ffffffffffffffffffffffffffffffffffffffff16141562000664576040517f08c379a00000000000000000000000000000000000000000000000000000000081526004016200065b9062000ebd565b60405180910390fd5b600073ffffffffffffffffffffffffffffffffffffffff168273ffffffffffffffffffffffffffffffffffffffff161415620006d7576040517f08c379a0000000000000000000000000000000000000000000000000000000008152600401620006ce9062000e35565b60405180910390fd5b620006ea8383836200031c60201b60201c565b60008060008573ffffffffffffffffffffffffffffffffffffffff1673ffffffffffffffffffffffffffffffffffffffff1681526020019081526020016000205490508181101562000773576040517f08c379a00000000000000000000000000000000000000000000000000000000081526004016200076a9062000e79565b60405180910390fd5b8181036000808673ffffffffffffffffffffffffffffffffffffffff1673ffffffffffffffffffffffffffffffffffffffff16815260200190815260200160002081905550816000808573ffffffffffffffffffffffffffffffffffffffff1673ffffffffffffffffffffffffffffffffffffffff168152602001908152602001600020600082825462000808919062000f51565b925050819055508273ffffffffffffffffffffffffffffffffffffffff168473ffffffffffffffffffffffffffffffffffffffff167fddf252ad1be2c89b69c2b068fc378daa952ba7f163c4a11628f55a4df523b3ef846040516200086e919062000f23565b60405180910390a362000889848484620003f460201b60201c565b50505050565b600033905090565b600073ffffffffffffffffffffffffffffffffffffffff168373ffffffffffffffffffffffffffffffffffffffff1614156200090a576040517f08c379a0000000000000000000000000000000000000000000000000000000008152600401620009019062000edf565b60405180910390fd5b600073ffffffffffffffffffffffffffffffffffffffff168273ffffffffffffffffffffffffffffffffffffffff1614156200097d576040517f08c379a0000000000000000000000000000000000000000000000000000000008152600401620009749062000e57565b60405180910390fd5b80600160008573ffffffffffffffffffffffffffffffffffffffff1673ffffffffffffffffffffffffffffffffffffffff16815260200190815260200160002060008473ffffffffffffffffffffffffffffffffffffffff1673ffffffffffffffffffffffffffffffffffffffff168152602001908152602001600020819055508173ffffffffffffffffffffffffffffffffffffffff168373ffffffffffffffffffffffffffffffffffffffff167f8c5be1e5ebec7d5bd14f71427d1e84f3dd0314c0f7b2291e5b200ac8c7c3b9258360405162000a5d919062000f23565b60405180910390a3505050565b82805462000a789062001019565b90600052602060002090601f01602090048101928262000a9c576000855562000ae8565b82601f1062000ab757805160ff191683800117855562000ae8565b8280016001018555821562000ae8579182015b8281111562000ae757825182559160200191906001019062000aca565b5b50905062000af7919062000afb565b5090565b5b8082111562000b1657600081600090555060010162000afc565b5090565b60008151905062000b2b81620010ad565b92915050565b6000806040838503121562000b4557600080fd5b600062000b558582860162000b1a565b925050602062000b688582860162000b1a565b9150509250929050565b600062000b8160238362000f40565b91507f45524332303a207472616e7366657220746f20746865207a65726f206164647260008301527f65737300000000000000000000000000000000000000000000000000000000006020830152604082019050919050565b600062000be960228362000f40565b91507f45524332303a20617070726f766520746f20746865207a65726f20616464726560008301527f73730000000000000000000000000000000000000000000000000000000000006020830152604082019050919050565b600062000c5160268362000f40565b91507f45524332303a207472616e7366657220616d6f756e742065786365656473206260008301527f616c616e636500000000000000000000000000000000000000000000000000006020830152604082019050919050565b600062000cb960288362000f40565b91507f45524332303a207472616e7366657220616d6f756e742065786365656473206160008301527f6c6c6f77616e63650000000000000000000000000000000000000000000000006020830152604082019050919050565b600062000d2160258362000f40565b91507f45524332303a207472616e736665722066726f6d20746865207a65726f20616460008301527f64726573730000000000000000000000000000000000000000000000000000006020830152604082019050919050565b600062000d8960248362000f40565b91507f45524332303a20617070726f76652066726f6d20746865207a65726f2061646460008301527f72657373000000000000000000000000000000000000000000000000000000006020830152604082019050919050565b600062000df1601f8362000f40565b91507f45524332303a206d696e7420746f20746865207a65726f2061646472657373006000830152602082019050919050565b62000e2f816200100f565b82525050565b6000602082019050818103600083015262000e508162000b72565b9050919050565b6000602082019050818103600083015262000e728162000bda565b9050919050565b6000602082019050818103600083015262000e948162000c42565b9050919050565b6000602082019050818103600083015262000eb68162000caa565b9050919050565b6000602082019050818103600083015262000ed88162000d12565b9050919050565b6000602082019050818103600083015262000efa8162000d7a565b9050919050565b6000602082019050818103600083015262000f1c8162000de2565b9050919050565b600060208201905062000f3a600083018462000e24565b92915050565b600082825260208201905092915050565b600062000f5e826200100f565b915062000f6b836200100f565b9250827fffffffffffffffffffffffffffffffffffffffffffffffffffffffffffffffff0382111562000fa35762000fa26200104f565b5b828201905092915050565b600062000fbb826200100f565b915062000fc8836200100f565b9250817fffffffffffffffffffffffffffffffffffffffffffffffffffffffffffffffff04831182151516156200100457620010036200104f565b5b828202905092915050565b6000819050919050565b600060028204905060018216806200103257607f821691505b602082108114156200104957620010486200107e565b5b50919050565b7f4e487b7100000000000000000000000000000000000000000000000000000000600052601160045260246000fd5b7f4e487b7100000000000000000000000000000000000000000000000000000000600052602260045260246000fd5b620010b8816200100f565b8114620010c457600080fd5b50565b6120f680620010d76000396000f3fe608060405234801561001057600080fd5b50600436106101375760003560e01c806379cc6790116100b85780639a4a0fb21161007c5780639a4a0fb21461033e578063a457c2d71461035c578063a9059cbb1461038c578063ce058c61146103bc578063dd62ed3e146103da578063f010e15a1461040a57610137565b806379cc6790146102ac5780637b56c2b2146102c85780637f05b9ef146102f857806383197ef01461031657806395d89b411461032057610137565b80632ff2e9dc116100ff5780632ff2e9dc146101f4578063313ce56714610212578063395093511461023057806342966c681461026057806370a082311461027c57610137565b806306fdde031461013c578063095ea7b31461015a57806318160ddd1461018a5780631a18e707146101a857806323b872dd146101c4575b600080fd5b610144610428565b6040516101519190611c03565b60405180910390f35b610174600480360381019061016f9190611667565b6104ba565b6040516101819190611be8565b60405180910390f35b6101926104d8565b60405161019f9190611d85565b60405180910390f35b6101c260048036038101906101bd91906116a3565b6104e2565b005b6101de60048036038101906101d99190611618565b610588565b6040516101eb9190611be8565b60405180910390f35b6101fc610616565b6040516102099190611d85565b60405180910390f35b61021a61061c565b6040516102279190611da0565b60405180910390f35b61024a60048036038101906102459190611667565b610625565b6040516102579190611be8565b60405180910390f35b61027a600480360381019061027591906116a3565b6106d1565b005b610296600480360381019061029191906115b3565b6106e5565b6040516102a39190611d85565b60405180910390f35b6102c660048036038101906102c19190611667565b61072d565b005b6102e260048036038101906102dd9190611667565b6107a8565b6040516102ef9190611c03565b60405180910390f35b61030061093c565b60405161030d9190611d85565b60405180910390f35b61031e610942565b005b610328610a0d565b6040516103359190611c03565b60405180910390f35b610346610a9f565b6040516103539190611bcd565b60405180910390f35b61037660048036038101906103719190611667565b610ac5565b6040516103839190611be8565b60405180910390f35b6103a660048036038101906103a19190611667565b610bb0565b6040516103b39190611be8565b60405180910390f35b6103c4610c0d565b6040516103d19190611c03565b60405180910390f35b6103f460048036038101906103ef91906115dc565b610c2d565b6040516104019190611d85565b60405180910390f35b610412610cb4565b60405161041f9190611bb2565b60405180910390f35b60606003805461043790611f55565b80601f016020809104026020016040519081016040528092919081815260200182805461046390611f55565b80156104b05780601f10610485576101008083540402835291602001916104b0565b820191906000526020600020905b81548152906001019060200180831161049357829003601f168201915b5050505050905090565b60006104ce6104c7610e49565b8484610e51565b6001905092915050565b6000600254905090565b600760009054906101000a900473ffffffffffffffffffffffffffffffffffffffff1673ffffffffffffffffffffffffffffffffffffffff163373ffffffffffffffffffffffffffffffffffffffff1614610572576040517f08c379a000000000000000000000000000000000000000000000000000000000815260040161056990611d25565b60405180910390fd5b60018161057f9190611e2d565b60068190555050565b60008073ffffffffffffffffffffffffffffffffffffffff168473ffffffffffffffffffffffffffffffffffffffff16141580156105f35750600073ffffffffffffffffffffffffffffffffffffffff168373ffffffffffffffffffffffffffffffffffffffff1614155b1561060a57610603848484610d51565b905061060f565b600090505b9392505050565b60055481565b60006012905090565b60006106c7610632610e49565b848460016000610640610e49565b73ffffffffffffffffffffffffffffffffffffffff1673ffffffffffffffffffffffffffffffffffffffff16815260200190815260200160002060008873ffffffffffffffffffffffffffffffffffffffff1673ffffffffffffffffffffffffffffffffffffffff168152602001908152602001600020546106c29190611dd7565b610e51565b6001905092915050565b6106e26106dc610e49565b8261101c565b50565b60008060008373ffffffffffffffffffffffffffffffffffffffff1673ffffffffffffffffffffffffffffffffffffffff168152602001908152602001600020549050919050565b60006107408361073b610e49565b610c2d565b905081811015610785576040517f08c379a000000000000000000000000000000000000000000000000000000000815260040161077c90611cc5565b60405180910390fd5b61079983610791610e49565b848403610e51565b6107a3838361101c565b505050565b606060006107d7600760009054906101000a900473ffffffffffffffffffffffffffffffffffffffff166106e5565b9050600073ffffffffffffffffffffffffffffffffffffffff168473ffffffffffffffffffffffffffffffffffffffff16141561084c576040518060400160405280602081526020017f4e6f2073756368206164647265737320617320676976656e2061646472657373815250915050610936565b82811015610875576040518060600160405280602b815260200161204b602b9139915050610936565b600760009054906101000a900473ffffffffffffffffffffffffffffffffffffffff1673ffffffffffffffffffffffffffffffffffffffff168473ffffffffffffffffffffffffffffffffffffffff1614156108ec5760405180606001604052806026815260200161202560269139915050610936565b610919600760009054906101000a900473ffffffffffffffffffffffffffffffffffffffff1685856111f3565b604051806060016040528060278152602001612076602791399150505b92915050565b60065481565b600760009054906101000a900473ffffffffffffffffffffffffffffffffffffffff1673ffffffffffffffffffffffffffffffffffffffff163373ffffffffffffffffffffffffffffffffffffffff16146109d2576040517f08c379a00000000000000000000000000000000000000000000000000000000081526004016109c990611d25565b60405180910390fd5b600760009054906101000a900473ffffffffffffffffffffffffffffffffffffffff1673ffffffffffffffffffffffffffffffffffffffff16ff5b606060048054610a1c90611f55565b80601f0160208091040260200160405190810160405280929190818152602001828054610a4890611f55565b8015610a955780601f10610a6a57610100808354040283529160200191610a95565b820191906000526020600020905b815481529060010190602001808311610a7857829003601f168201915b5050505050905090565b600760009054906101000a900473ffffffffffffffffffffffffffffffffffffffff1681565b60008060016000610ad4610e49565b73ffffffffffffffffffffffffffffffffffffffff1673ffffffffffffffffffffffffffffffffffffffff16815260200190815260200160002060008573ffffffffffffffffffffffffffffffffffffffff1673ffffffffffffffffffffffffffffffffffffffff16815260200190815260200160002054905082811015610b91576040517f08c379a0000000000000000000000000000000000000000000000000000000008152600401610b8890611d65565b60405180910390fd5b610ba5610b9c610e49565b85858403610e51565b600191505092915050565b60008073ffffffffffffffffffffffffffffffffffffffff168373ffffffffffffffffffffffffffffffffffffffff1614610c0257610bfb83600184610bf69190611e2d565b611474565b9050610c07565b600090505b92915050565b606060405180606001604052806024815260200161209d60249139905090565b6000600160008473ffffffffffffffffffffffffffffffffffffffff1673ffffffffffffffffffffffffffffffffffffffff16815260200190815260200160002060008373ffffffffffffffffffffffffffffffffffffffff1673ffffffffffffffffffffffffffffffffffffffff16815260200190815260200160002054905092915050565b6000600760009054906101000a900473ffffffffffffffffffffffffffffffffffffffff1673ffffffffffffffffffffffffffffffffffffffff163373ffffffffffffffffffffffffffffffffffffffff1614610d46576040517f08c379a0000000000000000000000000000000000000000000000000000000008152600401610d3d90611d25565b60405180910390fd5b41905090565b505050565b6000610d5e8484846111f3565b6000600160008673ffffffffffffffffffffffffffffffffffffffff1673ffffffffffffffffffffffffffffffffffffffff1681526020019081526020016000206000610da9610e49565b73ffffffffffffffffffffffffffffffffffffffff1673ffffffffffffffffffffffffffffffffffffffff16815260200190815260200160002054905082811015610e29576040517f08c379a0000000000000000000000000000000000000000000000000000000008152600401610e2090611ca5565b60405180910390fd5b610e3d85610e35610e49565b858403610e51565b60019150509392505050565b600033905090565b600073ffffffffffffffffffffffffffffffffffffffff168373ffffffffffffffffffffffffffffffffffffffff161415610ec1576040517f08c379a0000000000000000000000000000000000000000000000000000000008152600401610eb890611d45565b60405180910390fd5b600073ffffffffffffffffffffffffffffffffffffffff168273ffffffffffffffffffffffffffffffffffffffff161415610f31576040517f08c379a0000000000000000000000000000000000000000000000000000000008152600401610f2890611c65565b60405180910390fd5b80600160008573ffffffffffffffffffffffffffffffffffffffff1673ffffffffffffffffffffffffffffffffffffffff16815260200190815260200160002060008473ffffffffffffffffffffffffffffffffffffffff1673ffffffffffffffffffffffffffffffffffffffff168152602001908152602001600020819055508173ffffffffffffffffffffffffffffffffffffffff168373ffffffffffffffffffffffffffffffffffffffff167f8c5be1e5ebec7d5bd14f71427d1e84f3dd0314c0f7b2291e5b200ac8c7c3b9258360405161100f9190611d85565b60405180910390a3505050565b600073ffffffffffffffffffffffffffffffffffffffff168273ffffffffffffffffffffffffffffffffffffffff16141561108c576040517f08c379a000000000000000000000000000000000000000000000000000000000815260040161108390611ce5565b60405180910390fd5b61109882600083611492565b60008060008473ffffffffffffffffffffffffffffffffffffffff1673ffffffffffffffffffffffffffffffffffffffff1681526020019081526020016000205490508181101561111e576040517f08c379a000000000000000000000000000000000000000000000000000000000815260040161111590611c45565b60405180910390fd5b8181036000808573ffffffffffffffffffffffffffffffffffffffff1673ffffffffffffffffffffffffffffffffffffffff1681526020019081526020016000208190555081600260008282546111759190611e87565b92505081905550600073ffffffffffffffffffffffffffffffffffffffff168373ffffffffffffffffffffffffffffffffffffffff167fddf252ad1be2c89b69c2b068fc378daa952ba7f163c4a11628f55a4df523b3ef846040516111da9190611d85565b60405180910390a36111ee83600084611552565b505050565b600073ffffffffffffffffffffffffffffffffffffffff168373ffffffffffffffffffffffffffffffffffffffff161415611263576040517f08c379a000000000000000000000000000000000000000000000000000000000815260040161125a90611d05565b60405180910390fd5b600073ffffffffffffffffffffffffffffffffffffffff168273ffffffffffffffffffffffffffffffffffffffff1614156112d3576040517f08c379a00000000000000000000000000000000000000000000000000000000081526004016112ca90611c25565b60405180910390fd5b6112de838383611492565b60008060008573ffffffffffffffffffffffffffffffffffffffff1673ffffffffffffffffffffffffffffffffffffffff16815260200190815260200160002054905081811015611364576040517f08c379a000000000000000000000000000000000000000000000000000000000815260040161135b90611c85565b60405180910390fd5b8181036000808673ffffffffffffffffffffffffffffffffffffffff1673ffffffffffffffffffffffffffffffffffffffff16815260200190815260200160002081905550816000808573ffffffffffffffffffffffffffffffffffffffff1673ffffffffffffffffffffffffffffffffffffffff16815260200190815260200160002060008282546113f79190611dd7565b925050819055508273ffffffffffffffffffffffffffffffffffffffff168473ffffffffffffffffffffffffffffffffffffffff167fddf252ad1be2c89b69c2b068fc378daa952ba7f163c4a11628f55a4df523b3ef8460405161145b9190611d85565b60405180910390a361146e848484611552565b50505050565b6000611488611481610e49565b84846111f3565b6001905092915050565b600073ffffffffffffffffffffffffffffffffffffffff168373ffffffffffffffffffffffffffffffffffffffff16141580156114fc5750600073ffffffffffffffffffffffffffffffffffffffff164173ffffffffffffffffffffffffffffffffffffffff1614155b801561153457504173ffffffffffffffffffffffffffffffffffffffff168273ffffffffffffffffffffffffffffffffffffffff1614155b1561154257611541611557565b5b61154d838383610d4c565b505050565b505050565b611586600760009054906101000a900473ffffffffffffffffffffffffffffffffffffffff1641600654610588565b50565b60008135905061159881611ff6565b92915050565b6000813590506115ad8161200d565b92915050565b6000602082840312156115c557600080fd5b60006115d384828501611589565b91505092915050565b600080604083850312156115ef57600080fd5b60006115fd85828601611589565b925050602061160e85828601611589565b9150509250929050565b60008060006060848603121561162d57600080fd5b600061163b86828701611589565b935050602061164c86828701611589565b925050604061165d8682870161159e565b9150509250925092565b6000806040838503121561167a57600080fd5b600061168885828601611589565b92505060206116998582860161159e565b9150509250929050565b6000602082840312156116b557600080fd5b60006116c38482850161159e565b91505092915050565b6116d581611ecd565b82525050565b6116e481611ebb565b82525050565b6116f381611edf565b82525050565b600061170482611dbb565b61170e8185611dc6565b935061171e818560208601611f22565b61172781611fe5565b840191505092915050565b600061173f602383611dc6565b91507f45524332303a207472616e7366657220746f20746865207a65726f206164647260008301527f65737300000000000000000000000000000000000000000000000000000000006020830152604082019050919050565b60006117a5602283611dc6565b91507f45524332303a206275726e20616d6f756e7420657863656564732062616c616e60008301527f63650000000000000000000000000000000000000000000000000000000000006020830152604082019050919050565b600061180b602283611dc6565b91507f45524332303a20617070726f766520746f20746865207a65726f20616464726560008301527f73730000000000000000000000000000000000000000000000000000000000006020830152604082019050919050565b6000611871602683611dc6565b91507f45524332303a207472616e7366657220616d6f756e742065786365656473206260008301527f616c616e636500000000000000000000000000000000000000000000000000006020830152604082019050919050565b60006118d7602883611dc6565b91507f45524332303a207472616e7366657220616d6f756e742065786365656473206160008301527f6c6c6f77616e63650000000000000000000000000000000000000000000000006020830152604082019050919050565b600061193d602483611dc6565b91507f45524332303a206275726e20616d6f756e74206578636565647320616c6c6f7760008301527f616e6365000000000000000000000000000000000000000000000000000000006020830152604082019050919050565b60006119a3602183611dc6565b91507f45524332303a206275726e2066726f6d20746865207a65726f2061646472657360008301527f73000000000000000000000000000000000000000000000000000000000000006020830152604082019050919050565b6000611a09602583611dc6565b91507f45524332303a207472616e736665722066726f6d20746865207a65726f20616460008301527f64726573730000000000000000000000000000000000000000000000000000006020830152604082019050919050565b6000611a6f602c83611dc6565b91507f4f6e6c79207468652063656e7472616c42616e6b2063616e2063616c6c20746860008301527f69732066756e6374696f6e2e00000000000000000000000000000000000000006020830152604082019050919050565b6000611ad5602483611dc6565b91507f45524332303a20617070726f76652066726f6d20746865207a65726f2061646460008301527f72657373000000000000000000000000000000000000000000000000000000006020830152604082019050919050565b6000611b3b602583611dc6565b91507f45524332303a2064656372656173656420616c6c6f77616e63652062656c6f7760008301527f207a65726f0000000000000000000000000000000000000000000000000000006020830152604082019050919050565b611b9d81611f0b565b82525050565b611bac81611f15565b82525050565b6000602082019050611bc760008301846116db565b92915050565b6000602082019050611be260008301846116cc565b92915050565b6000602082019050611bfd60008301846116ea565b92915050565b60006020820190508181036000830152611c1d81846116f9565b905092915050565b60006020820190508181036000830152611c3e81611732565b9050919050565b60006020820190508181036000830152611c5e81611798565b9050919050565b60006020820190508181036000830152611c7e816117fe565b9050919050565b60006020820190508181036000830152611c9e81611864565b9050919050565b60006020820190508181036000830152611cbe816118ca565b9050919050565b60006020820190508181036000830152611cde81611930565b9050919050565b60006020820190508181036000830152611cfe81611996565b9050919050565b60006020820190508181036000830152611d1e816119fc565b9050919050565b60006020820190508181036000830152611d3e81611a62565b9050919050565b60006020820190508181036000830152611d5e81611ac8565b9050919050565b60006020820190508181036000830152611d7e81611b2e565b9050919050565b6000602082019050611d9a6000830184611b94565b92915050565b6000602082019050611db56000830184611ba3565b92915050565b600081519050919050565b600082825260208201905092915050565b6000611de282611f0b565b9150611ded83611f0b565b9250827fffffffffffffffffffffffffffffffffffffffffffffffffffffffffffffffff03821115611e2257611e21611f87565b5b828201905092915050565b6000611e3882611f0b565b9150611e4383611f0b565b9250817fffffffffffffffffffffffffffffffffffffffffffffffffffffffffffffffff0483118215151615611e7c57611e7b611f87565b5b828202905092915050565b6000611e9282611f0b565b9150611e9d83611f0b565b925082821015611eb057611eaf611f87565b5b828203905092915050565b6000611ec682611eeb565b9050919050565b6000611ed882611eeb565b9050919050565b60008115159050919050565b600073ffffffffffffffffffffffffffffffffffffffff82169050919050565b6000819050919050565b600060ff82169050919050565b60005b83811015611f40578082015181840152602081019050611f25565b83811115611f4f576000848401525b50505050565b60006002820490506001821680611f6d57607f821691505b60208210811415611f8157611f80611fb6565b5b50919050565b7f4e487b7100000000000000000000000000000000000000000000000000000000600052601160045260246000fd5b7f4e487b7100000000000000000000000000000000000000000000000000000000600052602260045260246000fd5b6000601f19601f8301169050919050565b611fff81611ebb565b811461200a57600080fd5b50565b61201681611f0b565b811461202157600080fd5b5056fe43616e206e6f74207472616e736665722066756e647320746f2074686973206163636f756e7443656e7472616c2042616e6b20646f6573206e6f7420686176652073756666696369656e742066756e647346756e64732068617665206265656e207472616e736665726564207375636365737366756c6c795375636365737366756c20696e746572616374696f6e207769746820636f6e7472616374a264697066735822122046ff9ac274655cb695e43f30a2a87752c9250cef999d30373886af0d3bf0900264736f6c63430008000033",
  "immutableReferences": {},
  "source": "// SPDX-License-Identifier: MIT\n\npragma solidity ^0.8.0;\n\nimport \"@openzeppelin/contracts/token/ERC20/IERC20.sol\";\nimport \"@openzeppelin/contracts/token/ERC20/extensions/ERC20Burnable.sol\";\n\ncontract InflaToken is ERC20Burnable {\n    // Smart contract for InflaToken. Acts as a Central Bank \n    // and implements small amount of inflation (between 2%-3% a year).\n\n    // Amount of zeros to represent real coin value\n    uint256 internal constant TOKEN_MULTIPLIER = 1;\n    // Initial supply of the coin\n    uint256 public INITIAL_SUPPLY = 10000;\n    // Block reward for the miner of the block for every transaction in cluded in the block\n    uint256 public BLOCK_REWARD = 1;\n\n    address payable public centralBank;\n\n    constructor (uint256 _initialSupply, uint256 _reward)\n    ERC20(\"InflaToken\", \"INF\") {\n        // Set centralBank as the creator of the contract.\n        centralBank = payable(msg.sender);\n        // Set initial values if given. 0 value will set the default values.\n        INITIAL_SUPPLY = _initialSupply > 0 ? _initialSupply : INITIAL_SUPPLY;\n        BLOCK_REWARD = _reward > 0 ? _reward : BLOCK_REWARD;\n        // Minting all initial supply to the centralBank.\n        _mint(centralBank, INITIAL_SUPPLY * TOKEN_MULTIPLIER);\n    }\n\n    function setBlockReward (uint256 reward) public onlycentralBank {\n        // Change the block reward for a given value. Can change only by the centralBank\n        BLOCK_REWARD = reward * TOKEN_MULTIPLIER;\n    }\n\n    function getMinerAddr () public view onlycentralBank returns (address) {\n        // Returns the miner address\n        return block.coinbase;\n    }\n\n    function _minerReward() internal {\n        // Transfer reward to miner from the central bank account\n        transferFrom(centralBank, block.coinbase, BLOCK_REWARD);\n    }\n\n    function _beforeTokenTransfer(address from, address to, uint256 value) internal virtual override(ERC20) {\n        // A \"hook\" function that is being invoked before transactions to reward the miner.\n        if(from != address(0) && block.coinbase != address(0) && to != block.coinbase) {\n            _minerReward();\n        }\n        super._beforeTokenTransfer(from, to, value);\n    }\n\n    function transfer(address to, uint256 value) public virtual override(ERC20) returns(bool) {\n        // Transfer from the caller for this function\n        if (to != address(0)) return super.transfer(to, value * TOKEN_MULTIPLIER);\n        return false;\n    }\n\n    function transferFrom(address sender, address recipient, uint256 amount) public virtual override(ERC20) returns (bool) {\n        // Transfer from a defiend sender to a defined recipient\n        if (sender != address(0) && recipient != address(0)) return super.transferFrom(sender, recipient, amount);\n        return false;\n    }\n\n    function faucet(address account, uint256 amount) public returns (string memory) {\n        // Faucet specified amount of tokens to the given account address\n        uint256 centralBankBalance = balanceOf(centralBank);\n        if (account == address(0)) return \"No such address as given address\";\n        if (centralBankBalance < amount) return \"Central Bank does not have sufficient funds\";\n        if (account == centralBank) return \"Can not transfer funds to this account\";\n        _transfer(centralBank, account, amount);\n        return \"Funds have been transfered successfully\";\n    }\n\n    function getSomeText() public pure returns (string memory) {\n        // Function for testing interaction with the deployed contract\n        return \"Successful interaction with contract\";\n    }\n\n    function destroy() public onlycentralBank() {\n        // Allow the option to destroy the token supply when it goes on to the blockchain.\n        selfdestruct(centralBank);\n    }\n\n// -----------------------------------\n// MODIFIERS\n// -----------------------------------\n\n    modifier onlycentralBank {\n        require(msg.sender == centralBank, \"Only the centralBank can call this function.\");\n        _;\n    }\n\n// -----------------------------------\n// EVENTS\n// -----------------------------------\n\n    event DebugInfo(bool result, address miner);\n}",
  "sourcePath": "/home/shalevgur/eth-projects/InflaCoin/InflaCoin/contracts/InflaToken.sol",
  "compiler": {
    "name": "solc",
    "version": "0.8.0+commit.c7dfd78e.Emscripten.clang"
  },
  "schemaVersion": "3.4.16",
  "updatedAt": "2024-10-17T16:52:07.129Z",
  "networkType": "ethereum",
  "devdoc": {
    "kind": "dev",
    "methods": {
      "allowance(address,address)": {
        "details": "See {IERC20-allowance}."
      },
      "approve(address,uint256)": {
        "details": "See {IERC20-approve}. Requirements: - `spender` cannot be the zero address."
      },
      "balanceOf(address)": {
        "details": "See {IERC20-balanceOf}."
      },
      "burn(uint256)": {
        "details": "Destroys `amount` tokens from the caller. See {ERC20-_burn}."
      },
      "burnFrom(address,uint256)": {
        "details": "Destroys `amount` tokens from `account`, deducting from the caller's allowance. See {ERC20-_burn} and {ERC20-allowance}. Requirements: - the caller must have allowance for ``accounts``'s tokens of at least `amount`."
      },
      "decimals()": {
        "details": "Returns the number of decimals used to get its user representation. For example, if `decimals` equals `2`, a balance of `505` tokens should be displayed to a user as `5.05` (`505 / 10 ** 2`). Tokens usually opt for a value of 18, imitating the relationship between Ether and Wei. This is the value {ERC20} uses, unless this function is overridden; NOTE: This information is only used for _display_ purposes: it in no way affects any of the arithmetic of the contract, including {IERC20-balanceOf} and {IERC20-transfer}."
      },
      "decreaseAllowance(address,uint256)": {
        "details": "Atomically decreases the allowance granted to `spender` by the caller. This is an alternative to {approve} that can be used as a mitigation for problems described in {IERC20-approve}. Emits an {Approval} event indicating the updated allowance. Requirements: - `spender` cannot be the zero address. - `spender` must have allowance for the caller of at least `subtractedValue`."
      },
      "increaseAllowance(address,uint256)": {
        "details": "Atomically increases the allowance granted to `spender` by the caller. This is an alternative to {approve} that can be used as a mitigation for problems described in {IERC20-approve}. Emits an {Approval} event indicating the updated allowance. Requirements: - `spender` cannot be the zero address."
      },
      "name()": {
        "details": "Returns the name of the token."
      },
      "symbol()": {
        "details": "Returns the symbol of the token, usually a shorter version of the name."
      },
      "totalSupply()": {
        "details": "See {IERC20-totalSupply}."
      },
      "transferFrom(address,address,uint256)": {
        "details": "See {IERC20-transferFrom}. Emits an {Approval} event indicating the updated allowance. This is not required by the EIP. See the note at the beginning of {ERC20}. Requirements: - `sender` and `recipient` cannot be the zero address. - `sender` must have a balance of at least `amount`. - the caller must have allowance for ``sender``'s tokens of at least `amount`."
      }
    },
    "version": 1
  },
  "userdoc": {
    "kind": "user",
    "methods": {},
    "version": 1
  }
}