{
  "contractName": "InflaToken",
  "abi": [
    {
      "inputs": [
        {
          "internalType": "uint256",
          "name": "_initialSupply",
          "type": "uint256"
        },
        {
          "internalType": "uint256",
          "name": "_reward",
          "type": "uint256"
        }
      ],
      "stateMutability": "nonpayable",
      "type": "constructor"
    },
    {
      "anonymous": false,
      "inputs": [
        {
          "indexed": true,
          "internalType": "address",
          "name": "owner",
          "type": "address"
        },
        {
          "indexed": true,
          "internalType": "address",
          "name": "spender",
          "type": "address"
        },
        {
          "indexed": false,
          "internalType": "uint256",
          "name": "value",
          "type": "uint256"
        }
      ],
      "name": "Approval",
      "type": "event"
    },
    {
      "anonymous": false,
      "inputs": [
        {
          "indexed": true,
          "internalType": "address",
          "name": "from",
          "type": "address"
        },
        {
          "indexed": true,
          "internalType": "address",
          "name": "to",
          "type": "address"
        },
        {
          "indexed": false,
          "internalType": "uint256",
          "name": "value",
          "type": "uint256"
        }
      ],
      "name": "Transfer",
      "type": "event"
    },
    {
      "anonymous": false,
      "inputs": [
        {
          "indexed": false,
          "internalType": "string",
          "name": "actionType",
          "type": "string"
        },
        {
          "indexed": false,
          "internalType": "string",
          "name": "message",
          "type": "string"
        }
      ],
      "name": "TransferResult",
      "type": "event"
    },
    {
      "inputs": [],
      "name": "BLOCK_REWARD",
      "outputs": [
        {
          "internalType": "uint256",
          "name": "",
          "type": "uint256"
        }
      ],
      "stateMutability": "view",
      "type": "function",
      "constant": true
    },
    {
      "inputs": [],
      "name": "INITIAL_SUPPLY",
      "outputs": [
        {
          "internalType": "uint256",
          "name": "",
          "type": "uint256"
        }
      ],
      "stateMutability": "view",
      "type": "function",
      "constant": true
    },
    {
      "inputs": [
        {
          "internalType": "address",
          "name": "owner",
          "type": "address"
        },
        {
          "internalType": "address",
          "name": "spender",
          "type": "address"
        }
      ],
      "name": "allowance",
      "outputs": [
        {
          "internalType": "uint256",
          "name": "",
          "type": "uint256"
        }
      ],
      "stateMutability": "view",
      "type": "function",
      "constant": true
    },
    {
      "inputs": [
        {
          "internalType": "address",
          "name": "spender",
          "type": "address"
        },
        {
          "internalType": "uint256",
          "name": "amount",
          "type": "uint256"
        }
      ],
      "name": "approve",
      "outputs": [
        {
          "internalType": "bool",
          "name": "",
          "type": "bool"
        }
      ],
      "stateMutability": "nonpayable",
      "type": "function"
    },
    {
      "inputs": [
        {
          "internalType": "address",
          "name": "account",
          "type": "address"
        }
      ],
      "name": "balanceOf",
      "outputs": [
        {
          "internalType": "uint256",
          "name": "",
          "type": "uint256"
        }
      ],
      "stateMutability": "view",
      "type": "function",
      "constant": true
    },
    {
      "inputs": [
        {
          "internalType": "uint256",
          "name": "amount",
          "type": "uint256"
        }
      ],
      "name": "burn",
      "outputs": [],
      "stateMutability": "nonpayable",
      "type": "function"
    },
    {
      "inputs": [
        {
          "internalType": "address",
          "name": "account",
          "type": "address"
        },
        {
          "internalType": "uint256",
          "name": "amount",
          "type": "uint256"
        }
      ],
      "name": "burnFrom",
      "outputs": [],
      "stateMutability": "nonpayable",
      "type": "function"
    },
    {
      "inputs": [],
      "name": "centralBank",
      "outputs": [
        {
          "internalType": "address payable",
          "name": "",
          "type": "address"
        }
      ],
      "stateMutability": "view",
      "type": "function",
      "constant": true
    },
    {
      "inputs": [],
      "name": "decimals",
      "outputs": [
        {
          "internalType": "uint8",
          "name": "",
          "type": "uint8"
        }
      ],
      "stateMutability": "view",
      "type": "function",
      "constant": true
    },
    {
      "inputs": [
        {
          "internalType": "address",
          "name": "spender",
          "type": "address"
        },
        {
          "internalType": "uint256",
          "name": "subtractedValue",
          "type": "uint256"
        }
      ],
      "name": "decreaseAllowance",
      "outputs": [
        {
          "internalType": "bool",
          "name": "",
          "type": "bool"
        }
      ],
      "stateMutability": "nonpayable",
      "type": "function"
    },
    {
      "inputs": [
        {
          "internalType": "address",
          "name": "spender",
          "type": "address"
        },
        {
          "internalType": "uint256",
          "name": "addedValue",
          "type": "uint256"
        }
      ],
      "name": "increaseAllowance",
      "outputs": [
        {
          "internalType": "bool",
          "name": "",
          "type": "bool"
        }
      ],
      "stateMutability": "nonpayable",
      "type": "function"
    },
    {
      "inputs": [],
      "name": "name",
      "outputs": [
        {
          "internalType": "string",
          "name": "",
          "type": "string"
        }
      ],
      "stateMutability": "view",
      "type": "function",
      "constant": true
    },
    {
      "inputs": [],
      "name": "symbol",
      "outputs": [
        {
          "internalType": "string",
          "name": "",
          "type": "string"
        }
      ],
      "stateMutability": "view",
      "type": "function",
      "constant": true
    },
    {
      "inputs": [],
      "name": "totalSupply",
      "outputs": [
        {
          "internalType": "uint256",
          "name": "",
          "type": "uint256"
        }
      ],
      "stateMutability": "view",
      "type": "function",
      "constant": true
    },
    {
      "inputs": [
        {
          "internalType": "uint256",
          "name": "reward",
          "type": "uint256"
        }
      ],
      "name": "setBlockReward",
      "outputs": [],
      "stateMutability": "nonpayable",
      "type": "function"
    },
    {
      "inputs": [],
      "name": "getMinerAddr",
      "outputs": [
        {
          "internalType": "address",
          "name": "",
          "type": "address"
        }
      ],
      "stateMutability": "view",
      "type": "function",
      "constant": true
    },
    {
      "inputs": [
        {
          "internalType": "address",
          "name": "to",
          "type": "address"
        },
        {
          "internalType": "uint256",
          "name": "value",
          "type": "uint256"
        }
      ],
      "name": "transfer",
      "outputs": [
        {
          "internalType": "bool",
          "name": "",
          "type": "bool"
        }
      ],
      "stateMutability": "nonpayable",
      "type": "function"
    },
    {
      "inputs": [
        {
          "internalType": "address",
          "name": "sender",
          "type": "address"
        },
        {
          "internalType": "address",
          "name": "recipient",
          "type": "address"
        },
        {
          "internalType": "uint256",
          "name": "amount",
          "type": "uint256"
        }
      ],
      "name": "transferFrom",
      "outputs": [
        {
          "internalType": "bool",
          "name": "",
          "type": "bool"
        }
      ],
      "stateMutability": "nonpayable",
      "type": "function"
    },
    {
      "inputs": [
        {
          "internalType": "string",
          "name": "actionType",
          "type": "string"
        },
        {
          "internalType": "address",
          "name": "sender",
          "type": "address"
        },
        {
          "internalType": "address",
          "name": "recipient",
          "type": "address"
        },
        {
          "internalType": "uint256",
          "name": "amount",
          "type": "uint256"
        }
      ],
      "name": "transferTo",
      "outputs": [
        {
          "internalType": "string",
          "name": "",
          "type": "string"
        }
      ],
      "stateMutability": "nonpayable",
      "type": "function"
    },
    {
      "inputs": [
        {
          "internalType": "address",
          "name": "account",
          "type": "address"
        },
        {
          "internalType": "uint256",
          "name": "amount",
          "type": "uint256"
        }
      ],
      "name": "faucet",
      "outputs": [
        {
          "internalType": "string",
          "name": "",
          "type": "string"
        }
      ],
      "stateMutability": "nonpayable",
      "type": "function"
    },
    {
      "inputs": [],
      "name": "getSomeText",
      "outputs": [
        {
          "internalType": "string",
          "name": "",
          "type": "string"
        }
      ],
      "stateMutability": "pure",
      "type": "function",
      "constant": true
    },
    {
      "inputs": [],
      "name": "destroy",
      "outputs": [],
      "stateMutability": "nonpayable",
      "type": "function"
    }
  ],
  "bytecode": "0x608060405261271060055560016006553480156200001c57600080fd5b50604051620035b2380380620035b2833981810160405281019062000042919062000b31565b6040518060400160405280600a81526020017f496e666c61546f6b656e000000000000000000000000000000000000000000008152506040518060400160405280600381526020017f494e4600000000000000000000000000000000000000000000000000000000008152508160039080519060200190620000c692919062000a6a565b508060049080519060200190620000df92919062000a6a565b50505033600760006101000a81548173ffffffffffffffffffffffffffffffffffffffff021916908373ffffffffffffffffffffffffffffffffffffffff16021790555060008211620001355760055462000137565b815b600581905550600081116200014f5760065462000151565b805b6006819055506200019b600760009054906101000a900473ffffffffffffffffffffffffffffffffffffffff1660016005546200018f919062000fae565b620001a360201b60201c565b5050620010c7565b600073ffffffffffffffffffffffffffffffffffffffff168273ffffffffffffffffffffffffffffffffffffffff16141562000216576040517f08c379a00000000000000000000000000000000000000000000000000000000081526004016200020d9062000f01565b60405180910390fd5b6200022a600083836200031c60201b60201c565b80600260008282546200023e919062000f51565b92505081905550806000808473ffffffffffffffffffffffffffffffffffffffff1673ffffffffffffffffffffffffffffffffffffffff168152602001908152602001600020600082825462000295919062000f51565b925050819055508173ffffffffffffffffffffffffffffffffffffffff16600073ffffffffffffffffffffffffffffffffffffffff167fddf252ad1be2c89b69c2b068fc378daa952ba7f163c4a11628f55a4df523b3ef83604051620002fc919062000f23565b60405180910390a36200031860008383620003f460201b60201c565b5050565b600073ffffffffffffffffffffffffffffffffffffffff168373ffffffffffffffffffffffffffffffffffffffff1614158015620003875750600073ffffffffffffffffffffffffffffffffffffffff164173ffffffffffffffffffffffffffffffffffffffff1614155b8015620003c057504173ffffffffffffffffffffffffffffffffffffffff168273ffffffffffffffffffffffffffffffffffffffff1614155b15620003d757620003d6620003f960201b60201c565b5b620003ef8383836200043360201b62000e9f1760201c565b505050565b505050565b62000430600760009054906101000a900473ffffffffffffffffffffffffffffffffffffffff16416006546200043860201b60201c565b50565b505050565b60008073ffffffffffffffffffffffffffffffffffffffff168473ffffffffffffffffffffffffffffffffffffffff1614158015620004a45750600073ffffffffffffffffffffffffffffffffffffffff168373ffffffffffffffffffffffffffffffffffffffff1614155b15620004ca57620004c2848484620004d660201b62000ea41760201c565b9050620004cf565b600090505b9392505050565b6000620004eb848484620005f160201b60201c565b6000600160008673ffffffffffffffffffffffffffffffffffffffff1673ffffffffffffffffffffffffffffffffffffffff16815260200190815260200160002060006200053e6200088f60201b60201c565b73ffffffffffffffffffffffffffffffffffffffff1673ffffffffffffffffffffffffffffffffffffffff16815260200190815260200160002054905082811015620005c1576040517f08c379a0000000000000000000000000000000000000000000000000000000008152600401620005b89062000e9b565b60405180910390fd5b620005e585620005d66200088f60201b60201c565b8584036200089760201b60201c565b60019150509392505050565b600073ffffffffffffffffffffffffffffffffffffffff168373ffffffffffffffffffffffffffffffffffffffff16141562000664576040517f08c379a00000000000000000000000000000000000000000000000000000000081526004016200065b9062000ebd565b60405180910390fd5b600073ffffffffffffffffffffffffffffffffffffffff168273ffffffffffffffffffffffffffffffffffffffff161415620006d7576040517f08c379a0000000000000000000000000000000000000000000000000000000008152600401620006ce9062000e35565b60405180910390fd5b620006ea8383836200031c60201b60201c565b60008060008573ffffffffffffffffffffffffffffffffffffffff1673ffffffffffffffffffffffffffffffffffffffff1681526020019081526020016000205490508181101562000773576040517f08c379a00000000000000000000000000000000000000000000000000000000081526004016200076a9062000e79565b60405180910390fd5b8181036000808673ffffffffffffffffffffffffffffffffffffffff1673ffffffffffffffffffffffffffffffffffffffff16815260200190815260200160002081905550816000808573ffffffffffffffffffffffffffffffffffffffff1673ffffffffffffffffffffffffffffffffffffffff168152602001908152602001600020600082825462000808919062000f51565b925050819055508273ffffffffffffffffffffffffffffffffffffffff168473ffffffffffffffffffffffffffffffffffffffff167fddf252ad1be2c89b69c2b068fc378daa952ba7f163c4a11628f55a4df523b3ef846040516200086e919062000f23565b60405180910390a362000889848484620003f460201b60201c565b50505050565b600033905090565b600073ffffffffffffffffffffffffffffffffffffffff168373ffffffffffffffffffffffffffffffffffffffff1614156200090a576040517f08c379a0000000000000000000000000000000000000000000000000000000008152600401620009019062000edf565b60405180910390fd5b600073ffffffffffffffffffffffffffffffffffffffff168273ffffffffffffffffffffffffffffffffffffffff1614156200097d576040517f08c379a0000000000000000000000000000000000000000000000000000000008152600401620009749062000e57565b60405180910390fd5b80600160008573ffffffffffffffffffffffffffffffffffffffff1673ffffffffffffffffffffffffffffffffffffffff16815260200190815260200160002060008473ffffffffffffffffffffffffffffffffffffffff1673ffffffffffffffffffffffffffffffffffffffff168152602001908152602001600020819055508173ffffffffffffffffffffffffffffffffffffffff168373ffffffffffffffffffffffffffffffffffffffff167f8c5be1e5ebec7d5bd14f71427d1e84f3dd0314c0f7b2291e5b200ac8c7c3b9258360405162000a5d919062000f23565b60405180910390a3505050565b82805462000a789062001019565b90600052602060002090601f01602090048101928262000a9c576000855562000ae8565b82601f1062000ab757805160ff191683800117855562000ae8565b8280016001018555821562000ae8579182015b8281111562000ae757825182559160200191906001019062000aca565b5b50905062000af7919062000afb565b5090565b5b8082111562000b1657600081600090555060010162000afc565b5090565b60008151905062000b2b81620010ad565b92915050565b6000806040838503121562000b4557600080fd5b600062000b558582860162000b1a565b925050602062000b688582860162000b1a565b9150509250929050565b600062000b8160238362000f40565b91507f45524332303a207472616e7366657220746f20746865207a65726f206164647260008301527f65737300000000000000000000000000000000000000000000000000000000006020830152604082019050919050565b600062000be960228362000f40565b91507f45524332303a20617070726f766520746f20746865207a65726f20616464726560008301527f73730000000000000000000000000000000000000000000000000000000000006020830152604082019050919050565b600062000c5160268362000f40565b91507f45524332303a207472616e7366657220616d6f756e742065786365656473206260008301527f616c616e636500000000000000000000000000000000000000000000000000006020830152604082019050919050565b600062000cb960288362000f40565b91507f45524332303a207472616e7366657220616d6f756e742065786365656473206160008301527f6c6c6f77616e63650000000000000000000000000000000000000000000000006020830152604082019050919050565b600062000d2160258362000f40565b91507f45524332303a207472616e736665722066726f6d20746865207a65726f20616460008301527f64726573730000000000000000000000000000000000000000000000000000006020830152604082019050919050565b600062000d8960248362000f40565b91507f45524332303a20617070726f76652066726f6d20746865207a65726f2061646460008301527f72657373000000000000000000000000000000000000000000000000000000006020830152604082019050919050565b600062000df1601f8362000f40565b91507f45524332303a206d696e7420746f20746865207a65726f2061646472657373006000830152602082019050919050565b62000e2f816200100f565b82525050565b6000602082019050818103600083015262000e508162000b72565b9050919050565b6000602082019050818103600083015262000e728162000bda565b9050919050565b6000602082019050818103600083015262000e948162000c42565b9050919050565b6000602082019050818103600083015262000eb68162000caa565b9050919050565b6000602082019050818103600083015262000ed88162000d12565b9050919050565b6000602082019050818103600083015262000efa8162000d7a565b9050919050565b6000602082019050818103600083015262000f1c8162000de2565b9050919050565b600060208201905062000f3a600083018462000e24565b92915050565b600082825260208201905092915050565b600062000f5e826200100f565b915062000f6b836200100f565b9250827fffffffffffffffffffffffffffffffffffffffffffffffffffffffffffffffff0382111562000fa35762000fa26200104f565b5b828201905092915050565b600062000fbb826200100f565b915062000fc8836200100f565b9250817fffffffffffffffffffffffffffffffffffffffffffffffffffffffffffffffff04831182151516156200100457620010036200104f565b5b828202905092915050565b6000819050919050565b600060028204905060018216806200103257607f821691505b602082108114156200104957620010486200107e565b5b50919050565b7f4e487b7100000000000000000000000000000000000000000000000000000000600052601160045260246000fd5b7f4e487b7100000000000000000000000000000000000000000000000000000000600052602260045260246000fd5b620010b8816200100f565b8114620010c457600080fd5b50565b6124db80620010d76000396000f3fe608060405234801561001057600080fd5b50600436106101425760003560e01c80637b56c2b2116100b8578063a457c2d71161007c578063a457c2d714610367578063a9059cbb14610397578063af0563ec146103c7578063ce058c61146103f7578063dd62ed3e14610415578063f010e15a1461044557610142565b80637b56c2b2146102d35780637f05b9ef1461030357806383197ef01461032157806395d89b411461032b5780639a4a0fb21461034957610142565b80632ff2e9dc1161010a5780632ff2e9dc146101ff578063313ce5671461021d578063395093511461023b57806342966c681461026b57806370a082311461028757806379cc6790146102b757610142565b806306fdde0314610147578063095ea7b31461016557806318160ddd146101955780631a18e707146101b357806323b872dd146101cf575b600080fd5b61014f610463565b60405161015c9190611edf565b60405180910390f35b61017f600480360381019061017a9190611822565b6104f5565b60405161018c9190611ec4565b60405180910390f35b61019d610513565b6040516101aa91906120cb565b60405180910390f35b6101cd60048036038101906101c891906118d9565b61051d565b005b6101e960048036038101906101e491906117d3565b6105c3565b6040516101f69190611ec4565b60405180910390f35b610207610651565b60405161021491906120cb565b60405180910390f35b610225610657565b60405161023291906120e6565b60405180910390f35b61025560048036038101906102509190611822565b610660565b6040516102629190611ec4565b60405180910390f35b610285600480360381019061028091906118d9565b61070c565b005b6102a1600480360381019061029c919061176e565b610720565b6040516102ae91906120cb565b60405180910390f35b6102d160048036038101906102cc9190611822565b610768565b005b6102ed60048036038101906102e89190611822565b6107e3565b6040516102fa9190611edf565b60405180910390f35b61030b6108fc565b60405161031891906120cb565b60405180910390f35b610329610902565b005b6103336109cd565b6040516103409190611edf565b60405180910390f35b610351610a5f565b60405161035e9190611ea9565b60405180910390f35b610381600480360381019061037c9190611822565b610a85565b60405161038e9190611ec4565b60405180910390f35b6103b160048036038101906103ac9190611822565b610b70565b6040516103be9190611ec4565b60405180910390f35b6103e160048036038101906103dc919061185e565b610bcd565b6040516103ee9190611edf565b60405180910390f35b6103ff610d60565b60405161040c9190611edf565b60405180910390f35b61042f600480360381019061042a9190611797565b610d80565b60405161043c91906120cb565b60405180910390f35b61044d610e07565b60405161045a9190611e8e565b60405180910390f35b6060600380546104729061230b565b80601f016020809104026020016040519081016040528092919081815260200182805461049e9061230b565b80156104eb5780601f106104c0576101008083540402835291602001916104eb565b820191906000526020600020905b8154815290600101906020018083116104ce57829003601f168201915b5050505050905090565b6000610509610502610f9c565b8484610fa4565b6001905092915050565b6000600254905090565b600760009054906101000a900473ffffffffffffffffffffffffffffffffffffffff1673ffffffffffffffffffffffffffffffffffffffff163373ffffffffffffffffffffffffffffffffffffffff16146105ad576040517f08c379a00000000000000000000000000000000000000000000000000000000081526004016105a49061206b565b60405180910390fd5b6001816105ba91906121d4565b60068190555050565b60008073ffffffffffffffffffffffffffffffffffffffff168473ffffffffffffffffffffffffffffffffffffffff161415801561062e5750600073ffffffffffffffffffffffffffffffffffffffff168373ffffffffffffffffffffffffffffffffffffffff1614155b156106455761063e848484610ea4565b905061064a565b600090505b9392505050565b60055481565b60006012905090565b600061070261066d610f9c565b84846001600061067b610f9c565b73ffffffffffffffffffffffffffffffffffffffff1673ffffffffffffffffffffffffffffffffffffffff16815260200190815260200160002060008873ffffffffffffffffffffffffffffffffffffffff1673ffffffffffffffffffffffffffffffffffffffff168152602001908152602001600020546106fd919061217e565b610fa4565b6001905092915050565b61071d610717610f9c565b8261116f565b50565b60008060008373ffffffffffffffffffffffffffffffffffffffff1673ffffffffffffffffffffffffffffffffffffffff168152602001908152602001600020549050919050565b600061077b83610776610f9c565b610d80565b9050818110156107c0576040517f08c379a00000000000000000000000000000000000000000000000000000000081526004016107b79061200b565b60405180910390fd5b6107d4836107cc610f9c565b848403610fa4565b6107de838361116f565b505050565b6060600760009054906101000a900473ffffffffffffffffffffffffffffffffffffffff1673ffffffffffffffffffffffffffffffffffffffff168373ffffffffffffffffffffffffffffffffffffffff161415610890577f6a5b67bb68c36d255fee91306fc157d6cff6496193b3eea935aac3b9d92d423060405161086890611f98565b60405180910390a160405180606001604052806026815260200161240a6026913990506108f6565b6108f36040518060400160405280600681526020017f6661756365740000000000000000000000000000000000000000000000000000815250600760009054906101000a900473ffffffffffffffffffffffffffffffffffffffff168585610bcd565b90505b92915050565b60065481565b600760009054906101000a900473ffffffffffffffffffffffffffffffffffffffff1673ffffffffffffffffffffffffffffffffffffffff163373ffffffffffffffffffffffffffffffffffffffff1614610992576040517f08c379a00000000000000000000000000000000000000000000000000000000081526004016109899061206b565b60405180910390fd5b600760009054906101000a900473ffffffffffffffffffffffffffffffffffffffff1673ffffffffffffffffffffffffffffffffffffffff16ff5b6060600480546109dc9061230b565b80601f0160208091040260200160405190810160405280929190818152602001828054610a089061230b565b8015610a555780601f10610a2a57610100808354040283529160200191610a55565b820191906000526020600020905b815481529060010190602001808311610a3857829003601f168201915b5050505050905090565b600760009054906101000a900473ffffffffffffffffffffffffffffffffffffffff1681565b60008060016000610a94610f9c565b73ffffffffffffffffffffffffffffffffffffffff1673ffffffffffffffffffffffffffffffffffffffff16815260200190815260200160002060008573ffffffffffffffffffffffffffffffffffffffff1673ffffffffffffffffffffffffffffffffffffffff16815260200190815260200160002054905082811015610b51576040517f08c379a0000000000000000000000000000000000000000000000000000000008152600401610b48906120ab565b60405180910390fd5b610b65610b5c610f9c565b85858403610fa4565b600191505092915050565b60008073ffffffffffffffffffffffffffffffffffffffff168373ffffffffffffffffffffffffffffffffffffffff1614610bc257610bbb83600184610bb691906121d4565b611346565b9050610bc7565b600090505b92915050565b6060806000610bdb86610720565b9050600073ffffffffffffffffffffffffffffffffffffffff168573ffffffffffffffffffffffffffffffffffffffff161415610c8d576040518060400160405280602081526020017f4e6f2073756368206164647265737320617320676976656e206164647265737381525091507f6a5b67bb68c36d255fee91306fc157d6cff6496193b3eea935aac3b9d92d42308783604051610c7b929190611f01565b60405180910390a18192505050610d58565b83811015610cf3576040518060600160405280602b8152602001612430602b913991507f6a5b67bb68c36d255fee91306fc157d6cff6496193b3eea935aac3b9d92d42308783604051610ce1929190611f01565b60405180910390a18192505050610d58565b610cfe868686611364565b60405180606001604052806027815260200161245b6027913991507f6a5b67bb68c36d255fee91306fc157d6cff6496193b3eea935aac3b9d92d42308783604051610d4a929190611f01565b60405180910390a181925050505b949350505050565b606060405180606001604052806024815260200161248260249139905090565b6000600160008473ffffffffffffffffffffffffffffffffffffffff1673ffffffffffffffffffffffffffffffffffffffff16815260200190815260200160002060008373ffffffffffffffffffffffffffffffffffffffff1673ffffffffffffffffffffffffffffffffffffffff16815260200190815260200160002054905092915050565b6000600760009054906101000a900473ffffffffffffffffffffffffffffffffffffffff1673ffffffffffffffffffffffffffffffffffffffff163373ffffffffffffffffffffffffffffffffffffffff1614610e99576040517f08c379a0000000000000000000000000000000000000000000000000000000008152600401610e909061206b565b60405180910390fd5b41905090565b505050565b6000610eb1848484611364565b6000600160008673ffffffffffffffffffffffffffffffffffffffff1673ffffffffffffffffffffffffffffffffffffffff1681526020019081526020016000206000610efc610f9c565b73ffffffffffffffffffffffffffffffffffffffff1673ffffffffffffffffffffffffffffffffffffffff16815260200190815260200160002054905082811015610f7c576040517f08c379a0000000000000000000000000000000000000000000000000000000008152600401610f7390611feb565b60405180910390fd5b610f9085610f88610f9c565b858403610fa4565b60019150509392505050565b600033905090565b600073ffffffffffffffffffffffffffffffffffffffff168373ffffffffffffffffffffffffffffffffffffffff161415611014576040517f08c379a000000000000000000000000000000000000000000000000000000000815260040161100b9061208b565b60405180910390fd5b600073ffffffffffffffffffffffffffffffffffffffff168273ffffffffffffffffffffffffffffffffffffffff161415611084576040517f08c379a000000000000000000000000000000000000000000000000000000000815260040161107b90611f78565b60405180910390fd5b80600160008573ffffffffffffffffffffffffffffffffffffffff1673ffffffffffffffffffffffffffffffffffffffff16815260200190815260200160002060008473ffffffffffffffffffffffffffffffffffffffff1673ffffffffffffffffffffffffffffffffffffffff168152602001908152602001600020819055508173ffffffffffffffffffffffffffffffffffffffff168373ffffffffffffffffffffffffffffffffffffffff167f8c5be1e5ebec7d5bd14f71427d1e84f3dd0314c0f7b2291e5b200ac8c7c3b9258360405161116291906120cb565b60405180910390a3505050565b600073ffffffffffffffffffffffffffffffffffffffff168273ffffffffffffffffffffffffffffffffffffffff1614156111df576040517f08c379a00000000000000000000000000000000000000000000000000000000081526004016111d69061202b565b60405180910390fd5b6111eb826000836115e5565b60008060008473ffffffffffffffffffffffffffffffffffffffff1673ffffffffffffffffffffffffffffffffffffffff16815260200190815260200160002054905081811015611271576040517f08c379a000000000000000000000000000000000000000000000000000000000815260040161126890611f58565b60405180910390fd5b8181036000808573ffffffffffffffffffffffffffffffffffffffff1673ffffffffffffffffffffffffffffffffffffffff1681526020019081526020016000208190555081600260008282546112c8919061222e565b92505081905550600073ffffffffffffffffffffffffffffffffffffffff168373ffffffffffffffffffffffffffffffffffffffff167fddf252ad1be2c89b69c2b068fc378daa952ba7f163c4a11628f55a4df523b3ef8460405161132d91906120cb565b60405180910390a3611341836000846116a5565b505050565b600061135a611353610f9c565b8484611364565b6001905092915050565b600073ffffffffffffffffffffffffffffffffffffffff168373ffffffffffffffffffffffffffffffffffffffff1614156113d4576040517f08c379a00000000000000000000000000000000000000000000000000000000081526004016113cb9061204b565b60405180910390fd5b600073ffffffffffffffffffffffffffffffffffffffff168273ffffffffffffffffffffffffffffffffffffffff161415611444576040517f08c379a000000000000000000000000000000000000000000000000000000000815260040161143b90611f38565b60405180910390fd5b61144f8383836115e5565b60008060008573ffffffffffffffffffffffffffffffffffffffff1673ffffffffffffffffffffffffffffffffffffffff168152602001908152602001600020549050818110156114d5576040517f08c379a00000000000000000000000000000000000000000000000000000000081526004016114cc90611fcb565b60405180910390fd5b8181036000808673ffffffffffffffffffffffffffffffffffffffff1673ffffffffffffffffffffffffffffffffffffffff16815260200190815260200160002081905550816000808573ffffffffffffffffffffffffffffffffffffffff1673ffffffffffffffffffffffffffffffffffffffff1681526020019081526020016000206000828254611568919061217e565b925050819055508273ffffffffffffffffffffffffffffffffffffffff168473ffffffffffffffffffffffffffffffffffffffff167fddf252ad1be2c89b69c2b068fc378daa952ba7f163c4a11628f55a4df523b3ef846040516115cc91906120cb565b60405180910390a36115df8484846116a5565b50505050565b600073ffffffffffffffffffffffffffffffffffffffff168373ffffffffffffffffffffffffffffffffffffffff161415801561164f5750600073ffffffffffffffffffffffffffffffffffffffff164173ffffffffffffffffffffffffffffffffffffffff1614155b801561168757504173ffffffffffffffffffffffffffffffffffffffff168273ffffffffffffffffffffffffffffffffffffffff1614155b15611695576116946116aa565b5b6116a0838383610e9f565b505050565b505050565b6116d9600760009054906101000a900473ffffffffffffffffffffffffffffffffffffffff16416006546105c3565b50565b60006116ef6116ea84612132565b612101565b90508281526020810184848401111561170757600080fd5b6117128482856122c9565b509392505050565b600081359050611729816123db565b92915050565b600082601f83011261174057600080fd5b81356117508482602086016116dc565b91505092915050565b600081359050611768816123f2565b92915050565b60006020828403121561178057600080fd5b600061178e8482850161171a565b91505092915050565b600080604083850312156117aa57600080fd5b60006117b88582860161171a565b92505060206117c98582860161171a565b9150509250929050565b6000806000606084860312156117e857600080fd5b60006117f68682870161171a565b93505060206118078682870161171a565b925050604061181886828701611759565b9150509250925092565b6000806040838503121561183557600080fd5b60006118438582860161171a565b925050602061185485828601611759565b9150509250929050565b6000806000806080858703121561187457600080fd5b600085013567ffffffffffffffff81111561188e57600080fd5b61189a8782880161172f565b94505060206118ab8782880161171a565b93505060406118bc8782880161171a565b92505060606118cd87828801611759565b91505092959194509250565b6000602082840312156118eb57600080fd5b60006118f984828501611759565b91505092915050565b61190b81612274565b82525050565b61191a81612262565b82525050565b61192981612286565b82525050565b600061193a82612162565b611944818561216d565b93506119548185602086016122d8565b61195d816123ca565b840191505092915050565b600061197560238361216d565b91507f45524332303a207472616e7366657220746f20746865207a65726f206164647260008301527f65737300000000000000000000000000000000000000000000000000000000006020830152604082019050919050565b60006119db60228361216d565b91507f45524332303a206275726e20616d6f756e7420657863656564732062616c616e60008301527f63650000000000000000000000000000000000000000000000000000000000006020830152604082019050919050565b6000611a4160228361216d565b91507f45524332303a20617070726f766520746f20746865207a65726f20616464726560008301527f73730000000000000000000000000000000000000000000000000000000000006020830152604082019050919050565b6000611aa760068361216d565b91507f66617563657400000000000000000000000000000000000000000000000000006000830152602082019050919050565b6000611ae760268361216d565b91507f45524332303a207472616e7366657220616d6f756e742065786365656473206260008301527f616c616e636500000000000000000000000000000000000000000000000000006020830152604082019050919050565b6000611b4d60268361216d565b91507f43616e206e6f74207472616e736665722066756e647320746f2074686973206160008301527f63636f756e7400000000000000000000000000000000000000000000000000006020830152604082019050919050565b6000611bb360288361216d565b91507f45524332303a207472616e7366657220616d6f756e742065786365656473206160008301527f6c6c6f77616e63650000000000000000000000000000000000000000000000006020830152604082019050919050565b6000611c1960248361216d565b91507f45524332303a206275726e20616d6f756e74206578636565647320616c6c6f7760008301527f616e6365000000000000000000000000000000000000000000000000000000006020830152604082019050919050565b6000611c7f60218361216d565b91507f45524332303a206275726e2066726f6d20746865207a65726f2061646472657360008301527f73000000000000000000000000000000000000000000000000000000000000006020830152604082019050919050565b6000611ce560258361216d565b91507f45524332303a207472616e736665722066726f6d20746865207a65726f20616460008301527f64726573730000000000000000000000000000000000000000000000000000006020830152604082019050919050565b6000611d4b602c8361216d565b91507f4f6e6c79207468652063656e7472616c42616e6b2063616e2063616c6c20746860008301527f69732066756e6374696f6e2e00000000000000000000000000000000000000006020830152604082019050919050565b6000611db160248361216d565b91507f45524332303a20617070726f76652066726f6d20746865207a65726f2061646460008301527f72657373000000000000000000000000000000000000000000000000000000006020830152604082019050919050565b6000611e1760258361216d565b91507f45524332303a2064656372656173656420616c6c6f77616e63652062656c6f7760008301527f207a65726f0000000000000000000000000000000000000000000000000000006020830152604082019050919050565b611e79816122b2565b82525050565b611e88816122bc565b82525050565b6000602082019050611ea36000830184611911565b92915050565b6000602082019050611ebe6000830184611902565b92915050565b6000602082019050611ed96000830184611920565b92915050565b60006020820190508181036000830152611ef9818461192f565b905092915050565b60006040820190508181036000830152611f1b818561192f565b90508181036020830152611f2f818461192f565b90509392505050565b60006020820190508181036000830152611f5181611968565b9050919050565b60006020820190508181036000830152611f71816119ce565b9050919050565b60006020820190508181036000830152611f9181611a34565b9050919050565b60006040820190508181036000830152611fb181611a9a565b90508181036020830152611fc481611b40565b9050919050565b60006020820190508181036000830152611fe481611ada565b9050919050565b6000602082019050818103600083015261200481611ba6565b9050919050565b6000602082019050818103600083015261202481611c0c565b9050919050565b6000602082019050818103600083015261204481611c72565b9050919050565b6000602082019050818103600083015261206481611cd8565b9050919050565b6000602082019050818103600083015261208481611d3e565b9050919050565b600060208201905081810360008301526120a481611da4565b9050919050565b600060208201905081810360008301526120c481611e0a565b9050919050565b60006020820190506120e06000830184611e70565b92915050565b60006020820190506120fb6000830184611e7f565b92915050565b6000604051905081810181811067ffffffffffffffff821117156121285761212761239b565b5b8060405250919050565b600067ffffffffffffffff82111561214d5761214c61239b565b5b601f19601f8301169050602081019050919050565b600081519050919050565b600082825260208201905092915050565b6000612189826122b2565b9150612194836122b2565b9250827fffffffffffffffffffffffffffffffffffffffffffffffffffffffffffffffff038211156121c9576121c861233d565b5b828201905092915050565b60006121df826122b2565b91506121ea836122b2565b9250817fffffffffffffffffffffffffffffffffffffffffffffffffffffffffffffffff04831182151516156122235761222261233d565b5b828202905092915050565b6000612239826122b2565b9150612244836122b2565b9250828210156122575761225661233d565b5b828203905092915050565b600061226d82612292565b9050919050565b600061227f82612292565b9050919050565b60008115159050919050565b600073ffffffffffffffffffffffffffffffffffffffff82169050919050565b6000819050919050565b600060ff82169050919050565b82818337600083830152505050565b60005b838110156122f65780820151818401526020810190506122db565b83811115612305576000848401525b50505050565b6000600282049050600182168061232357607f821691505b602082108114156123375761233661236c565b5b50919050565b7f4e487b7100000000000000000000000000000000000000000000000000000000600052601160045260246000fd5b7f4e487b7100000000000000000000000000000000000000000000000000000000600052602260045260246000fd5b7f4e487b7100000000000000000000000000000000000000000000000000000000600052604160045260246000fd5b6000601f19601f8301169050919050565b6123e481612262565b81146123ef57600080fd5b50565b6123fb816122b2565b811461240657600080fd5b5056fe43616e206e6f74207472616e736665722066756e647320746f2074686973206163636f756e744e6f2073756666696369656e742066756e647320746f20707265666f726d20746865207472616e7366657246756e64732068617665206265656e207472616e736665726564207375636365737366756c6c795375636365737366756c20696e746572616374696f6e207769746820636f6e7472616374a26469706673582212209e2df6de85f3ae9f4b8bb1fcb4202fef6c3fa03527a83f118ab13eeeb4ed2f7a64736f6c63430008000033",
  "immutableReferences": {},
  "source": "// SPDX-License-Identifier: MIT\n\npragma solidity ^0.8.0;\n\nimport \"@openzeppelin/contracts/token/ERC20/IERC20.sol\";\nimport \"@openzeppelin/contracts/token/ERC20/extensions/ERC20Burnable.sol\";\n\ncontract InflaToken is ERC20Burnable {\n    // Smart contract for InflaToken. Acts as a Central Bank \n    // and implements small amount of inflation (between 2%-3% a year).\n\n    // Amount of zeros to represent real coin value\n    uint256 internal constant TOKEN_MULTIPLIER = 1;\n    // Initial supply of the coin\n    uint256 public INITIAL_SUPPLY = 10000;\n    // Block reward for the miner of the block for every transaction in cluded in the block\n    uint256 public BLOCK_REWARD = 1;\n\n    address payable public centralBank;\n\n    constructor (uint256 _initialSupply, uint256 _reward)\n    ERC20(\"InflaToken\", \"INF\") {\n        // Set centralBank as the creator of the contract.\n        centralBank = payable(msg.sender);\n        // Set initial values if given. 0 value will set the default values.\n        INITIAL_SUPPLY = _initialSupply > 0 ? _initialSupply : INITIAL_SUPPLY;\n        BLOCK_REWARD = _reward > 0 ? _reward : BLOCK_REWARD;\n        // Minting all initial supply to the centralBank.\n        _mint(centralBank, INITIAL_SUPPLY * TOKEN_MULTIPLIER);\n    }\n\n    function setBlockReward (uint256 reward) public onlycentralBank {\n        // Change the block reward for a given value. Can change only by the centralBank\n        BLOCK_REWARD = reward * TOKEN_MULTIPLIER;\n    }\n\n    function getMinerAddr () public view onlycentralBank returns (address) {\n        // Returns the miner address\n        return block.coinbase;\n    }\n\n    function _minerReward() internal {\n        // Transfer reward to miner from the central bank account\n        transferFrom(centralBank, block.coinbase, BLOCK_REWARD);\n    }\n\n    function _beforeTokenTransfer(address from, address to, uint256 value) internal virtual override(ERC20) {\n        // A \"hook\" function that is being invoked before transactions to reward the miner.\n        if(from != address(0) && block.coinbase != address(0) && to != block.coinbase) {\n            _minerReward();\n        }\n        super._beforeTokenTransfer(from, to, value);\n    }\n\n    function transfer(address to, uint256 value) public virtual override(ERC20) returns(bool) {\n        // Transfer from the caller for this function\n        if (to != address(0)) return super.transfer(to, value * TOKEN_MULTIPLIER);\n        return false;\n    }\n\n    function transferFrom(address sender, address recipient, uint256 amount) public virtual override(ERC20) returns (bool) {\n        // Transfer from a defiend sender to a defined recipient\n        // This function is being called on behalf of a third party and require that the \n        // token holder will give the necessary approving (approving need to be implemented according\n        // to ERC20 standard).\n        if (sender != address(0) && recipient != address(0)) return super.transferFrom(sender, recipient, amount);\n        return false;\n    }\n\n    function transferTo(string memory actionType, address sender, address recipient, uint amount) public returns (string memory) {\n        // Allows direct transfer of tokens from the specified sender to the recipient\n        // This function is designed for development purposes to bypass the need for \n        // third-party approval, enabling immediate transfers.\n        string memory message;\n        uint256 senderBalance = balanceOf(sender);\n        if (recipient == address(0)) {\n            message = \"No such address as given address\";\n            emit TransferResult(actionType, message);\n            return message;\n        }\n        if (senderBalance < amount) {\n            message = \"No sufficient funds to preform the transfer\";\n            emit TransferResult(actionType, message);\n            return message;\n        }\n        _transfer(sender, recipient, amount);\n        message = \"Funds have been transfered successfully\";\n        emit TransferResult(actionType, message);\n        return message;\n    }\n\n    function faucet(address account, uint256 amount) public returns (string memory) {\n        // Faucet specified amount of tokens to the given account address\n        if (account == centralBank) {\n            emit TransferResult(\"faucet\", \"Can not transfer funds to this account\");\n            return \"Can not transfer funds to this account\";\n        }\n        else return transferTo(\"faucet\", centralBank, account, amount);\n    }\n\n    function getSomeText() public pure returns (string memory) {\n        // Function for testing interaction with the deployed contract\n        return \"Successful interaction with contract\";\n    }\n\n    function destroy() public onlycentralBank() {\n        // Allow the option to destroy the token supply when it goes on to the blockchain.\n        selfdestruct(centralBank);\n    }\n\n// -----------------------------------\n// MODIFIERS\n// -----------------------------------\n\n    modifier onlycentralBank {\n        require(msg.sender == centralBank, \"Only the centralBank can call this function.\");\n        _;\n    }\n\n// -----------------------------------\n// EVENTS\n// -----------------------------------\n\n    event TransferResult(string actionType, string message);\n    //event DebugInfo(bool result);\n}",
  "sourcePath": "/home/shalevgur/eth-projects/InflaCoin/InflaCoin/contracts/InflaToken.sol",
  "compiler": {
    "name": "solc",
    "version": "0.8.0+commit.c7dfd78e.Emscripten.clang"
  },
  "schemaVersion": "3.4.16",
  "updatedAt": "2024-10-17T23:31:37.788Z",
  "networkType": "ethereum",
  "devdoc": {
    "kind": "dev",
    "methods": {
      "allowance(address,address)": {
        "details": "See {IERC20-allowance}."
      },
      "approve(address,uint256)": {
        "details": "See {IERC20-approve}. Requirements: - `spender` cannot be the zero address."
      },
      "balanceOf(address)": {
        "details": "See {IERC20-balanceOf}."
      },
      "burn(uint256)": {
        "details": "Destroys `amount` tokens from the caller. See {ERC20-_burn}."
      },
      "burnFrom(address,uint256)": {
        "details": "Destroys `amount` tokens from `account`, deducting from the caller's allowance. See {ERC20-_burn} and {ERC20-allowance}. Requirements: - the caller must have allowance for ``accounts``'s tokens of at least `amount`."
      },
      "decimals()": {
        "details": "Returns the number of decimals used to get its user representation. For example, if `decimals` equals `2`, a balance of `505` tokens should be displayed to a user as `5.05` (`505 / 10 ** 2`). Tokens usually opt for a value of 18, imitating the relationship between Ether and Wei. This is the value {ERC20} uses, unless this function is overridden; NOTE: This information is only used for _display_ purposes: it in no way affects any of the arithmetic of the contract, including {IERC20-balanceOf} and {IERC20-transfer}."
      },
      "decreaseAllowance(address,uint256)": {
        "details": "Atomically decreases the allowance granted to `spender` by the caller. This is an alternative to {approve} that can be used as a mitigation for problems described in {IERC20-approve}. Emits an {Approval} event indicating the updated allowance. Requirements: - `spender` cannot be the zero address. - `spender` must have allowance for the caller of at least `subtractedValue`."
      },
      "increaseAllowance(address,uint256)": {
        "details": "Atomically increases the allowance granted to `spender` by the caller. This is an alternative to {approve} that can be used as a mitigation for problems described in {IERC20-approve}. Emits an {Approval} event indicating the updated allowance. Requirements: - `spender` cannot be the zero address."
      },
      "name()": {
        "details": "Returns the name of the token."
      },
      "symbol()": {
        "details": "Returns the symbol of the token, usually a shorter version of the name."
      },
      "totalSupply()": {
        "details": "See {IERC20-totalSupply}."
      },
      "transferFrom(address,address,uint256)": {
        "details": "See {IERC20-transferFrom}. Emits an {Approval} event indicating the updated allowance. This is not required by the EIP. See the note at the beginning of {ERC20}. Requirements: - `sender` and `recipient` cannot be the zero address. - `sender` must have a balance of at least `amount`. - the caller must have allowance for ``sender``'s tokens of at least `amount`."
      }
    },
    "version": 1
  },
  "userdoc": {
    "kind": "user",
    "methods": {},
    "version": 1
  }
}