{
  "contractName": "InflaToken",
  "abi": [
    {
      "inputs": [
        {
          "internalType": "uint256",
          "name": "_initialSupply",
          "type": "uint256"
        },
        {
          "internalType": "uint256",
          "name": "_reward",
          "type": "uint256"
        }
      ],
      "stateMutability": "nonpayable",
      "type": "constructor"
    },
    {
      "anonymous": false,
      "inputs": [
        {
          "indexed": true,
          "internalType": "address",
          "name": "owner",
          "type": "address"
        },
        {
          "indexed": true,
          "internalType": "address",
          "name": "spender",
          "type": "address"
        },
        {
          "indexed": false,
          "internalType": "uint256",
          "name": "value",
          "type": "uint256"
        }
      ],
      "name": "Approval",
      "type": "event"
    },
    {
      "anonymous": false,
      "inputs": [
        {
          "indexed": true,
          "internalType": "address",
          "name": "from",
          "type": "address"
        },
        {
          "indexed": true,
          "internalType": "address",
          "name": "to",
          "type": "address"
        },
        {
          "indexed": false,
          "internalType": "uint256",
          "name": "value",
          "type": "uint256"
        }
      ],
      "name": "Transfer",
      "type": "event"
    },
    {
      "anonymous": false,
      "inputs": [
        {
          "indexed": false,
          "internalType": "string",
          "name": "actionType",
          "type": "string"
        },
        {
          "indexed": false,
          "internalType": "string",
          "name": "message",
          "type": "string"
        }
      ],
      "name": "TransferResult",
      "type": "event"
    },
    {
      "inputs": [],
      "name": "BLOCK_REWARD",
      "outputs": [
        {
          "internalType": "uint256",
          "name": "",
          "type": "uint256"
        }
      ],
      "stateMutability": "view",
      "type": "function",
      "constant": true
    },
    {
      "inputs": [],
      "name": "INITIAL_SUPPLY",
      "outputs": [
        {
          "internalType": "uint256",
          "name": "",
          "type": "uint256"
        }
      ],
      "stateMutability": "view",
      "type": "function",
      "constant": true
    },
    {
      "inputs": [
        {
          "internalType": "address",
          "name": "owner",
          "type": "address"
        },
        {
          "internalType": "address",
          "name": "spender",
          "type": "address"
        }
      ],
      "name": "allowance",
      "outputs": [
        {
          "internalType": "uint256",
          "name": "",
          "type": "uint256"
        }
      ],
      "stateMutability": "view",
      "type": "function",
      "constant": true
    },
    {
      "inputs": [
        {
          "internalType": "address",
          "name": "spender",
          "type": "address"
        },
        {
          "internalType": "uint256",
          "name": "amount",
          "type": "uint256"
        }
      ],
      "name": "approve",
      "outputs": [
        {
          "internalType": "bool",
          "name": "",
          "type": "bool"
        }
      ],
      "stateMutability": "nonpayable",
      "type": "function"
    },
    {
      "inputs": [
        {
          "internalType": "address",
          "name": "account",
          "type": "address"
        }
      ],
      "name": "balanceOf",
      "outputs": [
        {
          "internalType": "uint256",
          "name": "",
          "type": "uint256"
        }
      ],
      "stateMutability": "view",
      "type": "function",
      "constant": true
    },
    {
      "inputs": [
        {
          "internalType": "uint256",
          "name": "amount",
          "type": "uint256"
        }
      ],
      "name": "burn",
      "outputs": [],
      "stateMutability": "nonpayable",
      "type": "function"
    },
    {
      "inputs": [
        {
          "internalType": "address",
          "name": "account",
          "type": "address"
        },
        {
          "internalType": "uint256",
          "name": "amount",
          "type": "uint256"
        }
      ],
      "name": "burnFrom",
      "outputs": [],
      "stateMutability": "nonpayable",
      "type": "function"
    },
    {
      "inputs": [],
      "name": "decimals",
      "outputs": [
        {
          "internalType": "uint8",
          "name": "",
          "type": "uint8"
        }
      ],
      "stateMutability": "view",
      "type": "function",
      "constant": true
    },
    {
      "inputs": [
        {
          "internalType": "address",
          "name": "spender",
          "type": "address"
        },
        {
          "internalType": "uint256",
          "name": "subtractedValue",
          "type": "uint256"
        }
      ],
      "name": "decreaseAllowance",
      "outputs": [
        {
          "internalType": "bool",
          "name": "",
          "type": "bool"
        }
      ],
      "stateMutability": "nonpayable",
      "type": "function"
    },
    {
      "inputs": [
        {
          "internalType": "address",
          "name": "spender",
          "type": "address"
        },
        {
          "internalType": "uint256",
          "name": "addedValue",
          "type": "uint256"
        }
      ],
      "name": "increaseAllowance",
      "outputs": [
        {
          "internalType": "bool",
          "name": "",
          "type": "bool"
        }
      ],
      "stateMutability": "nonpayable",
      "type": "function"
    },
    {
      "inputs": [],
      "name": "name",
      "outputs": [
        {
          "internalType": "string",
          "name": "",
          "type": "string"
        }
      ],
      "stateMutability": "view",
      "type": "function",
      "constant": true
    },
    {
      "inputs": [],
      "name": "symbol",
      "outputs": [
        {
          "internalType": "string",
          "name": "",
          "type": "string"
        }
      ],
      "stateMutability": "view",
      "type": "function",
      "constant": true
    },
    {
      "inputs": [],
      "name": "totalSupply",
      "outputs": [
        {
          "internalType": "uint256",
          "name": "",
          "type": "uint256"
        }
      ],
      "stateMutability": "view",
      "type": "function",
      "constant": true
    },
    {
      "inputs": [
        {
          "internalType": "uint256",
          "name": "reward",
          "type": "uint256"
        }
      ],
      "name": "setBlockReward",
      "outputs": [],
      "stateMutability": "nonpayable",
      "type": "function"
    },
    {
      "inputs": [
        {
          "internalType": "address",
          "name": "_loanContractAddress",
          "type": "address"
        }
      ],
      "name": "setLoanContractAddress",
      "outputs": [],
      "stateMutability": "nonpayable",
      "type": "function"
    },
    {
      "inputs": [],
      "name": "getMinerAddr",
      "outputs": [
        {
          "internalType": "address",
          "name": "",
          "type": "address"
        }
      ],
      "stateMutability": "view",
      "type": "function",
      "constant": true
    },
    {
      "inputs": [],
      "name": "getInterestRate",
      "outputs": [
        {
          "internalType": "uint256",
          "name": "",
          "type": "uint256"
        }
      ],
      "stateMutability": "view",
      "type": "function",
      "constant": true
    },
    {
      "inputs": [
        {
          "internalType": "address",
          "name": "to",
          "type": "address"
        },
        {
          "internalType": "uint256",
          "name": "value",
          "type": "uint256"
        }
      ],
      "name": "transfer",
      "outputs": [
        {
          "internalType": "bool",
          "name": "",
          "type": "bool"
        }
      ],
      "stateMutability": "nonpayable",
      "type": "function"
    },
    {
      "inputs": [
        {
          "internalType": "address",
          "name": "sender",
          "type": "address"
        },
        {
          "internalType": "address",
          "name": "recipient",
          "type": "address"
        },
        {
          "internalType": "uint256",
          "name": "amount",
          "type": "uint256"
        }
      ],
      "name": "transferFrom",
      "outputs": [
        {
          "internalType": "bool",
          "name": "",
          "type": "bool"
        }
      ],
      "stateMutability": "nonpayable",
      "type": "function"
    },
    {
      "inputs": [
        {
          "internalType": "string",
          "name": "actionType",
          "type": "string"
        },
        {
          "internalType": "address",
          "name": "sender",
          "type": "address"
        },
        {
          "internalType": "address",
          "name": "recipient",
          "type": "address"
        },
        {
          "internalType": "uint256",
          "name": "amount",
          "type": "uint256"
        }
      ],
      "name": "transferTo",
      "outputs": [
        {
          "internalType": "string",
          "name": "",
          "type": "string"
        }
      ],
      "stateMutability": "nonpayable",
      "type": "function"
    },
    {
      "inputs": [
        {
          "internalType": "address",
          "name": "account",
          "type": "address"
        },
        {
          "internalType": "uint256",
          "name": "amount",
          "type": "uint256"
        }
      ],
      "name": "faucet",
      "outputs": [
        {
          "internalType": "string",
          "name": "",
          "type": "string"
        }
      ],
      "stateMutability": "nonpayable",
      "type": "function"
    },
    {
      "inputs": [],
      "name": "getSomeText",
      "outputs": [
        {
          "internalType": "string",
          "name": "",
          "type": "string"
        }
      ],
      "stateMutability": "pure",
      "type": "function",
      "constant": true
    },
    {
      "inputs": [],
      "name": "destroy",
      "outputs": [],
      "stateMutability": "nonpayable",
      "type": "function"
    }
  ],
  "bytecode": "0x608060405261271060055560016006553480156200001c57600080fd5b506040516200373038038062003730833981810160405281019062000042919062000b31565b6040518060400160405280600a81526020017f496e666c61546f6b656e000000000000000000000000000000000000000000008152506040518060400160405280600381526020017f494e4600000000000000000000000000000000000000000000000000000000008152508160039080519060200190620000c692919062000a6a565b508060049080519060200190620000df92919062000a6a565b50505033600760006101000a81548173ffffffffffffffffffffffffffffffffffffffff021916908373ffffffffffffffffffffffffffffffffffffffff16021790555060008211620001355760055462000137565b815b600581905550600081116200014f5760065462000151565b805b6006819055506200019b600760009054906101000a900473ffffffffffffffffffffffffffffffffffffffff1660016005546200018f919062000fae565b620001a360201b60201c565b5050620010c7565b600073ffffffffffffffffffffffffffffffffffffffff168273ffffffffffffffffffffffffffffffffffffffff16141562000216576040517f08c379a00000000000000000000000000000000000000000000000000000000081526004016200020d9062000f01565b60405180910390fd5b6200022a600083836200031c60201b60201c565b80600260008282546200023e919062000f51565b92505081905550806000808473ffffffffffffffffffffffffffffffffffffffff1673ffffffffffffffffffffffffffffffffffffffff168152602001908152602001600020600082825462000295919062000f51565b925050819055508173ffffffffffffffffffffffffffffffffffffffff16600073ffffffffffffffffffffffffffffffffffffffff167fddf252ad1be2c89b69c2b068fc378daa952ba7f163c4a11628f55a4df523b3ef83604051620002fc919062000f23565b60405180910390a36200031860008383620003f460201b60201c565b5050565b600073ffffffffffffffffffffffffffffffffffffffff168373ffffffffffffffffffffffffffffffffffffffff1614158015620003875750600073ffffffffffffffffffffffffffffffffffffffff164173ffffffffffffffffffffffffffffffffffffffff1614155b8015620003c057504173ffffffffffffffffffffffffffffffffffffffff168273ffffffffffffffffffffffffffffffffffffffff1614155b15620003d757620003d6620003f960201b60201c565b5b620003ef8383836200043360201b6200101b1760201c565b505050565b505050565b62000430600760009054906101000a900473ffffffffffffffffffffffffffffffffffffffff16416006546200043860201b60201c565b50565b505050565b60008073ffffffffffffffffffffffffffffffffffffffff168473ffffffffffffffffffffffffffffffffffffffff1614158015620004a45750600073ffffffffffffffffffffffffffffffffffffffff168373ffffffffffffffffffffffffffffffffffffffff1614155b15620004ca57620004c2848484620004d660201b620010201760201c565b9050620004cf565b600090505b9392505050565b6000620004eb848484620005f160201b60201c565b6000600160008673ffffffffffffffffffffffffffffffffffffffff1673ffffffffffffffffffffffffffffffffffffffff16815260200190815260200160002060006200053e6200088f60201b60201c565b73ffffffffffffffffffffffffffffffffffffffff1673ffffffffffffffffffffffffffffffffffffffff16815260200190815260200160002054905082811015620005c1576040517f08c379a0000000000000000000000000000000000000000000000000000000008152600401620005b89062000e9b565b60405180910390fd5b620005e585620005d66200088f60201b60201c565b8584036200089760201b60201c565b60019150509392505050565b600073ffffffffffffffffffffffffffffffffffffffff168373ffffffffffffffffffffffffffffffffffffffff16141562000664576040517f08c379a00000000000000000000000000000000000000000000000000000000081526004016200065b9062000ebd565b60405180910390fd5b600073ffffffffffffffffffffffffffffffffffffffff168273ffffffffffffffffffffffffffffffffffffffff161415620006d7576040517f08c379a0000000000000000000000000000000000000000000000000000000008152600401620006ce9062000e35565b60405180910390fd5b620006ea8383836200031c60201b60201c565b60008060008573ffffffffffffffffffffffffffffffffffffffff1673ffffffffffffffffffffffffffffffffffffffff1681526020019081526020016000205490508181101562000773576040517f08c379a00000000000000000000000000000000000000000000000000000000081526004016200076a9062000e79565b60405180910390fd5b8181036000808673ffffffffffffffffffffffffffffffffffffffff1673ffffffffffffffffffffffffffffffffffffffff16815260200190815260200160002081905550816000808573ffffffffffffffffffffffffffffffffffffffff1673ffffffffffffffffffffffffffffffffffffffff168152602001908152602001600020600082825462000808919062000f51565b925050819055508273ffffffffffffffffffffffffffffffffffffffff168473ffffffffffffffffffffffffffffffffffffffff167fddf252ad1be2c89b69c2b068fc378daa952ba7f163c4a11628f55a4df523b3ef846040516200086e919062000f23565b60405180910390a362000889848484620003f460201b60201c565b50505050565b600033905090565b600073ffffffffffffffffffffffffffffffffffffffff168373ffffffffffffffffffffffffffffffffffffffff1614156200090a576040517f08c379a0000000000000000000000000000000000000000000000000000000008152600401620009019062000edf565b60405180910390fd5b600073ffffffffffffffffffffffffffffffffffffffff168273ffffffffffffffffffffffffffffffffffffffff1614156200097d576040517f08c379a0000000000000000000000000000000000000000000000000000000008152600401620009749062000e57565b60405180910390fd5b80600160008573ffffffffffffffffffffffffffffffffffffffff1673ffffffffffffffffffffffffffffffffffffffff16815260200190815260200160002060008473ffffffffffffffffffffffffffffffffffffffff1673ffffffffffffffffffffffffffffffffffffffff168152602001908152602001600020819055508173ffffffffffffffffffffffffffffffffffffffff168373ffffffffffffffffffffffffffffffffffffffff167f8c5be1e5ebec7d5bd14f71427d1e84f3dd0314c0f7b2291e5b200ac8c7c3b9258360405162000a5d919062000f23565b60405180910390a3505050565b82805462000a789062001019565b90600052602060002090601f01602090048101928262000a9c576000855562000ae8565b82601f1062000ab757805160ff191683800117855562000ae8565b8280016001018555821562000ae8579182015b8281111562000ae757825182559160200191906001019062000aca565b5b50905062000af7919062000afb565b5090565b5b8082111562000b1657600081600090555060010162000afc565b5090565b60008151905062000b2b81620010ad565b92915050565b6000806040838503121562000b4557600080fd5b600062000b558582860162000b1a565b925050602062000b688582860162000b1a565b9150509250929050565b600062000b8160238362000f40565b91507f45524332303a207472616e7366657220746f20746865207a65726f206164647260008301527f65737300000000000000000000000000000000000000000000000000000000006020830152604082019050919050565b600062000be960228362000f40565b91507f45524332303a20617070726f766520746f20746865207a65726f20616464726560008301527f73730000000000000000000000000000000000000000000000000000000000006020830152604082019050919050565b600062000c5160268362000f40565b91507f45524332303a207472616e7366657220616d6f756e742065786365656473206260008301527f616c616e636500000000000000000000000000000000000000000000000000006020830152604082019050919050565b600062000cb960288362000f40565b91507f45524332303a207472616e7366657220616d6f756e742065786365656473206160008301527f6c6c6f77616e63650000000000000000000000000000000000000000000000006020830152604082019050919050565b600062000d2160258362000f40565b91507f45524332303a207472616e736665722066726f6d20746865207a65726f20616460008301527f64726573730000000000000000000000000000000000000000000000000000006020830152604082019050919050565b600062000d8960248362000f40565b91507f45524332303a20617070726f76652066726f6d20746865207a65726f2061646460008301527f72657373000000000000000000000000000000000000000000000000000000006020830152604082019050919050565b600062000df1601f8362000f40565b91507f45524332303a206d696e7420746f20746865207a65726f2061646472657373006000830152602082019050919050565b62000e2f816200100f565b82525050565b6000602082019050818103600083015262000e508162000b72565b9050919050565b6000602082019050818103600083015262000e728162000bda565b9050919050565b6000602082019050818103600083015262000e948162000c42565b9050919050565b6000602082019050818103600083015262000eb68162000caa565b9050919050565b6000602082019050818103600083015262000ed88162000d12565b9050919050565b6000602082019050818103600083015262000efa8162000d7a565b9050919050565b6000602082019050818103600083015262000f1c8162000de2565b9050919050565b600060208201905062000f3a600083018462000e24565b92915050565b600082825260208201905092915050565b600062000f5e826200100f565b915062000f6b836200100f565b9250827fffffffffffffffffffffffffffffffffffffffffffffffffffffffffffffffff0382111562000fa35762000fa26200104f565b5b828201905092915050565b600062000fbb826200100f565b915062000fc8836200100f565b9250817fffffffffffffffffffffffffffffffffffffffffffffffffffffffffffffffff04831182151516156200100457620010036200104f565b5b828202905092915050565b6000819050919050565b600060028204905060018216806200103257607f821691505b602082108114156200104957620010486200107e565b5b50919050565b7f4e487b7100000000000000000000000000000000000000000000000000000000600052601160045260246000fd5b7f4e487b7100000000000000000000000000000000000000000000000000000000600052602260045260246000fd5b620010b8816200100f565b8114620010c457600080fd5b50565b61265980620010d76000396000f3fe608060405234801561001057600080fd5b506004361061014d5760003560e01c806379cc6790116100c3578063a9059cbb1161007c578063a9059cbb146103a2578063af0563ec146103d2578063b2ba07db14610402578063ce058c611461041e578063dd62ed3e1461043c578063f010e15a1461046c5761014d565b806379cc6790146102e05780637b56c2b2146102fc5780637f05b9ef1461032c57806383197ef01461034a57806395d89b4114610354578063a457c2d7146103725761014d565b80632ff2e9dc116101155780632ff2e9dc1461020a578063313ce56714610228578063395093511461024657806342966c68146102765780635257b5661461029257806370a08231146102b05761014d565b806306fdde0314610152578063095ea7b31461017057806318160ddd146101a05780631a18e707146101be57806323b872dd146101da575b600080fd5b61015a61048a565b604051610167919061206f565b60405180910390f35b61018a600480360381019061018591906119b3565b61051c565b6040516101979190612054565b60405180910390f35b6101a861053a565b6040516101b5919061225b565b60405180910390f35b6101d860048036038101906101d39190611a6a565b610544565b005b6101f460048036038101906101ef9190611964565b6105ea565b6040516102019190612054565b60405180910390f35b610212610678565b60405161021f919061225b565b60405180910390f35b61023061067e565b60405161023d9190612276565b60405180910390f35b610260600480360381019061025b91906119b3565b610687565b60405161026d9190612054565b60405180910390f35b610290600480360381019061028b9190611a6a565b610733565b005b61029a610747565b6040516102a7919061225b565b60405180910390f35b6102ca60048036038101906102c591906118ff565b6107ee565b6040516102d7919061225b565b60405180910390f35b6102fa60048036038101906102f591906119b3565b610836565b005b610316600480360381019061031191906119b3565b6108b1565b604051610323919061206f565b60405180910390f35b6103346109ca565b604051610341919061225b565b60405180910390f35b6103526109d0565b005b61035c610a9b565b604051610369919061206f565b60405180910390f35b61038c600480360381019061038791906119b3565b610b2d565b6040516103999190612054565b60405180910390f35b6103bc60048036038101906103b791906119b3565b610c18565b6040516103c99190612054565b60405180910390f35b6103ec60048036038101906103e791906119ef565b610c75565b6040516103f9919061206f565b60405180910390f35b61041c600480360381019061041791906118ff565b610e08565b005b610426610edc565b604051610433919061206f565b60405180910390f35b61045660048036038101906104519190611928565b610efc565b604051610463919061225b565b60405180910390f35b610474610f83565b6040516104819190612039565b60405180910390f35b60606003805461049990612489565b80601f01602080910402602001604051908101604052809291908181526020018280546104c590612489565b80156105125780601f106104e757610100808354040283529160200191610512565b820191906000526020600020905b8154815290600101906020018083116104f557829003601f168201915b5050505050905090565b6000610530610529611118565b8484611120565b6001905092915050565b6000600254905090565b600760009054906101000a900473ffffffffffffffffffffffffffffffffffffffff1673ffffffffffffffffffffffffffffffffffffffff163373ffffffffffffffffffffffffffffffffffffffff16146105d4576040517f08c379a00000000000000000000000000000000000000000000000000000000081526004016105cb906121fb565b60405180910390fd5b6001816105e19190612364565b60068190555050565b60008073ffffffffffffffffffffffffffffffffffffffff168473ffffffffffffffffffffffffffffffffffffffff16141580156106555750600073ffffffffffffffffffffffffffffffffffffffff168373ffffffffffffffffffffffffffffffffffffffff1614155b1561066c57610665848484611020565b9050610671565b600090505b9392505050565b60055481565b60006012905090565b6000610729610694611118565b8484600160006106a2611118565b73ffffffffffffffffffffffffffffffffffffffff1673ffffffffffffffffffffffffffffffffffffffff16815260200190815260200160002060008873ffffffffffffffffffffffffffffffffffffffff1673ffffffffffffffffffffffffffffffffffffffff16815260200190815260200160002054610724919061230e565b611120565b6001905092915050565b61074461073e611118565b826112eb565b50565b6000600860009054906101000a900473ffffffffffffffffffffffffffffffffffffffff1673ffffffffffffffffffffffffffffffffffffffff16635257b5666040518163ffffffff1660e01b815260040160206040518083038186803b1580156107b157600080fd5b505afa1580156107c5573d6000803e3d6000fd5b505050506040513d601f19601f820116820180604052508101906107e99190611a93565b905090565b60008060008373ffffffffffffffffffffffffffffffffffffffff1673ffffffffffffffffffffffffffffffffffffffff168152602001908152602001600020549050919050565b600061084983610844611118565b610efc565b90508181101561088e576040517f08c379a00000000000000000000000000000000000000000000000000000000081526004016108859061219b565b60405180910390fd5b6108a28361089a611118565b848403611120565b6108ac83836112eb565b505050565b6060600760009054906101000a900473ffffffffffffffffffffffffffffffffffffffff1673ffffffffffffffffffffffffffffffffffffffff168373ffffffffffffffffffffffffffffffffffffffff16141561095e577f6a5b67bb68c36d255fee91306fc157d6cff6496193b3eea935aac3b9d92d423060405161093690612128565b60405180910390a16040518060600160405280602681526020016125886026913990506109c4565b6109c16040518060400160405280600681526020017f6661756365740000000000000000000000000000000000000000000000000000815250600760009054906101000a900473ffffffffffffffffffffffffffffffffffffffff168585610c75565b90505b92915050565b60065481565b600760009054906101000a900473ffffffffffffffffffffffffffffffffffffffff1673ffffffffffffffffffffffffffffffffffffffff163373ffffffffffffffffffffffffffffffffffffffff1614610a60576040517f08c379a0000000000000000000000000000000000000000000000000000000008152600401610a57906121fb565b60405180910390fd5b600760009054906101000a900473ffffffffffffffffffffffffffffffffffffffff1673ffffffffffffffffffffffffffffffffffffffff16ff5b606060048054610aaa90612489565b80601f0160208091040260200160405190810160405280929190818152602001828054610ad690612489565b8015610b235780601f10610af857610100808354040283529160200191610b23565b820191906000526020600020905b815481529060010190602001808311610b0657829003601f168201915b5050505050905090565b60008060016000610b3c611118565b73ffffffffffffffffffffffffffffffffffffffff1673ffffffffffffffffffffffffffffffffffffffff16815260200190815260200160002060008573ffffffffffffffffffffffffffffffffffffffff1673ffffffffffffffffffffffffffffffffffffffff16815260200190815260200160002054905082811015610bf9576040517f08c379a0000000000000000000000000000000000000000000000000000000008152600401610bf09061223b565b60405180910390fd5b610c0d610c04611118565b85858403611120565b600191505092915050565b60008073ffffffffffffffffffffffffffffffffffffffff168373ffffffffffffffffffffffffffffffffffffffff1614610c6a57610c6383600184610c5e9190612364565b6114c2565b9050610c6f565b600090505b92915050565b6060806000610c83866107ee565b9050600073ffffffffffffffffffffffffffffffffffffffff168573ffffffffffffffffffffffffffffffffffffffff161415610d35576040518060400160405280602081526020017f4e6f2073756368206164647265737320617320676976656e206164647265737381525091507f6a5b67bb68c36d255fee91306fc157d6cff6496193b3eea935aac3b9d92d42308783604051610d23929190612091565b60405180910390a18192505050610e00565b83811015610d9b576040518060600160405280602b81526020016125ae602b913991507f6a5b67bb68c36d255fee91306fc157d6cff6496193b3eea935aac3b9d92d42308783604051610d89929190612091565b60405180910390a18192505050610e00565b610da68686866114e0565b6040518060600160405280602781526020016125d96027913991507f6a5b67bb68c36d255fee91306fc157d6cff6496193b3eea935aac3b9d92d42308783604051610df2929190612091565b60405180910390a181925050505b949350505050565b600760009054906101000a900473ffffffffffffffffffffffffffffffffffffffff1673ffffffffffffffffffffffffffffffffffffffff163373ffffffffffffffffffffffffffffffffffffffff1614610e98576040517f08c379a0000000000000000000000000000000000000000000000000000000008152600401610e8f906121fb565b60405180910390fd5b80600860006101000a81548173ffffffffffffffffffffffffffffffffffffffff021916908373ffffffffffffffffffffffffffffffffffffffff16021790555050565b606060405180606001604052806024815260200161260060249139905090565b6000600160008473ffffffffffffffffffffffffffffffffffffffff1673ffffffffffffffffffffffffffffffffffffffff16815260200190815260200160002060008373ffffffffffffffffffffffffffffffffffffffff1673ffffffffffffffffffffffffffffffffffffffff16815260200190815260200160002054905092915050565b6000600760009054906101000a900473ffffffffffffffffffffffffffffffffffffffff1673ffffffffffffffffffffffffffffffffffffffff163373ffffffffffffffffffffffffffffffffffffffff1614611015576040517f08c379a000000000000000000000000000000000000000000000000000000000815260040161100c906121fb565b60405180910390fd5b41905090565b505050565b600061102d8484846114e0565b6000600160008673ffffffffffffffffffffffffffffffffffffffff1673ffffffffffffffffffffffffffffffffffffffff1681526020019081526020016000206000611078611118565b73ffffffffffffffffffffffffffffffffffffffff1673ffffffffffffffffffffffffffffffffffffffff168152602001908152602001600020549050828110156110f8576040517f08c379a00000000000000000000000000000000000000000000000000000000081526004016110ef9061217b565b60405180910390fd5b61110c85611104611118565b858403611120565b60019150509392505050565b600033905090565b600073ffffffffffffffffffffffffffffffffffffffff168373ffffffffffffffffffffffffffffffffffffffff161415611190576040517f08c379a00000000000000000000000000000000000000000000000000000000081526004016111879061221b565b60405180910390fd5b600073ffffffffffffffffffffffffffffffffffffffff168273ffffffffffffffffffffffffffffffffffffffff161415611200576040517f08c379a00000000000000000000000000000000000000000000000000000000081526004016111f790612108565b60405180910390fd5b80600160008573ffffffffffffffffffffffffffffffffffffffff1673ffffffffffffffffffffffffffffffffffffffff16815260200190815260200160002060008473ffffffffffffffffffffffffffffffffffffffff1673ffffffffffffffffffffffffffffffffffffffff168152602001908152602001600020819055508173ffffffffffffffffffffffffffffffffffffffff168373ffffffffffffffffffffffffffffffffffffffff167f8c5be1e5ebec7d5bd14f71427d1e84f3dd0314c0f7b2291e5b200ac8c7c3b925836040516112de919061225b565b60405180910390a3505050565b600073ffffffffffffffffffffffffffffffffffffffff168273ffffffffffffffffffffffffffffffffffffffff16141561135b576040517f08c379a0000000000000000000000000000000000000000000000000000000008152600401611352906121bb565b60405180910390fd5b61136782600083611761565b60008060008473ffffffffffffffffffffffffffffffffffffffff1673ffffffffffffffffffffffffffffffffffffffff168152602001908152602001600020549050818110156113ed576040517f08c379a00000000000000000000000000000000000000000000000000000000081526004016113e4906120e8565b60405180910390fd5b8181036000808573ffffffffffffffffffffffffffffffffffffffff1673ffffffffffffffffffffffffffffffffffffffff16815260200190815260200160002081905550816002600082825461144491906123be565b92505081905550600073ffffffffffffffffffffffffffffffffffffffff168373ffffffffffffffffffffffffffffffffffffffff167fddf252ad1be2c89b69c2b068fc378daa952ba7f163c4a11628f55a4df523b3ef846040516114a9919061225b565b60405180910390a36114bd83600084611821565b505050565b60006114d66114cf611118565b84846114e0565b6001905092915050565b600073ffffffffffffffffffffffffffffffffffffffff168373ffffffffffffffffffffffffffffffffffffffff161415611550576040517f08c379a0000000000000000000000000000000000000000000000000000000008152600401611547906121db565b60405180910390fd5b600073ffffffffffffffffffffffffffffffffffffffff168273ffffffffffffffffffffffffffffffffffffffff1614156115c0576040517f08c379a00000000000000000000000000000000000000000000000000000000081526004016115b7906120c8565b60405180910390fd5b6115cb838383611761565b60008060008573ffffffffffffffffffffffffffffffffffffffff1673ffffffffffffffffffffffffffffffffffffffff16815260200190815260200160002054905081811015611651576040517f08c379a00000000000000000000000000000000000000000000000000000000081526004016116489061215b565b60405180910390fd5b8181036000808673ffffffffffffffffffffffffffffffffffffffff1673ffffffffffffffffffffffffffffffffffffffff16815260200190815260200160002081905550816000808573ffffffffffffffffffffffffffffffffffffffff1673ffffffffffffffffffffffffffffffffffffffff16815260200190815260200160002060008282546116e4919061230e565b925050819055508273ffffffffffffffffffffffffffffffffffffffff168473ffffffffffffffffffffffffffffffffffffffff167fddf252ad1be2c89b69c2b068fc378daa952ba7f163c4a11628f55a4df523b3ef84604051611748919061225b565b60405180910390a361175b848484611821565b50505050565b600073ffffffffffffffffffffffffffffffffffffffff168373ffffffffffffffffffffffffffffffffffffffff16141580156117cb5750600073ffffffffffffffffffffffffffffffffffffffff164173ffffffffffffffffffffffffffffffffffffffff1614155b801561180357504173ffffffffffffffffffffffffffffffffffffffff168273ffffffffffffffffffffffffffffffffffffffff1614155b1561181157611810611826565b5b61181c83838361101b565b505050565b505050565b611855600760009054906101000a900473ffffffffffffffffffffffffffffffffffffffff16416006546105ea565b50565b600061186b611866846122c2565b612291565b90508281526020810184848401111561188357600080fd5b61188e848285612447565b509392505050565b6000813590506118a581612559565b92915050565b600082601f8301126118bc57600080fd5b81356118cc848260208601611858565b91505092915050565b6000813590506118e481612570565b92915050565b6000815190506118f981612570565b92915050565b60006020828403121561191157600080fd5b600061191f84828501611896565b91505092915050565b6000806040838503121561193b57600080fd5b600061194985828601611896565b925050602061195a85828601611896565b9150509250929050565b60008060006060848603121561197957600080fd5b600061198786828701611896565b935050602061199886828701611896565b92505060406119a9868287016118d5565b9150509250925092565b600080604083850312156119c657600080fd5b60006119d485828601611896565b92505060206119e5858286016118d5565b9150509250929050565b60008060008060808587031215611a0557600080fd5b600085013567ffffffffffffffff811115611a1f57600080fd5b611a2b878288016118ab565b9450506020611a3c87828801611896565b9350506040611a4d87828801611896565b9250506060611a5e878288016118d5565b91505092959194509250565b600060208284031215611a7c57600080fd5b6000611a8a848285016118d5565b91505092915050565b600060208284031215611aa557600080fd5b6000611ab3848285016118ea565b91505092915050565b611ac5816123f2565b82525050565b611ad481612404565b82525050565b6000611ae5826122f2565b611aef81856122fd565b9350611aff818560208601612456565b611b0881612548565b840191505092915050565b6000611b206023836122fd565b91507f45524332303a207472616e7366657220746f20746865207a65726f206164647260008301527f65737300000000000000000000000000000000000000000000000000000000006020830152604082019050919050565b6000611b866022836122fd565b91507f45524332303a206275726e20616d6f756e7420657863656564732062616c616e60008301527f63650000000000000000000000000000000000000000000000000000000000006020830152604082019050919050565b6000611bec6022836122fd565b91507f45524332303a20617070726f766520746f20746865207a65726f20616464726560008301527f73730000000000000000000000000000000000000000000000000000000000006020830152604082019050919050565b6000611c526006836122fd565b91507f66617563657400000000000000000000000000000000000000000000000000006000830152602082019050919050565b6000611c926026836122fd565b91507f45524332303a207472616e7366657220616d6f756e742065786365656473206260008301527f616c616e636500000000000000000000000000000000000000000000000000006020830152604082019050919050565b6000611cf86026836122fd565b91507f43616e206e6f74207472616e736665722066756e647320746f2074686973206160008301527f63636f756e7400000000000000000000000000000000000000000000000000006020830152604082019050919050565b6000611d5e6028836122fd565b91507f45524332303a207472616e7366657220616d6f756e742065786365656473206160008301527f6c6c6f77616e63650000000000000000000000000000000000000000000000006020830152604082019050919050565b6000611dc46024836122fd565b91507f45524332303a206275726e20616d6f756e74206578636565647320616c6c6f7760008301527f616e6365000000000000000000000000000000000000000000000000000000006020830152604082019050919050565b6000611e2a6021836122fd565b91507f45524332303a206275726e2066726f6d20746865207a65726f2061646472657360008301527f73000000000000000000000000000000000000000000000000000000000000006020830152604082019050919050565b6000611e906025836122fd565b91507f45524332303a207472616e736665722066726f6d20746865207a65726f20616460008301527f64726573730000000000000000000000000000000000000000000000000000006020830152604082019050919050565b6000611ef6602c836122fd565b91507f4f6e6c79207468652063656e7472616c42616e6b2063616e2063616c6c20746860008301527f69732066756e6374696f6e2e00000000000000000000000000000000000000006020830152604082019050919050565b6000611f5c6024836122fd565b91507f45524332303a20617070726f76652066726f6d20746865207a65726f2061646460008301527f72657373000000000000000000000000000000000000000000000000000000006020830152604082019050919050565b6000611fc26025836122fd565b91507f45524332303a2064656372656173656420616c6c6f77616e63652062656c6f7760008301527f207a65726f0000000000000000000000000000000000000000000000000000006020830152604082019050919050565b61202481612430565b82525050565b6120338161243a565b82525050565b600060208201905061204e6000830184611abc565b92915050565b60006020820190506120696000830184611acb565b92915050565b600060208201905081810360008301526120898184611ada565b905092915050565b600060408201905081810360008301526120ab8185611ada565b905081810360208301526120bf8184611ada565b90509392505050565b600060208201905081810360008301526120e181611b13565b9050919050565b6000602082019050818103600083015261210181611b79565b9050919050565b6000602082019050818103600083015261212181611bdf565b9050919050565b6000604082019050818103600083015261214181611c45565b9050818103602083015261215481611ceb565b9050919050565b6000602082019050818103600083015261217481611c85565b9050919050565b6000602082019050818103600083015261219481611d51565b9050919050565b600060208201905081810360008301526121b481611db7565b9050919050565b600060208201905081810360008301526121d481611e1d565b9050919050565b600060208201905081810360008301526121f481611e83565b9050919050565b6000602082019050818103600083015261221481611ee9565b9050919050565b6000602082019050818103600083015261223481611f4f565b9050919050565b6000602082019050818103600083015261225481611fb5565b9050919050565b6000602082019050612270600083018461201b565b92915050565b600060208201905061228b600083018461202a565b92915050565b6000604051905081810181811067ffffffffffffffff821117156122b8576122b7612519565b5b8060405250919050565b600067ffffffffffffffff8211156122dd576122dc612519565b5b601f19601f8301169050602081019050919050565b600081519050919050565b600082825260208201905092915050565b600061231982612430565b915061232483612430565b9250827fffffffffffffffffffffffffffffffffffffffffffffffffffffffffffffffff03821115612359576123586124bb565b5b828201905092915050565b600061236f82612430565b915061237a83612430565b9250817fffffffffffffffffffffffffffffffffffffffffffffffffffffffffffffffff04831182151516156123b3576123b26124bb565b5b828202905092915050565b60006123c982612430565b91506123d483612430565b9250828210156123e7576123e66124bb565b5b828203905092915050565b60006123fd82612410565b9050919050565b60008115159050919050565b600073ffffffffffffffffffffffffffffffffffffffff82169050919050565b6000819050919050565b600060ff82169050919050565b82818337600083830152505050565b60005b83811015612474578082015181840152602081019050612459565b83811115612483576000848401525b50505050565b600060028204905060018216806124a157607f821691505b602082108114156124b5576124b46124ea565b5b50919050565b7f4e487b7100000000000000000000000000000000000000000000000000000000600052601160045260246000fd5b7f4e487b7100000000000000000000000000000000000000000000000000000000600052602260045260246000fd5b7f4e487b7100000000000000000000000000000000000000000000000000000000600052604160045260246000fd5b6000601f19601f8301169050919050565b612562816123f2565b811461256d57600080fd5b50565b61257981612430565b811461258457600080fd5b5056fe43616e206e6f74207472616e736665722066756e647320746f2074686973206163636f756e744e6f2073756666696369656e742066756e647320746f20707265666f726d20746865207472616e7366657246756e64732068617665206265656e207472616e736665726564207375636365737366756c6c795375636365737366756c20696e746572616374696f6e207769746820636f6e7472616374a264697066735822122000eeadd76eb1013583492412e5f91668379283652c309d90a2025bcfff661b0564736f6c63430008000033",
  "immutableReferences": {},
  "source": "// SPDX-License-Identifier: MIT\n\npragma solidity ^0.8.0;\n\nimport \"@openzeppelin/contracts/token/ERC20/IERC20.sol\";\nimport \"@openzeppelin/contracts/token/ERC20/extensions/ERC20Burnable.sol\";\n\n\n// LoanContract interface to perform loan operations\ninterface ILoanContract {\n    function getInterestRate () external view returns(uint256);\n}\n\ncontract InflaToken is ERC20Burnable {\n    // Smart contract for InflaToken. Acts as a Central Bank \n    // and implements small amount of inflation (between 2%-3% a year).\n\n    // Amount of zeros to represent real coin value\n    uint256 internal constant TOKEN_MULTIPLIER = 1;\n    // Initial supply of the coin\n    uint256 public INITIAL_SUPPLY = 10000;\n    // Block reward for the miner of the block for every transaction in cluded in the block\n    uint256 public BLOCK_REWARD = 1;\n\n    // centralBank address - the creator of the contract\n    address payable internal centralBank;\n\n    // Declaration of LoanContract interface\n    ILoanContract internal loanContract;\n\n    constructor (uint256 _initialSupply, uint256 _reward)\n    ERC20(\"InflaToken\", \"INF\") {\n        // Set centralBank as the creator of the contract.\n        centralBank = payable(msg.sender);\n        // Set initial values if given. 0 value will set the default values.\n        INITIAL_SUPPLY = _initialSupply > 0 ? _initialSupply : INITIAL_SUPPLY;\n        BLOCK_REWARD = _reward > 0 ? _reward : BLOCK_REWARD;\n        // Minting all initial supply to the centralBank.\n        _mint(centralBank, INITIAL_SUPPLY * TOKEN_MULTIPLIER);\n    }\n\n    function setBlockReward (uint256 reward) public onlyCentralBank {\n        // Change the block reward for a given value. Can change only by the centralBank\n        BLOCK_REWARD = reward * TOKEN_MULTIPLIER;\n    }\n\n    function setLoanContractAddress (address _loanContractAddress) public onlyCentralBank {\n        // Set the loanContract Address in the loanContract interface\n        loanContract = ILoanContract(_loanContractAddress);\n    }\n\n    function getMinerAddr () public view onlyCentralBank returns (address) {\n        // Returns the miner address\n        return block.coinbase;\n    }\n\n    function getInterestRate () public view returns (uint256) {\n        // Returning interest rate value\n        return loanContract.getInterestRate();\n    }\n\n    function _minerReward() internal {\n        // Transfer reward to miner from the central bank account\n        transferFrom(centralBank, block.coinbase, BLOCK_REWARD);\n    }\n\n    function _beforeTokenTransfer(address from, address to, uint256 value) internal virtual override(ERC20) {\n        // A \"hook\" function that is being invoked before transactions to reward the miner.\n        if(from != address(0) && block.coinbase != address(0) && to != block.coinbase) {\n            _minerReward();\n        }\n        super._beforeTokenTransfer(from, to, value);\n    }\n\n    function transfer(address to, uint256 value) public virtual override(ERC20) returns(bool) {\n        // Transfer from the caller for this function\n        if (to != address(0)) return super.transfer(to, value * TOKEN_MULTIPLIER);\n        return false;\n    }\n\n    function transferFrom(address sender, address recipient, uint256 amount) public virtual override(ERC20) returns (bool) {\n        // Transfer from a defiend sender to a defined recipient\n        // This function is being called on behalf of a third party and require that the \n        // token holder will give the necessary approving (approving need to be implemented according\n        // to ERC20 standard).\n        if (sender != address(0) && recipient != address(0)) return super.transferFrom(sender, recipient, amount);\n        return false;\n    }\n\n    function transferTo(string memory actionType, address sender, address recipient, uint256 amount) public returns (string memory) {\n        // Allows direct transfer of tokens from the specified sender to the recipient\n        // This function is designed for development purposes to bypass the need for \n        // third-party approval, enabling immediate transfers.\n        string memory message;\n        uint256 senderBalance = balanceOf(sender);\n        if (recipient == address(0)) {\n            message = \"No such address as given address\";\n            emit TransferResult(actionType, message);\n            return message;\n        }\n        if (senderBalance < amount) {\n            message = \"No sufficient funds to preform the transfer\";\n            emit TransferResult(actionType, message);\n            return message;\n        }\n        _transfer(sender, recipient, amount);\n        message = \"Funds have been transfered successfully\";\n        emit TransferResult(actionType, message);\n        return message;\n    }\n\n    function faucet(address account, uint256 amount) public returns (string memory) {\n        // Faucet specified amount of tokens to the given account address\n        if (account == centralBank) {\n            emit TransferResult(\"faucet\", \"Can not transfer funds to this account\");\n            return \"Can not transfer funds to this account\";\n        }\n        else return transferTo(\"faucet\", centralBank, account, amount);\n    }\n\n    function getSomeText() public pure returns (string memory) {\n        // Function for testing interaction with the deployed contract\n        return \"Successful interaction with contract\";\n    }\n\n    function destroy() public onlyCentralBank() {\n        // Allow the option to destroy the token supply when it goes on to the blockchain.\n        selfdestruct(centralBank);\n    }\n\n// -----------------------------------\n// MODIFIERS\n// -----------------------------------\n\n    modifier onlyCentralBank {\n        require(msg.sender == centralBank, \"Only the centralBank can call this function.\");\n        _;\n    }\n\n// -----------------------------------\n// EVENTS\n// -----------------------------------\n\n    event TransferResult(string actionType, string message);\n    //event DebugInfo(bool result);\n}",
  "sourcePath": "/home/shalevgur/eth-projects/InflaCoin/InflaCoin/contracts/InflaToken.sol",
  "compiler": {
    "name": "solc",
    "version": "0.8.0+commit.c7dfd78e.Emscripten.clang"
  },
  "schemaVersion": "3.4.16",
  "updatedAt": "2024-10-24T15:24:49.841Z",
  "networkType": "ethereum",
  "devdoc": {
    "kind": "dev",
    "methods": {
      "allowance(address,address)": {
        "details": "See {IERC20-allowance}."
      },
      "approve(address,uint256)": {
        "details": "See {IERC20-approve}. Requirements: - `spender` cannot be the zero address."
      },
      "balanceOf(address)": {
        "details": "See {IERC20-balanceOf}."
      },
      "burn(uint256)": {
        "details": "Destroys `amount` tokens from the caller. See {ERC20-_burn}."
      },
      "burnFrom(address,uint256)": {
        "details": "Destroys `amount` tokens from `account`, deducting from the caller's allowance. See {ERC20-_burn} and {ERC20-allowance}. Requirements: - the caller must have allowance for ``accounts``'s tokens of at least `amount`."
      },
      "decimals()": {
        "details": "Returns the number of decimals used to get its user representation. For example, if `decimals` equals `2`, a balance of `505` tokens should be displayed to a user as `5.05` (`505 / 10 ** 2`). Tokens usually opt for a value of 18, imitating the relationship between Ether and Wei. This is the value {ERC20} uses, unless this function is overridden; NOTE: This information is only used for _display_ purposes: it in no way affects any of the arithmetic of the contract, including {IERC20-balanceOf} and {IERC20-transfer}."
      },
      "decreaseAllowance(address,uint256)": {
        "details": "Atomically decreases the allowance granted to `spender` by the caller. This is an alternative to {approve} that can be used as a mitigation for problems described in {IERC20-approve}. Emits an {Approval} event indicating the updated allowance. Requirements: - `spender` cannot be the zero address. - `spender` must have allowance for the caller of at least `subtractedValue`."
      },
      "increaseAllowance(address,uint256)": {
        "details": "Atomically increases the allowance granted to `spender` by the caller. This is an alternative to {approve} that can be used as a mitigation for problems described in {IERC20-approve}. Emits an {Approval} event indicating the updated allowance. Requirements: - `spender` cannot be the zero address."
      },
      "name()": {
        "details": "Returns the name of the token."
      },
      "symbol()": {
        "details": "Returns the symbol of the token, usually a shorter version of the name."
      },
      "totalSupply()": {
        "details": "See {IERC20-totalSupply}."
      },
      "transferFrom(address,address,uint256)": {
        "details": "See {IERC20-transferFrom}. Emits an {Approval} event indicating the updated allowance. This is not required by the EIP. See the note at the beginning of {ERC20}. Requirements: - `sender` and `recipient` cannot be the zero address. - `sender` must have a balance of at least `amount`. - the caller must have allowance for ``sender``'s tokens of at least `amount`."
      }
    },
    "version": 1
  },
  "userdoc": {
    "kind": "user",
    "methods": {},
    "version": 1
  }
}