{
  "contractName": "LoanContract",
  "abi": [
    {
      "inputs": [
        {
          "internalType": "address",
          "name": "_inflaTokenAddress",
          "type": "address"
        }
      ],
      "stateMutability": "nonpayable",
      "type": "constructor"
    },
    {
      "anonymous": false,
      "inputs": [
        {
          "indexed": false,
          "internalType": "string",
          "name": "message",
          "type": "string"
        }
      ],
      "name": "DebugBorrow",
      "type": "event"
    },
    {
      "inputs": [],
      "name": "contractOwner",
      "outputs": [
        {
          "internalType": "address payable",
          "name": "",
          "type": "address"
        }
      ],
      "stateMutability": "view",
      "type": "function",
      "constant": true
    },
    {
      "inputs": [],
      "name": "inflaToken",
      "outputs": [
        {
          "internalType": "contract IInflaToken",
          "name": "",
          "type": "address"
        }
      ],
      "stateMutability": "view",
      "type": "function",
      "constant": true
    },
    {
      "inputs": [],
      "name": "inflaTokenAddress",
      "outputs": [
        {
          "internalType": "address payable",
          "name": "",
          "type": "address"
        }
      ],
      "stateMutability": "view",
      "type": "function",
      "constant": true
    },
    {
      "inputs": [],
      "name": "loanCounter",
      "outputs": [
        {
          "internalType": "uint256",
          "name": "",
          "type": "uint256"
        }
      ],
      "stateMutability": "view",
      "type": "function",
      "constant": true
    },
    {
      "inputs": [
        {
          "internalType": "uint256",
          "name": "",
          "type": "uint256"
        }
      ],
      "name": "loans",
      "outputs": [
        {
          "internalType": "address",
          "name": "borrowerAddress",
          "type": "address"
        },
        {
          "internalType": "uint256",
          "name": "borrowedAmount",
          "type": "uint256"
        },
        {
          "internalType": "uint256",
          "name": "interest",
          "type": "uint256"
        },
        {
          "internalType": "uint256",
          "name": "lDueDate",
          "type": "uint256"
        },
        {
          "internalType": "bool",
          "name": "isRepaid",
          "type": "bool"
        }
      ],
      "stateMutability": "view",
      "type": "function",
      "constant": true
    },
    {
      "inputs": [
        {
          "internalType": "uint256",
          "name": "precentage",
          "type": "uint256"
        }
      ],
      "name": "setInterestRate",
      "outputs": [],
      "stateMutability": "nonpayable",
      "type": "function"
    },
    {
      "inputs": [],
      "name": "getInterestRate",
      "outputs": [
        {
          "internalType": "uint256",
          "name": "",
          "type": "uint256"
        }
      ],
      "stateMutability": "view",
      "type": "function",
      "constant": true
    },
    {
      "inputs": [
        {
          "internalType": "address",
          "name": "borrower",
          "type": "address"
        },
        {
          "internalType": "uint256",
          "name": "amount",
          "type": "uint256"
        },
        {
          "internalType": "uint256",
          "name": "duration",
          "type": "uint256"
        }
      ],
      "name": "borrow",
      "outputs": [
        {
          "internalType": "uint256",
          "name": "loanId",
          "type": "uint256"
        },
        {
          "internalType": "uint256",
          "name": "repayAmount",
          "type": "uint256"
        },
        {
          "internalType": "uint256",
          "name": "dueDate",
          "type": "uint256"
        },
        {
          "internalType": "string",
          "name": "",
          "type": "string"
        }
      ],
      "stateMutability": "nonpayable",
      "type": "function"
    },
    {
      "inputs": [
        {
          "internalType": "uint256",
          "name": "loanId",
          "type": "uint256"
        }
      ],
      "name": "repay",
      "outputs": [],
      "stateMutability": "nonpayable",
      "type": "function"
    },
    {
      "inputs": [
        {
          "internalType": "uint256",
          "name": "loanId",
          "type": "uint256"
        }
      ],
      "name": "isLoanOverdue",
      "outputs": [
        {
          "internalType": "bool",
          "name": "",
          "type": "bool"
        }
      ],
      "stateMutability": "view",
      "type": "function",
      "constant": true
    },
    {
      "inputs": [
        {
          "internalType": "uint256",
          "name": "loanId",
          "type": "uint256"
        }
      ],
      "name": "isLoanRepaid",
      "outputs": [
        {
          "internalType": "bool",
          "name": "",
          "type": "bool"
        }
      ],
      "stateMutability": "view",
      "type": "function",
      "constant": true
    }
  ],
  "bytecode": "0x6080604052600560035560016005553480156200001b57600080fd5b50604051620014ed380380620014ed833981810160405281019062000041919062000121565b806000806101000a81548173ffffffffffffffffffffffffffffffffffffffff021916908373ffffffffffffffffffffffffffffffffffffffff16021790555080600160006101000a81548173ffffffffffffffffffffffffffffffffffffffff021916908373ffffffffffffffffffffffffffffffffffffffff16021790555033600260006101000a81548173ffffffffffffffffffffffffffffffffffffffff021916908373ffffffffffffffffffffffffffffffffffffffff160217905550506200019b565b6000815190506200011b8162000181565b92915050565b6000602082840312156200013457600080fd5b600062000144848285016200010a565b91505092915050565b60006200015a8262000161565b9050919050565b600073ffffffffffffffffffffffffffffffffffffffff82169050919050565b6200018c816200014d565b81146200019857600080fd5b50565b61134280620001ab6000396000f3fe608060405234801561001057600080fd5b50600436106100a95760003560e01c80637030090b116100715780637030090b146101525780639026d91114610170578063c1bce0b7146101a0578063ce606ee0146101d3578063d5787b6d146101f1578063e1ec3c681461020f576100a9565b806334d9289e146100ae578063371fd8e6146100cc5780633b498602146100e85780635257b566146101185780635f84f30214610136575b600080fd5b6100b6610243565b6040516100c39190610ef3565b60405180910390f35b6100e660048036038101906100e19190610af5565b610249565b005b61010260048036038101906100fd9190610af5565b6104dd565b60405161010f9190610dc9565b60405180910390f35b61012061051f565b60405161012d9190610ef3565b60405180910390f35b610150600480360381019061014b9190610af5565b610529565b005b61015a6105c3565b6040516101679190610de4565b60405180910390f35b61018a60048036038101906101859190610af5565b6105e7565b6040516101979190610dc9565b60405180910390f35b6101ba60048036038101906101b59190610a65565b610619565b6040516101ca9493929190610f0e565b60405180910390f35b6101db61090f565b6040516101e89190610d5b565b60405180910390f35b6101f9610935565b6040516102069190610d5b565b60405180910390f35b61022960048036038101906102249190610af5565b61095b565b60405161023a959493929190610d76565b60405180910390f35b60055481565b600160009054906101000a900473ffffffffffffffffffffffffffffffffffffffff1673ffffffffffffffffffffffffffffffffffffffff163373ffffffffffffffffffffffffffffffffffffffff16146102d9576040517f08c379a00000000000000000000000000000000000000000000000000000000081526004016102d090610e89565b60405180910390fd5b6000600460008381526020019081526020016000209050600015158160040160009054906101000a900460ff16151514610348576040517f08c379a000000000000000000000000000000000000000000000000000000000815260040161033f90610e49565b60405180910390fd5b806003015442101561038f576040517f08c379a000000000000000000000000000000000000000000000000000000000815260040161038690610e69565b60405180910390fd5b6000606460035483600101546103a5919061105e565b6103af919061102d565b82600101546103be9190610fd7565b905060008054906101000a900473ffffffffffffffffffffffffffffffffffffffff1673ffffffffffffffffffffffffffffffffffffffff1663af0563ec8360000160009054906101000a900473ffffffffffffffffffffffffffffffffffffffff16600260009054906101000a900473ffffffffffffffffffffffffffffffffffffffff16846040518463ffffffff1660e01b815260040161046393929190610ea9565b600060405180830381600087803b15801561047d57600080fd5b505af1158015610491573d6000803e3d6000fd5b505050506040513d6000823e3d601f19601f820116820180604052508101906104ba9190610ab4565b5060018260040160006101000a81548160ff021916908315150217905550505050565b60008060046000848152602001908152602001600020905080600301544211801561051757508060040160009054906101000a900460ff16155b915050919050565b6000600354905090565b600160009054906101000a900473ffffffffffffffffffffffffffffffffffffffff1673ffffffffffffffffffffffffffffffffffffffff163373ffffffffffffffffffffffffffffffffffffffff16146105b9576040517f08c379a00000000000000000000000000000000000000000000000000000000081526004016105b090610e89565b60405180910390fd5b8060038190555050565b60008054906101000a900473ffffffffffffffffffffffffffffffffffffffff1681565b6000806004600084815260200190815260200160002090508060040160009054906101000a900460ff16915050919050565b600080600060608560008054906101000a900473ffffffffffffffffffffffffffffffffffffffff1673ffffffffffffffffffffffffffffffffffffffff166370a08231600260009054906101000a900473ffffffffffffffffffffffffffffffffffffffff166040518263ffffffff1660e01b815260040161069c9190610d40565b60206040518083038186803b1580156106b457600080fd5b505afa1580156106c8573d6000803e3d6000fd5b505050506040513d601f19601f820116820180604052508101906106ec9190610b1e565b101561071d5760008060006040518060600160405280602381526020016112b5602391399350935093509350610906565b6000854261072b9190610fd7565b905060006004600060055481526020019081526020016000209050888160000160006101000a81548173ffffffffffffffffffffffffffffffffffffffff021916908373ffffffffffffffffffffffffffffffffffffffff16021790555060058160010181905550600354816002018190555081816003018190555060008160040160006101000a81548160ff02191690831515021790555060006005549050600560008154809291906107de9061119f565b919050555060008054906101000a900473ffffffffffffffffffffffffffffffffffffffff1673ffffffffffffffffffffffffffffffffffffffff1663af0563ec600260009054906101000a900473ffffffffffffffffffffffffffffffffffffffff168c8c6040518463ffffffff1660e01b815260040161086293929190610dff565b600060405180830381600087803b15801561087c57600080fd5b505af1158015610890573d6000803e3d6000fd5b505050506040513d6000823e3d601f19601f820116820180604052508101906108b99190610ab4565b508060646003548b6108cb919061105e565b6108d5919061102d565b8a6108e09190610fd7565b846040518060600160405280603581526020016112d86035913996509650965096505050505b93509350935093565b600260009054906101000a900473ffffffffffffffffffffffffffffffffffffffff1681565b600160009054906101000a900473ffffffffffffffffffffffffffffffffffffffff1681565b60046020528060005260406000206000915090508060000160009054906101000a900473ffffffffffffffffffffffffffffffffffffffff16908060010154908060020154908060030154908060040160009054906101000a900460ff16905085565b60006109d16109cc84610f8b565b610f5a565b9050828152602081018484840111156109e957600080fd5b6109f484828561116c565b509392505050565b600081359050610a0b81611286565b92915050565b600082601f830112610a2257600080fd5b8151610a328482602086016109be565b91505092915050565b600081359050610a4a8161129d565b92915050565b600081519050610a5f8161129d565b92915050565b600080600060608486031215610a7a57600080fd5b6000610a88868287016109fc565b9350506020610a9986828701610a3b565b9250506040610aaa86828701610a3b565b9150509250925092565b600060208284031215610ac657600080fd5b600082015167ffffffffffffffff811115610ae057600080fd5b610aec84828501610a11565b91505092915050565b600060208284031215610b0757600080fd5b6000610b1584828501610a3b565b91505092915050565b600060208284031215610b3057600080fd5b6000610b3e84828501610a50565b91505092915050565b610b5081611112565b82525050565b610b5f816110ca565b82525050565b610b6e816110b8565b82525050565b610b7d816110dc565b82525050565b610b8c81611124565b82525050565b6000610b9d82610fbb565b610ba78185610fc6565b9350610bb781856020860161116c565b610bc081611275565b840191505092915050565b6000610bd8600683610fc6565b91507f626f72726f7700000000000000000000000000000000000000000000000000006000830152602082019050919050565b6000610c18601383610fc6565b91507f4c6f616e20616c726561647920726570616964000000000000000000000000006000830152602082019050919050565b6000610c58601383610fc6565b91507f4c6f616e206973206e6f74206f766572647565000000000000000000000000006000830152602082019050919050565b6000610c98602c83610fc6565b91507f4f6e6c79207468652063656e7472616c42616e6b2063616e2063616c6c20746860008301527f69732066756e6374696f6e2e00000000000000000000000000000000000000006020830152604082019050919050565b6000610cfe600583610fc6565b91507f72657061790000000000000000000000000000000000000000000000000000006000830152602082019050919050565b610d3a81611108565b82525050565b6000602082019050610d556000830184610b47565b92915050565b6000602082019050610d706000830184610b56565b92915050565b600060a082019050610d8b6000830188610b65565b610d986020830187610d31565b610da56040830186610d31565b610db26060830185610d31565b610dbf6080830184610b74565b9695505050505050565b6000602082019050610dde6000830184610b74565b92915050565b6000602082019050610df96000830184610b83565b92915050565b60006080820190508181036000830152610e1881610bcb565b9050610e276020830186610b47565b610e346040830185610b65565b610e416060830184610d31565b949350505050565b60006020820190508181036000830152610e6281610c0b565b9050919050565b60006020820190508181036000830152610e8281610c4b565b9050919050565b60006020820190508181036000830152610ea281610c8b565b9050919050565b60006080820190508181036000830152610ec281610cf1565b9050610ed16020830186610b65565b610ede6040830185610b47565b610eeb6060830184610d31565b949350505050565b6000602082019050610f086000830184610d31565b92915050565b6000608082019050610f236000830187610d31565b610f306020830186610d31565b610f3d6040830185610d31565b8181036060830152610f4f8184610b92565b905095945050505050565b6000604051905081810181811067ffffffffffffffff82111715610f8157610f80611246565b5b8060405250919050565b600067ffffffffffffffff821115610fa657610fa5611246565b5b601f19601f8301169050602081019050919050565b600081519050919050565b600082825260208201905092915050565b6000610fe282611108565b9150610fed83611108565b9250827fffffffffffffffffffffffffffffffffffffffffffffffffffffffffffffffff03821115611022576110216111e8565b5b828201905092915050565b600061103882611108565b915061104383611108565b92508261105357611052611217565b5b828204905092915050565b600061106982611108565b915061107483611108565b9250817fffffffffffffffffffffffffffffffffffffffffffffffffffffffffffffffff04831182151516156110ad576110ac6111e8565b5b828202905092915050565b60006110c3826110e8565b9050919050565b60006110d5826110e8565b9050919050565b60008115159050919050565b600073ffffffffffffffffffffffffffffffffffffffff82169050919050565b6000819050919050565b600061111d82611148565b9050919050565b600061112f82611136565b9050919050565b6000611141826110e8565b9050919050565b60006111538261115a565b9050919050565b6000611165826110e8565b9050919050565b60005b8381101561118a57808201518184015260208101905061116f565b83811115611199576000848401525b50505050565b60006111aa82611108565b91507fffffffffffffffffffffffffffffffffffffffffffffffffffffffffffffffff8214156111dd576111dc6111e8565b5b600182019050919050565b7f4e487b7100000000000000000000000000000000000000000000000000000000600052601160045260246000fd5b7f4e487b7100000000000000000000000000000000000000000000000000000000600052601260045260246000fd5b7f4e487b7100000000000000000000000000000000000000000000000000000000600052604160045260246000fd5b6000601f19601f8301169050919050565b61128f816110b8565b811461129a57600080fd5b50565b6112a681611108565b81146112b157600080fd5b5056fe496e73756666696369656e7420636f6e747261637420746f6b656e2062616c616e6365546865206c6f616e20686173206265656e20617070726f76656420616e642070726f636573736564207375636365737366756c6c79a2646970667358221220ccd7f9a98b5a4730f4e9d4fade597c16b0fb48bf81115756555db64e79a2d3b164736f6c63430008000033",
  "immutableReferences": {},
  "source": "// SPDX-License-Identifier: MIT\n\npragma solidity ^0.8.0;\n\n// import \"@openzeppelin/contracts/token/ERC20/ERC20.sol\";\nimport \"@openzeppelin/contracts/access/Ownable.sol\";\nimport \"./InflaToken.sol\";\n\n// InflaToken interface to interact with the InflaToken contract\ninterface IInflaToken {\n    function balanceOf(address account) external view returns (uint256);\n    function transferTo(string memory actionType, address sender, address recipient, uint256 amount) external returns (string memory);\n}\n\ncontract LoanContract {\n\n    // Holds the inflaToken contract interface.\n    // Holds relevant methods and information,\n    // and the central bank.\n    IInflaToken public inflaToken;\n\n    // InflaToken address as central bank\n    address payable public inflaTokenAddress;\n\n    // Should be the central bank address\n    address payable public contractOwner;\n\n    // Interest rate precentage (TODO: be multiplied by TOKEN_MULTIPLIER for adjusted decimal precision)\n    uint256 internal INTEREST_RATE = 5;\n\n    // Include all the Loan necessary info\n    struct Loan {\n        address borrowerAddress;\n        uint256 borrowedAmount;\n        uint256 interest;\n        uint256 lDueDate;\n        bool isRepaid;\n    }\n\n    // Create a key:value map of loans\n    mapping(uint256 => Loan) public loans;\n    // Counter and id tracker for the loan map. Loan Id 0 represents an error.\n    uint256 public loanCounter = 1;\n\n    constructor (address _inflaTokenAddress) {\n        // LoanContract initialized with InflaToken\n        inflaToken = IInflaToken(_inflaTokenAddress);\n        inflaTokenAddress = payable(_inflaTokenAddress);\n        contractOwner = payable(msg.sender);\n    }\n\n    function setInterestRate (uint256 precentage) public onlyCentralBank {\n        // Enabling change of interest rate by the central bank.\n        INTEREST_RATE = precentage;\n    }\n\n    function getInterestRate () public view returns(uint256) {\n        // Returning interest rate value\n        return INTEREST_RATE;\n    }\n\n    function borrow(address borrower, uint256 amount, uint256 duration) public returns (uint256 loanId, uint256 repayAmount, uint256 dueDate, string memory) {\n        // Borrow InflaToken function, setting a due date\n\n        // Initial balance check. Loan Id 0 represents error.\n        if(inflaToken.balanceOf(contractOwner) < amount) return (0, 0, 0, \"Insufficient contract token balance\");\n\n        uint256 resDueDate = block.timestamp + duration;\n\n        // Saving loan information to storage\n        Loan storage l = loans[loanCounter];\n        l.borrowerAddress = borrower;\n        l.borrowedAmount = 5;\n        l.interest = INTEREST_RATE;\n        l.lDueDate = resDueDate;\n        l.isRepaid = false;\n\n        uint256 returnId = loanCounter;\n        loanCounter++;\n\n        // Transfer tokens from the contract to the borrower\n        inflaToken.transferTo('borrow', contractOwner, borrower, amount);\n        // Return loan id and relevant information\n        return (returnId, amount + ((amount * INTEREST_RATE) / 100), resDueDate, \"The loan has been approved and processed successfully\");\n    }\n\n    // Repay function to repay borrowed tokens\n    function repay(uint256 loanId) public onlyCentralBank {\n        Loan storage loan = loans[loanId];\n        require(loan.isRepaid == false, \"Loan already repaid\");\n        require(block.timestamp >= loan.lDueDate, \"Loan is not overdue\");\n\n        // Calculate repay amount with interest\n        uint256 repayAmount = loan.borrowedAmount + ((loan.borrowedAmount * INTEREST_RATE) / 100);\n\n        // Transfer tokens back to the contract\n        inflaToken.transferTo('repay', loan.borrowerAddress, contractOwner, repayAmount);\n        loan.isRepaid = true;\n    }\n\n    function isLoanOverdue(uint256 loanId) public view returns (bool) {\n        // Check if loan is overdue\n        Loan storage loan = loans[loanId];\n        return block.timestamp > loan.lDueDate && !loan.isRepaid;\n    }\n\n    function isLoanRepaid(uint256 loanId) public view returns (bool) {\n        // Check if loan is repaid\n        Loan storage loan = loans[loanId];\n        return loan.isRepaid;\n    }\n\n\n// -----------------------------------\n// MODIFIERS\n// -----------------------------------\n\n    modifier onlyCentralBank {\n        require(msg.sender == inflaTokenAddress, \"Only the centralBank can call this function.\");\n        _;\n    }\n\n    event DebugBorrow(string message);\n\n}\n",
  "sourcePath": "/home/shalevgur/eth-projects/InflaCoin/InflaCoin/contracts/LoanContract.sol",
  "compiler": {
    "name": "solc",
    "version": "0.8.0+commit.c7dfd78e.Emscripten.clang"
  },
  "schemaVersion": "3.4.16",
  "updatedAt": "2024-10-25T19:19:43.402Z",
  "networkType": "ethereum",
  "devdoc": {
    "kind": "dev",
    "methods": {},
    "version": 1
  },
  "userdoc": {
    "kind": "user",
    "methods": {},
    "version": 1
  }
}