{
  "contractName": "LoanContract",
  "abi": [
    {
      "inputs": [
        {
          "internalType": "address",
          "name": "_inflaTokenAddress",
          "type": "address"
        }
      ],
      "stateMutability": "nonpayable",
      "type": "constructor"
    },
    {
      "anonymous": false,
      "inputs": [
        {
          "indexed": true,
          "internalType": "address",
          "name": "previousOwner",
          "type": "address"
        },
        {
          "indexed": true,
          "internalType": "address",
          "name": "newOwner",
          "type": "address"
        }
      ],
      "name": "OwnershipTransferred",
      "type": "event"
    },
    {
      "inputs": [],
      "name": "contractOwner",
      "outputs": [
        {
          "internalType": "address payable",
          "name": "",
          "type": "address"
        }
      ],
      "stateMutability": "view",
      "type": "function",
      "constant": true
    },
    {
      "inputs": [],
      "name": "inflaToken",
      "outputs": [
        {
          "internalType": "contract IInflaToken",
          "name": "",
          "type": "address"
        }
      ],
      "stateMutability": "view",
      "type": "function",
      "constant": true
    },
    {
      "inputs": [],
      "name": "inflaTokenAddress",
      "outputs": [
        {
          "internalType": "address payable",
          "name": "",
          "type": "address"
        }
      ],
      "stateMutability": "view",
      "type": "function",
      "constant": true
    },
    {
      "inputs": [],
      "name": "loanCounter",
      "outputs": [
        {
          "internalType": "uint256",
          "name": "",
          "type": "uint256"
        }
      ],
      "stateMutability": "view",
      "type": "function",
      "constant": true
    },
    {
      "inputs": [
        {
          "internalType": "uint256",
          "name": "",
          "type": "uint256"
        }
      ],
      "name": "loans",
      "outputs": [
        {
          "internalType": "address",
          "name": "borrower",
          "type": "address"
        },
        {
          "internalType": "uint256",
          "name": "amount",
          "type": "uint256"
        },
        {
          "internalType": "uint256",
          "name": "interest",
          "type": "uint256"
        },
        {
          "internalType": "uint256",
          "name": "dueDate",
          "type": "uint256"
        },
        {
          "internalType": "bool",
          "name": "isRepaid",
          "type": "bool"
        }
      ],
      "stateMutability": "view",
      "type": "function",
      "constant": true
    },
    {
      "inputs": [],
      "name": "owner",
      "outputs": [
        {
          "internalType": "address",
          "name": "",
          "type": "address"
        }
      ],
      "stateMutability": "view",
      "type": "function",
      "constant": true
    },
    {
      "inputs": [],
      "name": "renounceOwnership",
      "outputs": [],
      "stateMutability": "nonpayable",
      "type": "function"
    },
    {
      "inputs": [
        {
          "internalType": "address",
          "name": "newOwner",
          "type": "address"
        }
      ],
      "name": "transferOwnership",
      "outputs": [],
      "stateMutability": "nonpayable",
      "type": "function"
    },
    {
      "inputs": [
        {
          "internalType": "uint256",
          "name": "precentage",
          "type": "uint256"
        }
      ],
      "name": "setInterestRate",
      "outputs": [],
      "stateMutability": "nonpayable",
      "type": "function"
    },
    {
      "inputs": [],
      "name": "getInterestRate",
      "outputs": [
        {
          "internalType": "uint256",
          "name": "",
          "type": "uint256"
        }
      ],
      "stateMutability": "view",
      "type": "function",
      "constant": true
    },
    {
      "inputs": [
        {
          "internalType": "address",
          "name": "borrower",
          "type": "address"
        },
        {
          "internalType": "uint256",
          "name": "amount",
          "type": "uint256"
        },
        {
          "internalType": "uint256",
          "name": "duration",
          "type": "uint256"
        }
      ],
      "name": "borrow",
      "outputs": [
        {
          "internalType": "uint256",
          "name": "loanId",
          "type": "uint256"
        },
        {
          "internalType": "uint256",
          "name": "repayAmount",
          "type": "uint256"
        },
        {
          "internalType": "uint256",
          "name": "dueDate",
          "type": "uint256"
        },
        {
          "internalType": "string",
          "name": "",
          "type": "string"
        }
      ],
      "stateMutability": "nonpayable",
      "type": "function"
    },
    {
      "inputs": [
        {
          "internalType": "uint256",
          "name": "loanId",
          "type": "uint256"
        }
      ],
      "name": "repay",
      "outputs": [],
      "stateMutability": "nonpayable",
      "type": "function"
    },
    {
      "inputs": [
        {
          "internalType": "uint256",
          "name": "loanId",
          "type": "uint256"
        }
      ],
      "name": "isLoanOverdue",
      "outputs": [
        {
          "internalType": "bool",
          "name": "",
          "type": "bool"
        }
      ],
      "stateMutability": "view",
      "type": "function",
      "constant": true
    },
    {
      "inputs": [
        {
          "internalType": "uint256",
          "name": "loanId",
          "type": "uint256"
        }
      ],
      "name": "isLoanRepaid",
      "outputs": [
        {
          "internalType": "bool",
          "name": "",
          "type": "bool"
        }
      ],
      "stateMutability": "view",
      "type": "function",
      "constant": true
    }
  ],
  "bytecode": "0x6080604052600560045560016006553480156200001b57600080fd5b5060405162001a4738038062001a4783398181016040528101906200004191906200020e565b62000061620000556200012b60201b60201c565b6200013360201b60201c565b80600160006101000a81548173ffffffffffffffffffffffffffffffffffffffff021916908373ffffffffffffffffffffffffffffffffffffffff16021790555080600260006101000a81548173ffffffffffffffffffffffffffffffffffffffff021916908373ffffffffffffffffffffffffffffffffffffffff16021790555033600360006101000a81548173ffffffffffffffffffffffffffffffffffffffff021916908373ffffffffffffffffffffffffffffffffffffffff1602179055505062000288565b600033905090565b60008060009054906101000a900473ffffffffffffffffffffffffffffffffffffffff169050816000806101000a81548173ffffffffffffffffffffffffffffffffffffffff021916908373ffffffffffffffffffffffffffffffffffffffff1602179055508173ffffffffffffffffffffffffffffffffffffffff168173ffffffffffffffffffffffffffffffffffffffff167f8be0079c531659141344cd1fd0a4f28419497f9722a3daafe3b4186f6b6457e060405160405180910390a35050565b60008151905062000208816200026e565b92915050565b6000602082840312156200022157600080fd5b60006200023184828501620001f7565b91505092915050565b600062000247826200024e565b9050919050565b600073ffffffffffffffffffffffffffffffffffffffff82169050919050565b62000279816200023a565b81146200028557600080fd5b50565b6117af80620002986000396000f3fe608060405234801561001057600080fd5b50600436106100ea5760003560e01c80638da5cb5b1161008c578063ce606ee011610066578063ce606ee01461023c578063d5787b6d1461025a578063e1ec3c6814610278578063f2fde38b146102ac576100ea565b80638da5cb5b146101bb5780639026d911146101d9578063c1bce0b714610209576100ea565b80635257b566116100c85780635257b566146101595780635f84f302146101775780637030090b14610193578063715018a6146101b1576100ea565b806334d9289e146100ef578063371fd8e61461010d5780633b49860214610129575b600080fd5b6100f76102c8565b6040516101049190611360565b60405180910390f35b61012760048036038101906101229190610e61565b6102ce565b005b610143600480360381019061013e9190610e61565b610564565b60405161015091906111f6565b60405180910390f35b6101616105a6565b60405161016e9190611360565b60405180910390f35b610191600480360381019061018c9190610e61565b6105b0565b005b61019b61064a565b6040516101a89190611211565b60405180910390f35b6101b9610670565b005b6101c36106f8565b6040516101d09190611152565b60405180910390f35b6101f360048036038101906101ee9190610e61565b610721565b60405161020091906111f6565b60405180910390f35b610223600480360381019061021e9190610dd1565b610753565b604051610233949392919061137b565b60405180910390f35b610244610a8e565b6040516102519190611188565b60405180910390f35b610262610ab4565b60405161026f9190611188565b60405180910390f35b610292600480360381019061028d9190610e61565b610ada565b6040516102a39594939291906111a3565b60405180910390f35b6102c660048036038101906102c19190610da8565b610b3d565b005b60065481565b600260009054906101000a900473ffffffffffffffffffffffffffffffffffffffff1673ffffffffffffffffffffffffffffffffffffffff163373ffffffffffffffffffffffffffffffffffffffff161461035e576040517f08c379a0000000000000000000000000000000000000000000000000000000008152600401610355906112f6565b60405180910390fd5b6000600560008381526020019081526020016000209050600015158160040160009054906101000a900460ff161515146103cd576040517f08c379a00000000000000000000000000000000000000000000000000000000081526004016103c4906112b6565b60405180910390fd5b8060030154421015610414576040517f08c379a000000000000000000000000000000000000000000000000000000000815260040161040b906112d6565b60405180910390fd5b60006064600454836001015461042a91906114cb565b610434919061149a565b82600101546104439190611444565b9050600160009054906101000a900473ffffffffffffffffffffffffffffffffffffffff1673ffffffffffffffffffffffffffffffffffffffff1663af0563ec8360000160009054906101000a900473ffffffffffffffffffffffffffffffffffffffff16600360009054906101000a900473ffffffffffffffffffffffffffffffffffffffff16846040518463ffffffff1660e01b81526004016104ea93929190611316565b600060405180830381600087803b15801561050457600080fd5b505af1158015610518573d6000803e3d6000fd5b505050506040513d6000823e3d601f19601f820116820180604052508101906105419190610e20565b5060018260040160006101000a81548160ff021916908315150217905550505050565b60008060056000848152602001908152602001600020905080600301544211801561059e57508060040160009054906101000a900460ff16155b915050919050565b6000600454905090565b600260009054906101000a900473ffffffffffffffffffffffffffffffffffffffff1673ffffffffffffffffffffffffffffffffffffffff163373ffffffffffffffffffffffffffffffffffffffff1614610640576040517f08c379a0000000000000000000000000000000000000000000000000000000008152600401610637906112f6565b60405180910390fd5b8060048190555050565b600160009054906101000a900473ffffffffffffffffffffffffffffffffffffffff1681565b610678610c35565b73ffffffffffffffffffffffffffffffffffffffff166106966106f8565b73ffffffffffffffffffffffffffffffffffffffff16146106ec576040517f08c379a00000000000000000000000000000000000000000000000000000000081526004016106e390611296565b60405180910390fd5b6106f66000610c3d565b565b60008060009054906101000a900473ffffffffffffffffffffffffffffffffffffffff16905090565b6000806005600084815260200190815260200160002090508060040160009054906101000a900460ff16915050919050565b6000806000606085600160009054906101000a900473ffffffffffffffffffffffffffffffffffffffff1673ffffffffffffffffffffffffffffffffffffffff166370a08231600360009054906101000a900473ffffffffffffffffffffffffffffffffffffffff166040518263ffffffff1660e01b81526004016107d8919061116d565b60206040518083038186803b1580156107f057600080fd5b505afa158015610804573d6000803e3d6000fd5b505050506040513d601f19601f820116820180604052508101906108289190610e8a565b1015610859576000806000604051806060016040528060238152602001611722602391399350935093509350610a85565b600085426108679190611444565b90506040518060a001604052808973ffffffffffffffffffffffffffffffffffffffff16815260200188815260200160045481526020018281526020016000151581525060056000600654815260200190815260200160002060008201518160000160006101000a81548173ffffffffffffffffffffffffffffffffffffffff021916908373ffffffffffffffffffffffffffffffffffffffff16021790555060208201518160010155604082015181600201556060820151816003015560808201518160040160006101000a81548160ff0219169083151502179055509050506006600081548092919061095b9061160c565b9190505550600160009054906101000a900473ffffffffffffffffffffffffffffffffffffffff1673ffffffffffffffffffffffffffffffffffffffff1663af0563ec600360009054906101000a900473ffffffffffffffffffffffffffffffffffffffff168a8a6040518463ffffffff1660e01b81526004016109e19392919061124c565b600060405180830381600087803b1580156109fb57600080fd5b505af1158015610a0f573d6000803e3d6000fd5b505050506040513d6000823e3d601f19601f82011682018060405250810190610a389190610e20565b50600654606460045489610a4c91906114cb565b610a56919061149a565b88610a619190611444565b82604051806060016040528060358152602001611745603591399450945094509450505b93509350935093565b600360009054906101000a900473ffffffffffffffffffffffffffffffffffffffff1681565b600260009054906101000a900473ffffffffffffffffffffffffffffffffffffffff1681565b60056020528060005260406000206000915090508060000160009054906101000a900473ffffffffffffffffffffffffffffffffffffffff16908060010154908060020154908060030154908060040160009054906101000a900460ff16905085565b610b45610c35565b73ffffffffffffffffffffffffffffffffffffffff16610b636106f8565b73ffffffffffffffffffffffffffffffffffffffff1614610bb9576040517f08c379a0000000000000000000000000000000000000000000000000000000008152600401610bb090611296565b60405180910390fd5b600073ffffffffffffffffffffffffffffffffffffffff168173ffffffffffffffffffffffffffffffffffffffff161415610c29576040517f08c379a0000000000000000000000000000000000000000000000000000000008152600401610c209061122c565b60405180910390fd5b610c3281610c3d565b50565b600033905090565b60008060009054906101000a900473ffffffffffffffffffffffffffffffffffffffff169050816000806101000a81548173ffffffffffffffffffffffffffffffffffffffff021916908373ffffffffffffffffffffffffffffffffffffffff1602179055508173ffffffffffffffffffffffffffffffffffffffff168173ffffffffffffffffffffffffffffffffffffffff167f8be0079c531659141344cd1fd0a4f28419497f9722a3daafe3b4186f6b6457e060405160405180910390a35050565b6000610d14610d0f846113f8565b6113c7565b905082815260208101848484011115610d2c57600080fd5b610d378482856115d9565b509392505050565b600081359050610d4e816116f3565b92915050565b600082601f830112610d6557600080fd5b8151610d75848260208601610d01565b91505092915050565b600081359050610d8d8161170a565b92915050565b600081519050610da28161170a565b92915050565b600060208284031215610dba57600080fd5b6000610dc884828501610d3f565b91505092915050565b600080600060608486031215610de657600080fd5b6000610df486828701610d3f565b9350506020610e0586828701610d7e565b9250506040610e1686828701610d7e565b9150509250925092565b600060208284031215610e3257600080fd5b600082015167ffffffffffffffff811115610e4c57600080fd5b610e5884828501610d54565b91505092915050565b600060208284031215610e7357600080fd5b6000610e8184828501610d7e565b91505092915050565b600060208284031215610e9c57600080fd5b6000610eaa84828501610d93565b91505092915050565b610ebc8161157f565b82525050565b610ecb81611537565b82525050565b610eda81611525565b82525050565b610ee981611549565b82525050565b610ef881611591565b82525050565b6000610f0982611428565b610f138185611433565b9350610f238185602086016115d9565b610f2c816116e2565b840191505092915050565b6000610f44602683611433565b91507f4f776e61626c653a206e6577206f776e657220697320746865207a65726f206160008301527f64647265737300000000000000000000000000000000000000000000000000006020830152604082019050919050565b6000610faa600683611433565b91507f626f72726f7700000000000000000000000000000000000000000000000000006000830152602082019050919050565b6000610fea602083611433565b91507f4f776e61626c653a2063616c6c6572206973206e6f7420746865206f776e65726000830152602082019050919050565b600061102a601383611433565b91507f4c6f616e20616c726561647920726570616964000000000000000000000000006000830152602082019050919050565b600061106a601383611433565b91507f4c6f616e206973206e6f74206f766572647565000000000000000000000000006000830152602082019050919050565b60006110aa602c83611433565b91507f4f6e6c79207468652063656e7472616c42616e6b2063616e2063616c6c20746860008301527f69732066756e6374696f6e2e00000000000000000000000000000000000000006020830152604082019050919050565b6000611110600583611433565b91507f72657061790000000000000000000000000000000000000000000000000000006000830152602082019050919050565b61114c81611575565b82525050565b60006020820190506111676000830184610ed1565b92915050565b60006020820190506111826000830184610eb3565b92915050565b600060208201905061119d6000830184610ec2565b92915050565b600060a0820190506111b86000830188610ed1565b6111c56020830187611143565b6111d26040830186611143565b6111df6060830185611143565b6111ec6080830184610ee0565b9695505050505050565b600060208201905061120b6000830184610ee0565b92915050565b60006020820190506112266000830184610eef565b92915050565b6000602082019050818103600083015261124581610f37565b9050919050565b6000608082019050818103600083015261126581610f9d565b90506112746020830186610eb3565b6112816040830185610ed1565b61128e6060830184611143565b949350505050565b600060208201905081810360008301526112af81610fdd565b9050919050565b600060208201905081810360008301526112cf8161101d565b9050919050565b600060208201905081810360008301526112ef8161105d565b9050919050565b6000602082019050818103600083015261130f8161109d565b9050919050565b6000608082019050818103600083015261132f81611103565b905061133e6020830186610ed1565b61134b6040830185610eb3565b6113586060830184611143565b949350505050565b60006020820190506113756000830184611143565b92915050565b60006080820190506113906000830187611143565b61139d6020830186611143565b6113aa6040830185611143565b81810360608301526113bc8184610efe565b905095945050505050565b6000604051905081810181811067ffffffffffffffff821117156113ee576113ed6116b3565b5b8060405250919050565b600067ffffffffffffffff821115611413576114126116b3565b5b601f19601f8301169050602081019050919050565b600081519050919050565b600082825260208201905092915050565b600061144f82611575565b915061145a83611575565b9250827fffffffffffffffffffffffffffffffffffffffffffffffffffffffffffffffff0382111561148f5761148e611655565b5b828201905092915050565b60006114a582611575565b91506114b083611575565b9250826114c0576114bf611684565b5b828204905092915050565b60006114d682611575565b91506114e183611575565b9250817fffffffffffffffffffffffffffffffffffffffffffffffffffffffffffffffff048311821515161561151a57611519611655565b5b828202905092915050565b600061153082611555565b9050919050565b600061154282611555565b9050919050565b60008115159050919050565b600073ffffffffffffffffffffffffffffffffffffffff82169050919050565b6000819050919050565b600061158a826115b5565b9050919050565b600061159c826115a3565b9050919050565b60006115ae82611555565b9050919050565b60006115c0826115c7565b9050919050565b60006115d282611555565b9050919050565b60005b838110156115f75780820151818401526020810190506115dc565b83811115611606576000848401525b50505050565b600061161782611575565b91507fffffffffffffffffffffffffffffffffffffffffffffffffffffffffffffffff82141561164a57611649611655565b5b600182019050919050565b7f4e487b7100000000000000000000000000000000000000000000000000000000600052601160045260246000fd5b7f4e487b7100000000000000000000000000000000000000000000000000000000600052601260045260246000fd5b7f4e487b7100000000000000000000000000000000000000000000000000000000600052604160045260246000fd5b6000601f19601f8301169050919050565b6116fc81611525565b811461170757600080fd5b50565b61171381611575565b811461171e57600080fd5b5056fe496e73756666696369656e7420636f6e747261637420746f6b656e2062616c616e6365546865206c6f616e20686173206265656e20617070726f76656420616e642070726f636573736564207375636365737366756c6c79a264697066735822122088a9f9b7df239ec8a4aca4539771a376b6ace487bc9e8249fa358118934ef74964736f6c63430008000033",
  "immutableReferences": {},
  "source": "// SPDX-License-Identifier: MIT\n\npragma solidity ^0.8.0;\n\n// import \"@openzeppelin/contracts/token/ERC20/ERC20.sol\";\nimport \"@openzeppelin/contracts/access/Ownable.sol\";\nimport \"./InflaToken.sol\";\n\n// InflaToken interface to interact with the InflaToken contract\ninterface IInflaToken {\n    function balanceOf(address account) external view returns (uint256);\n    function transferTo(string memory actionType, address sender, address recipient, uint256 amount) external returns (string memory);\n}\n\ncontract LoanContract is Ownable {\n\n    // Holds the inflaToken contract interface.\n    // Holds relevant methods and information,\n    // and the central bank.\n    IInflaToken public inflaToken;\n\n    // InflaToken address as central bank\n    address payable public inflaTokenAddress;\n\n    // Should be the central bank address\n    address payable public contractOwner;\n\n    // Interest rate precentage (TODO: be multiplied by TOKEN_MULTIPLIER for adjusted decimal precision)\n    uint256 internal INTEREST_RATE = 5;\n\n    // Include all the Loan necessary info\n    struct Loan {\n        address borrower;\n        uint256 amount;\n        uint256 interest;\n        uint256 dueDate;\n        bool isRepaid;\n    }\n\n    // Create a key:value map of loans\n    mapping(uint256 => Loan) public loans;\n    // Counter and id tracker for the loan map. Loan Id 0 represents an error.\n    uint256 public loanCounter = 1;\n\n    constructor (address _inflaTokenAddress) {\n        // LoanContract initialized with InflaToken\n        inflaToken = IInflaToken(_inflaTokenAddress);\n        inflaTokenAddress = payable(_inflaTokenAddress);\n        contractOwner = payable(msg.sender);\n    }\n\n    function setInterestRate (uint256 precentage) public onlyCentralBank {\n        // Enabling change of interest rate by the central bank.\n        INTEREST_RATE = precentage;\n    }\n\n    function getInterestRate () public view returns(uint256) {\n        // Returning interest rate value\n        return INTEREST_RATE;\n    }\n\n    function borrow(address borrower, uint256 amount, uint256 duration) public returns (uint256 loanId, uint256 repayAmount, uint256 dueDate, string memory) {\n        // Borrow InflaToken function, setting a due date\n\n        // Initial balance check. Loan Id 0 represents error.\n        if(inflaToken.balanceOf(contractOwner) < amount) return (0, 0, 0, \"Insufficient contract token balance\");\n\n        uint256 resDueDate = block.timestamp + duration;\n\n        loans[loanCounter] = Loan({\n            borrower: borrower,\n            amount: amount,\n            interest: INTEREST_RATE,\n            dueDate: resDueDate,\n            isRepaid: false\n        });\n\n        loanCounter++;\n\n        // Transfer tokens from the contract to the borrower\n        inflaToken.transferTo('borrow', contractOwner, borrower, amount);\n\n        // Return loan id\n        return (loanCounter, amount + ((amount * INTEREST_RATE) / 100), resDueDate, \"The loan has been approved and processed successfully\");\n    }\n\n    // Repay function to repay borrowed tokens\n    function repay(uint256 loanId) public onlyCentralBank {\n        Loan storage loan = loans[loanId];\n        require(loan.isRepaid == false, \"Loan already repaid\");\n        require(block.timestamp >= loan.dueDate, \"Loan is not overdue\");\n\n        // Calculate repay amount with interest\n        uint256 repayAmount = loan.amount + ((loan.amount * INTEREST_RATE) / 100);\n\n        // Transfer tokens back to the contract\n        inflaToken.transferTo('repay', loan.borrower, contractOwner, repayAmount);\n        loan.isRepaid = true;\n    }\n\n    function isLoanOverdue(uint256 loanId) public view returns (bool) {\n        // Check if loan is overdue\n        Loan storage loan = loans[loanId];\n        return block.timestamp > loan.dueDate && !loan.isRepaid;\n    }\n\n    function isLoanRepaid(uint256 loanId) public view returns (bool) {\n        // Check if loan is repaid\n        Loan storage loan = loans[loanId];\n        return loan.isRepaid;\n    }\n\n\n// -----------------------------------\n// MODIFIERS\n// -----------------------------------\n\n    modifier onlyCentralBank {\n        require(msg.sender == inflaTokenAddress, \"Only the centralBank can call this function.\");\n        _;\n    }\n\n}\n",
  "sourcePath": "/home/shalevgur/eth-projects/InflaCoin/InflaCoin/contracts/LoanContract.sol",
  "compiler": {
    "name": "solc",
    "version": "0.8.0+commit.c7dfd78e.Emscripten.clang"
  },
  "schemaVersion": "3.4.16",
  "updatedAt": "2024-10-24T22:41:24.537Z",
  "networkType": "ethereum",
  "devdoc": {
    "kind": "dev",
    "methods": {
      "owner()": {
        "details": "Returns the address of the current owner."
      },
      "renounceOwnership()": {
        "details": "Leaves the contract without owner. It will not be possible to call `onlyOwner` functions anymore. Can only be called by the current owner. NOTE: Renouncing ownership will leave the contract without an owner, thereby removing any functionality that is only available to the owner."
      },
      "transferOwnership(address)": {
        "details": "Transfers ownership of the contract to a new account (`newOwner`). Can only be called by the current owner."
      }
    },
    "version": 1
  },
  "userdoc": {
    "kind": "user",
    "methods": {},
    "version": 1
  }
}