{
  "contractName": "LoanContract",
  "abi": [
    {
      "inputs": [
        {
          "internalType": "address",
          "name": "_inflaTokenAddress",
          "type": "address"
        }
      ],
      "stateMutability": "nonpayable",
      "type": "constructor"
    },
    {
      "anonymous": false,
      "inputs": [
        {
          "indexed": false,
          "internalType": "address",
          "name": "borrower",
          "type": "address"
        },
        {
          "indexed": false,
          "internalType": "uint256",
          "name": "loanId",
          "type": "uint256"
        },
        {
          "indexed": false,
          "internalType": "uint256",
          "name": "amount",
          "type": "uint256"
        },
        {
          "indexed": false,
          "internalType": "uint256",
          "name": "dueDate",
          "type": "uint256"
        }
      ],
      "name": "LoanBorrowed",
      "type": "event"
    },
    {
      "anonymous": false,
      "inputs": [
        {
          "indexed": false,
          "internalType": "address",
          "name": "borrower",
          "type": "address"
        },
        {
          "indexed": false,
          "internalType": "uint256",
          "name": "loanId",
          "type": "uint256"
        },
        {
          "indexed": false,
          "internalType": "uint256",
          "name": "amount",
          "type": "uint256"
        }
      ],
      "name": "LoanRepaid",
      "type": "event"
    },
    {
      "anonymous": false,
      "inputs": [
        {
          "indexed": true,
          "internalType": "address",
          "name": "previousOwner",
          "type": "address"
        },
        {
          "indexed": true,
          "internalType": "address",
          "name": "newOwner",
          "type": "address"
        }
      ],
      "name": "OwnershipTransferred",
      "type": "event"
    },
    {
      "inputs": [],
      "name": "contractOwner",
      "outputs": [
        {
          "internalType": "address payable",
          "name": "",
          "type": "address"
        }
      ],
      "stateMutability": "view",
      "type": "function",
      "constant": true
    },
    {
      "inputs": [],
      "name": "inflaToken",
      "outputs": [
        {
          "internalType": "contract IInflaToken",
          "name": "",
          "type": "address"
        }
      ],
      "stateMutability": "view",
      "type": "function",
      "constant": true
    },
    {
      "inputs": [],
      "name": "loanCounter",
      "outputs": [
        {
          "internalType": "uint256",
          "name": "",
          "type": "uint256"
        }
      ],
      "stateMutability": "view",
      "type": "function",
      "constant": true
    },
    {
      "inputs": [
        {
          "internalType": "uint256",
          "name": "",
          "type": "uint256"
        }
      ],
      "name": "loans",
      "outputs": [
        {
          "internalType": "address",
          "name": "borrower",
          "type": "address"
        },
        {
          "internalType": "uint256",
          "name": "amount",
          "type": "uint256"
        },
        {
          "internalType": "uint256",
          "name": "interest",
          "type": "uint256"
        },
        {
          "internalType": "uint256",
          "name": "dueDate",
          "type": "uint256"
        },
        {
          "internalType": "bool",
          "name": "isRepaid",
          "type": "bool"
        }
      ],
      "stateMutability": "view",
      "type": "function",
      "constant": true
    },
    {
      "inputs": [],
      "name": "owner",
      "outputs": [
        {
          "internalType": "address",
          "name": "",
          "type": "address"
        }
      ],
      "stateMutability": "view",
      "type": "function",
      "constant": true
    },
    {
      "inputs": [],
      "name": "renounceOwnership",
      "outputs": [],
      "stateMutability": "nonpayable",
      "type": "function"
    },
    {
      "inputs": [
        {
          "internalType": "address",
          "name": "newOwner",
          "type": "address"
        }
      ],
      "name": "transferOwnership",
      "outputs": [],
      "stateMutability": "nonpayable",
      "type": "function"
    },
    {
      "inputs": [
        {
          "internalType": "uint256",
          "name": "precentage",
          "type": "uint256"
        }
      ],
      "name": "setInterestRate",
      "outputs": [],
      "stateMutability": "nonpayable",
      "type": "function"
    },
    {
      "inputs": [],
      "name": "getInterestRate",
      "outputs": [
        {
          "internalType": "uint256",
          "name": "",
          "type": "uint256"
        }
      ],
      "stateMutability": "view",
      "type": "function",
      "constant": true
    },
    {
      "inputs": [
        {
          "internalType": "address",
          "name": "borrower",
          "type": "address"
        },
        {
          "internalType": "uint256",
          "name": "amount",
          "type": "uint256"
        },
        {
          "internalType": "uint256",
          "name": "duration",
          "type": "uint256"
        }
      ],
      "name": "borrow",
      "outputs": [
        {
          "internalType": "uint256",
          "name": "loanId",
          "type": "uint256"
        }
      ],
      "stateMutability": "nonpayable",
      "type": "function"
    },
    {
      "inputs": [
        {
          "internalType": "uint256",
          "name": "loanId",
          "type": "uint256"
        }
      ],
      "name": "repay",
      "outputs": [],
      "stateMutability": "nonpayable",
      "type": "function"
    },
    {
      "inputs": [
        {
          "internalType": "uint256",
          "name": "loanId",
          "type": "uint256"
        }
      ],
      "name": "isLoanOverdue",
      "outputs": [
        {
          "internalType": "bool",
          "name": "",
          "type": "bool"
        }
      ],
      "stateMutability": "view",
      "type": "function",
      "constant": true
    },
    {
      "inputs": [
        {
          "internalType": "uint256",
          "name": "loanId",
          "type": "uint256"
        }
      ],
      "name": "isLoanRepaid",
      "outputs": [
        {
          "internalType": "bool",
          "name": "",
          "type": "bool"
        }
      ],
      "stateMutability": "view",
      "type": "function",
      "constant": true
    }
  ],
  "bytecode": "0x608060405260056003553480156200001657600080fd5b50604051620019d7380380620019d783398181016040528101906200003c9190620001c8565b6200005c62000050620000e560201b60201c565b620000ed60201b60201c565b80600160006101000a81548173ffffffffffffffffffffffffffffffffffffffff021916908373ffffffffffffffffffffffffffffffffffffffff16021790555033600260006101000a81548173ffffffffffffffffffffffffffffffffffffffff021916908373ffffffffffffffffffffffffffffffffffffffff1602179055505062000242565b600033905090565b60008060009054906101000a900473ffffffffffffffffffffffffffffffffffffffff169050816000806101000a81548173ffffffffffffffffffffffffffffffffffffffff021916908373ffffffffffffffffffffffffffffffffffffffff1602179055508173ffffffffffffffffffffffffffffffffffffffff168173ffffffffffffffffffffffffffffffffffffffff167f8be0079c531659141344cd1fd0a4f28419497f9722a3daafe3b4186f6b6457e060405160405180910390a35050565b600081519050620001c28162000228565b92915050565b600060208284031215620001db57600080fd5b6000620001eb84828501620001b1565b91505092915050565b6000620002018262000208565b9050919050565b600073ffffffffffffffffffffffffffffffffffffffff82169050919050565b6200023381620001f4565b81146200023f57600080fd5b50565b61178580620002526000396000f3fe608060405234801561001057600080fd5b50600436106100cf5760003560e01c8063715018a61161008c578063c1bce0b711610066578063c1bce0b7146101ee578063ce606ee01461021e578063e1ec3c681461023c578063f2fde38b14610270576100cf565b8063715018a6146101965780638da5cb5b146101a05780639026d911146101be576100cf565b806334d9289e146100d4578063371fd8e6146100f25780633b4986021461010e5780635257b5661461013e5780635f84f3021461015c5780637030090b14610178575b600080fd5b6100dc61028c565b6040516100e991906113f6565b60405180910390f35b61010c60048036038101906101079190610eb4565b610292565b005b61012860048036038101906101239190610eb4565b610573565b604051610135919061128c565b60405180910390f35b6101466105b5565b60405161015391906113f6565b60405180910390f35b61017660048036038101906101719190610eb4565b6105bf565b005b610180610645565b60405161018d91906112a7565b60405180910390f35b61019e61066b565b005b6101a86106f3565b6040516101b5919061116c565b60405180910390f35b6101d860048036038101906101d39190610eb4565b61071c565b6040516101e5919061128c565b60405180910390f35b61020860048036038101906102039190610e24565b61074e565b60405161021591906113f6565b60405180910390f35b610226610b07565b60405161023391906111a2565b60405180910390f35b61025660048036038101906102519190610eb4565b610b2d565b604051610267959493929190611239565b60405180910390f35b61028a60048036038101906102859190610dfb565b610b90565b005b60055481565b61029a610c88565b73ffffffffffffffffffffffffffffffffffffffff166102b86106f3565b73ffffffffffffffffffffffffffffffffffffffff161461030e576040517f08c379a00000000000000000000000000000000000000000000000000000000081526004016103059061134c565b60405180910390fd5b6000600460008381526020019081526020016000209050600015158160040160009054906101000a900460ff1615151461037d576040517f08c379a00000000000000000000000000000000000000000000000000000000081526004016103749061136c565b60405180910390fd5b80600301544210156103c4576040517f08c379a00000000000000000000000000000000000000000000000000000000081526004016103bb9061138c565b60405180910390fd5b6000606460035483600101546103da919061150a565b6103e491906114d9565b82600101546103f39190611483565b9050600160009054906101000a900473ffffffffffffffffffffffffffffffffffffffff1673ffffffffffffffffffffffffffffffffffffffff1663af0563ec8360000160009054906101000a900473ffffffffffffffffffffffffffffffffffffffff16600260009054906101000a900473ffffffffffffffffffffffffffffffffffffffff16846040518463ffffffff1660e01b815260040161049a939291906113ac565b600060405180830381600087803b1580156104b457600080fd5b505af11580156104c8573d6000803e3d6000fd5b505050506040513d6000823e3d601f19601f820116820180604052508101906104f19190610e73565b5060018260040160006101000a81548160ff0219169083151502179055507fc7ce0a35f17b490de2a317e7fecb2cae86b1abffb03800b2f4928235213826988260000160009054906101000a900473ffffffffffffffffffffffffffffffffffffffff168483604051610566939291906111bd565b60405180910390a1505050565b6000806004600084815260200190815260200160002090508060030154421180156105ad57508060040160009054906101000a900460ff16155b915050919050565b6000600354905090565b6105c7610c88565b73ffffffffffffffffffffffffffffffffffffffff166105e56106f3565b73ffffffffffffffffffffffffffffffffffffffff161461063b576040517f08c379a00000000000000000000000000000000000000000000000000000000081526004016106329061134c565b60405180910390fd5b8060038190555050565b600160009054906101000a900473ffffffffffffffffffffffffffffffffffffffff1681565b610673610c88565b73ffffffffffffffffffffffffffffffffffffffff166106916106f3565b73ffffffffffffffffffffffffffffffffffffffff16146106e7576040517f08c379a00000000000000000000000000000000000000000000000000000000081526004016106de9061134c565b60405180910390fd5b6106f16000610c90565b565b60008060009054906101000a900473ffffffffffffffffffffffffffffffffffffffff16905090565b6000806004600084815260200190815260200160002090508060040160009054906101000a900460ff16915050919050565b6000610758610c88565b73ffffffffffffffffffffffffffffffffffffffff166107766106f3565b73ffffffffffffffffffffffffffffffffffffffff16146107cc576040517f08c379a00000000000000000000000000000000000000000000000000000000081526004016107c39061134c565b60405180910390fd5b82600160009054906101000a900473ffffffffffffffffffffffffffffffffffffffff1673ffffffffffffffffffffffffffffffffffffffff166370a08231600260009054906101000a900473ffffffffffffffffffffffffffffffffffffffff166040518263ffffffff1660e01b815260040161084a9190611187565b60206040518083038186803b15801561086257600080fd5b505afa158015610876573d6000803e3d6000fd5b505050506040513d601f19601f8201168201806040525081019061089a9190610edd565b10156108db576040517f08c379a00000000000000000000000000000000000000000000000000000000081526004016108d2906112c2565b60405180910390fd5b600560008154809291906108ee9061164b565b9190505550600082426109019190611483565b90506040518060a001604052808673ffffffffffffffffffffffffffffffffffffffff16815260200185815260200160035481526020018281526020016000151581525060046000600554815260200190815260200160002060008201518160000160006101000a81548173ffffffffffffffffffffffffffffffffffffffff021916908373ffffffffffffffffffffffffffffffffffffffff16021790555060208201518160010155604082015181600201556060820151816003015560808201518160040160006101000a81548160ff021916908315150217905550905050600160009054906101000a900473ffffffffffffffffffffffffffffffffffffffff1673ffffffffffffffffffffffffffffffffffffffff1663af0563ec600260009054906101000a900473ffffffffffffffffffffffffffffffffffffffff1687876040518463ffffffff1660e01b8152600401610a6393929190611302565b600060405180830381600087803b158015610a7d57600080fd5b505af1158015610a91573d6000803e3d6000fd5b505050506040513d6000823e3d601f19601f82011682018060405250810190610aba9190610e73565b507f29a4c6234e744f25ba813e28f7c5f0a7b339a48a4fd2b44678f698bbea0995b6856005548684604051610af294939291906111f4565b60405180910390a16005549150509392505050565b600260009054906101000a900473ffffffffffffffffffffffffffffffffffffffff1681565b60046020528060005260406000206000915090508060000160009054906101000a900473ffffffffffffffffffffffffffffffffffffffff16908060010154908060020154908060030154908060040160009054906101000a900460ff16905085565b610b98610c88565b73ffffffffffffffffffffffffffffffffffffffff16610bb66106f3565b73ffffffffffffffffffffffffffffffffffffffff1614610c0c576040517f08c379a0000000000000000000000000000000000000000000000000000000008152600401610c039061134c565b60405180910390fd5b600073ffffffffffffffffffffffffffffffffffffffff168173ffffffffffffffffffffffffffffffffffffffff161415610c7c576040517f08c379a0000000000000000000000000000000000000000000000000000000008152600401610c73906112e2565b60405180910390fd5b610c8581610c90565b50565b600033905090565b60008060009054906101000a900473ffffffffffffffffffffffffffffffffffffffff169050816000806101000a81548173ffffffffffffffffffffffffffffffffffffffff021916908373ffffffffffffffffffffffffffffffffffffffff1602179055508173ffffffffffffffffffffffffffffffffffffffff168173ffffffffffffffffffffffffffffffffffffffff167f8be0079c531659141344cd1fd0a4f28419497f9722a3daafe3b4186f6b6457e060405160405180910390a35050565b6000610d67610d6284611442565b611411565b905082815260208101848484011115610d7f57600080fd5b610d8a848285611618565b509392505050565b600081359050610da181611721565b92915050565b600082601f830112610db857600080fd5b8151610dc8848260208601610d54565b91505092915050565b600081359050610de081611738565b92915050565b600081519050610df581611738565b92915050565b600060208284031215610e0d57600080fd5b6000610e1b84828501610d92565b91505092915050565b600080600060608486031215610e3957600080fd5b6000610e4786828701610d92565b9350506020610e5886828701610dd1565b9250506040610e6986828701610dd1565b9150509250925092565b600060208284031215610e8557600080fd5b600082015167ffffffffffffffff811115610e9f57600080fd5b610eab84828501610da7565b91505092915050565b600060208284031215610ec657600080fd5b6000610ed484828501610dd1565b91505092915050565b600060208284031215610eef57600080fd5b6000610efd84828501610de6565b91505092915050565b610f0f816115be565b82525050565b610f1e81611576565b82525050565b610f2d81611564565b82525050565b610f3c81611588565b82525050565b610f4b816115d0565b82525050565b6000610f5e602383611472565b91507f496e73756666696369656e7420636f6e747261637420746f6b656e2062616c6160008301527f6e636500000000000000000000000000000000000000000000000000000000006020830152604082019050919050565b6000610fc4602683611472565b91507f4f776e61626c653a206e6577206f776e657220697320746865207a65726f206160008301527f64647265737300000000000000000000000000000000000000000000000000006020830152604082019050919050565b600061102a600683611472565b91507f626f72726f7700000000000000000000000000000000000000000000000000006000830152602082019050919050565b600061106a602083611472565b91507f4f776e61626c653a2063616c6c6572206973206e6f7420746865206f776e65726000830152602082019050919050565b60006110aa601383611472565b91507f4c6f616e20616c726561647920726570616964000000000000000000000000006000830152602082019050919050565b60006110ea601383611472565b91507f4c6f616e206973206e6f74206f766572647565000000000000000000000000006000830152602082019050919050565b600061112a600583611472565b91507f72657061790000000000000000000000000000000000000000000000000000006000830152602082019050919050565b611166816115b4565b82525050565b60006020820190506111816000830184610f24565b92915050565b600060208201905061119c6000830184610f06565b92915050565b60006020820190506111b76000830184610f15565b92915050565b60006060820190506111d26000830186610f24565b6111df602083018561115d565b6111ec604083018461115d565b949350505050565b60006080820190506112096000830187610f24565b611216602083018661115d565b611223604083018561115d565b611230606083018461115d565b95945050505050565b600060a08201905061124e6000830188610f24565b61125b602083018761115d565b611268604083018661115d565b611275606083018561115d565b6112826080830184610f33565b9695505050505050565b60006020820190506112a16000830184610f33565b92915050565b60006020820190506112bc6000830184610f42565b92915050565b600060208201905081810360008301526112db81610f51565b9050919050565b600060208201905081810360008301526112fb81610fb7565b9050919050565b6000608082019050818103600083015261131b8161101d565b905061132a6020830186610f06565b6113376040830185610f24565b611344606083018461115d565b949350505050565b600060208201905081810360008301526113658161105d565b9050919050565b600060208201905081810360008301526113858161109d565b9050919050565b600060208201905081810360008301526113a5816110dd565b9050919050565b600060808201905081810360008301526113c58161111d565b90506113d46020830186610f24565b6113e16040830185610f06565b6113ee606083018461115d565b949350505050565b600060208201905061140b600083018461115d565b92915050565b6000604051905081810181811067ffffffffffffffff82111715611438576114376116f2565b5b8060405250919050565b600067ffffffffffffffff82111561145d5761145c6116f2565b5b601f19601f8301169050602081019050919050565b600082825260208201905092915050565b600061148e826115b4565b9150611499836115b4565b9250827fffffffffffffffffffffffffffffffffffffffffffffffffffffffffffffffff038211156114ce576114cd611694565b5b828201905092915050565b60006114e4826115b4565b91506114ef836115b4565b9250826114ff576114fe6116c3565b5b828204905092915050565b6000611515826115b4565b9150611520836115b4565b9250817fffffffffffffffffffffffffffffffffffffffffffffffffffffffffffffffff048311821515161561155957611558611694565b5b828202905092915050565b600061156f82611594565b9050919050565b600061158182611594565b9050919050565b60008115159050919050565b600073ffffffffffffffffffffffffffffffffffffffff82169050919050565b6000819050919050565b60006115c9826115f4565b9050919050565b60006115db826115e2565b9050919050565b60006115ed82611594565b9050919050565b60006115ff82611606565b9050919050565b600061161182611594565b9050919050565b60005b8381101561163657808201518184015260208101905061161b565b83811115611645576000848401525b50505050565b6000611656826115b4565b91507fffffffffffffffffffffffffffffffffffffffffffffffffffffffffffffffff82141561168957611688611694565b5b600182019050919050565b7f4e487b7100000000000000000000000000000000000000000000000000000000600052601160045260246000fd5b7f4e487b7100000000000000000000000000000000000000000000000000000000600052601260045260246000fd5b7f4e487b7100000000000000000000000000000000000000000000000000000000600052604160045260246000fd5b61172a81611564565b811461173557600080fd5b50565b611741816115b4565b811461174c57600080fd5b5056fea2646970667358221220a642107601f881cbb56021f9cb9821192c0ba250b3c0d9d53d70c7fcb6aae13b64736f6c63430008000033",
  "immutableReferences": {},
  "source": "// SPDX-License-Identifier: MIT\n\npragma solidity ^0.8.0;\n\n// import \"@openzeppelin/contracts/token/ERC20/ERC20.sol\";\nimport \"@openzeppelin/contracts/access/Ownable.sol\";\nimport \"./InflaToken.sol\";\n\n// InflaToken interface to interact with the InflaToken contract\ninterface IInflaToken {\n    function balanceOf(address account) external view returns (uint256);\n    function transferTo(string memory actionType, address sender, address recipient, uint256 amount) external returns (string memory);\n}\n\ncontract LoanContract is Ownable {\n\n    // Holds the inflaToken contract interface.\n    // Holds relevant methods and information,\n    // and the central bank.\n    IInflaToken public inflaToken;\n\n    // Should be the central bank address\n    address payable public contractOwner;\n\n    // Interest rate precentage (TODO: be multiplied by TOKEN_MULTIPLIER for adjusted decimal precision)\n    uint256 internal INTEREST_RATE = 5;\n\n    // Include all the Loan necessary info\n    struct Loan {\n        address borrower;\n        uint256 amount;\n        uint256 interest;\n        uint256 dueDate;\n        bool isRepaid;\n    }\n\n    // Create a key:value map of loans\n    mapping(uint256 => Loan) public loans;\n    // Counter and id tracker for the loan map\n    uint256 public loanCounter;\n\n    constructor (address _inflaTokenAddress) {\n        // LoanContract initialized with InflaToken\n        inflaToken = IInflaToken(_inflaTokenAddress);\n        contractOwner = payable(msg.sender);\n    }\n\n    function setInterestRate (uint256 precentage) public onlyOwner {\n        // Enabling change of interest rate by the central bank.\n        INTEREST_RATE = precentage;\n    }\n\n    function getInterestRate () public view returns(uint256) {\n        // Returning interest rate value\n        return INTEREST_RATE;\n    }\n\n    function borrow(address borrower, uint256 amount, uint256 duration) public onlyOwner returns (uint256 loanId) {\n        // Borrow InflaToken function, setting a due date\n        require(inflaToken.balanceOf(contractOwner) >= amount, \"Insufficient contract token balance\");\n        loanCounter++;\n        uint256 dueDate = block.timestamp + duration;\n\n        loans[loanCounter] = Loan({\n            borrower: borrower,\n            amount: amount,\n            interest: INTEREST_RATE,\n            dueDate: dueDate,\n            isRepaid: false\n        });\n\n        // Transfer tokens from the contract to the borrower\n        inflaToken.transferTo('borrow', contractOwner, borrower, amount);\n\n        emit LoanBorrowed(borrower, loanCounter, amount, dueDate);\n\n        // Return loan id\n        return loanCounter;\n    }\n\n    // Repay function to repay borrowed tokens\n    function repay(uint256 loanId) public onlyOwner {\n        Loan storage loan = loans[loanId];\n        require(loan.isRepaid == false, \"Loan already repaid\");\n        require(block.timestamp >= loan.dueDate, \"Loan is not overdue\");\n\n        // Calculate repay amount with interest\n        uint256 repayAmount = loan.amount + ((loan.amount * INTEREST_RATE) / 100);\n\n        // Transfer tokens back to the contract\n        inflaToken.transferTo('repay', loan.borrower, contractOwner, repayAmount);\n        loan.isRepaid = true;\n\n        emit LoanRepaid(loan.borrower, loanId, repayAmount);\n    }\n\n    function isLoanOverdue(uint256 loanId) public view returns (bool) {\n        // Check if loan is overdue\n        Loan storage loan = loans[loanId];\n        return block.timestamp > loan.dueDate && !loan.isRepaid;\n    }\n\n    function isLoanRepaid(uint256 loanId) public view returns (bool) {\n        // Check if loan is repaid\n        Loan storage loan = loans[loanId];\n        return loan.isRepaid;\n    }\n\n// -----------------------------------\n// EVENTS\n// -----------------------------------\n\n    event LoanBorrowed(address borrower, uint256 loanId, uint256 amount, uint256 dueDate);\n    event LoanRepaid(address borrower, uint256 loanId, uint256 amount);\n}\n",
  "sourcePath": "/home/shalevgur/eth-projects/InflaCoin/InflaCoin/contracts/LoanContract.sol",
  "compiler": {
    "name": "solc",
    "version": "0.8.0+commit.c7dfd78e.Emscripten.clang"
  },
  "schemaVersion": "3.4.16",
  "updatedAt": "2024-10-24T15:24:49.896Z",
  "networkType": "ethereum",
  "devdoc": {
    "kind": "dev",
    "methods": {
      "owner()": {
        "details": "Returns the address of the current owner."
      },
      "renounceOwnership()": {
        "details": "Leaves the contract without owner. It will not be possible to call `onlyOwner` functions anymore. Can only be called by the current owner. NOTE: Renouncing ownership will leave the contract without an owner, thereby removing any functionality that is only available to the owner."
      },
      "transferOwnership(address)": {
        "details": "Transfers ownership of the contract to a new account (`newOwner`). Can only be called by the current owner."
      }
    },
    "version": 1
  },
  "userdoc": {
    "kind": "user",
    "methods": {},
    "version": 1
  }
}