{
  "contractName": "LoanContract",
  "abi": [
    {
      "inputs": [
        {
          "internalType": "address",
          "name": "_inflaTokenAddress",
          "type": "address"
        }
      ],
      "stateMutability": "nonpayable",
      "type": "constructor"
    },
    {
      "anonymous": false,
      "inputs": [
        {
          "indexed": false,
          "internalType": "string",
          "name": "message",
          "type": "string"
        }
      ],
      "name": "DebugBorrow",
      "type": "event"
    },
    {
      "inputs": [],
      "name": "contractOwner",
      "outputs": [
        {
          "internalType": "address payable",
          "name": "",
          "type": "address"
        }
      ],
      "stateMutability": "view",
      "type": "function",
      "constant": true
    },
    {
      "inputs": [],
      "name": "inflaToken",
      "outputs": [
        {
          "internalType": "contract IInflaToken",
          "name": "",
          "type": "address"
        }
      ],
      "stateMutability": "view",
      "type": "function",
      "constant": true
    },
    {
      "inputs": [],
      "name": "inflaTokenAddress",
      "outputs": [
        {
          "internalType": "address payable",
          "name": "",
          "type": "address"
        }
      ],
      "stateMutability": "view",
      "type": "function",
      "constant": true
    },
    {
      "inputs": [],
      "name": "loanCounter",
      "outputs": [
        {
          "internalType": "uint256",
          "name": "",
          "type": "uint256"
        }
      ],
      "stateMutability": "view",
      "type": "function",
      "constant": true
    },
    {
      "inputs": [
        {
          "internalType": "uint256",
          "name": "",
          "type": "uint256"
        }
      ],
      "name": "loans",
      "outputs": [
        {
          "internalType": "address",
          "name": "borrowerAddress",
          "type": "address"
        },
        {
          "internalType": "uint256",
          "name": "borrowedAmount",
          "type": "uint256"
        },
        {
          "internalType": "uint256",
          "name": "interest",
          "type": "uint256"
        },
        {
          "internalType": "uint256",
          "name": "lDueDate",
          "type": "uint256"
        },
        {
          "internalType": "bool",
          "name": "isRepaid",
          "type": "bool"
        }
      ],
      "stateMutability": "view",
      "type": "function",
      "constant": true
    },
    {
      "inputs": [
        {
          "internalType": "uint256",
          "name": "precentage",
          "type": "uint256"
        }
      ],
      "name": "setInterestRate",
      "outputs": [],
      "stateMutability": "nonpayable",
      "type": "function"
    },
    {
      "inputs": [],
      "name": "getInterestRate",
      "outputs": [
        {
          "internalType": "uint256",
          "name": "",
          "type": "uint256"
        }
      ],
      "stateMutability": "view",
      "type": "function",
      "constant": true
    },
    {
      "inputs": [
        {
          "internalType": "address",
          "name": "borrower",
          "type": "address"
        },
        {
          "internalType": "uint256",
          "name": "amount",
          "type": "uint256"
        },
        {
          "internalType": "uint256",
          "name": "duration",
          "type": "uint256"
        }
      ],
      "name": "borrow",
      "outputs": [
        {
          "internalType": "uint256",
          "name": "loanId",
          "type": "uint256"
        },
        {
          "internalType": "uint256",
          "name": "repayAmount",
          "type": "uint256"
        },
        {
          "internalType": "uint256",
          "name": "dueDate",
          "type": "uint256"
        },
        {
          "internalType": "string",
          "name": "",
          "type": "string"
        }
      ],
      "stateMutability": "nonpayable",
      "type": "function"
    },
    {
      "inputs": [
        {
          "internalType": "uint256",
          "name": "loanId",
          "type": "uint256"
        }
      ],
      "name": "repay",
      "outputs": [
        {
          "internalType": "string",
          "name": "",
          "type": "string"
        },
        {
          "internalType": "uint256",
          "name": "amount",
          "type": "uint256"
        }
      ],
      "stateMutability": "nonpayable",
      "type": "function"
    },
    {
      "inputs": [
        {
          "internalType": "uint256",
          "name": "loanId",
          "type": "uint256"
        }
      ],
      "name": "isLoanOverdue",
      "outputs": [
        {
          "internalType": "bool",
          "name": "",
          "type": "bool"
        }
      ],
      "stateMutability": "view",
      "type": "function",
      "constant": true
    },
    {
      "inputs": [
        {
          "internalType": "uint256",
          "name": "loanId",
          "type": "uint256"
        }
      ],
      "name": "isLoanRepaid",
      "outputs": [
        {
          "internalType": "bool",
          "name": "",
          "type": "bool"
        }
      ],
      "stateMutability": "view",
      "type": "function",
      "constant": true
    }
  ],
  "bytecode": "0x6080604052600560035560016005553480156200001b57600080fd5b506040516200150638038062001506833981810160405281019062000041919062000121565b806000806101000a81548173ffffffffffffffffffffffffffffffffffffffff021916908373ffffffffffffffffffffffffffffffffffffffff16021790555080600160006101000a81548173ffffffffffffffffffffffffffffffffffffffff021916908373ffffffffffffffffffffffffffffffffffffffff16021790555033600260006101000a81548173ffffffffffffffffffffffffffffffffffffffff021916908373ffffffffffffffffffffffffffffffffffffffff160217905550506200019b565b6000815190506200011b8162000181565b92915050565b6000602082840312156200013457600080fd5b600062000144848285016200010a565b91505092915050565b60006200015a8262000161565b9050919050565b600073ffffffffffffffffffffffffffffffffffffffff82169050919050565b6200018c816200014d565b81146200019857600080fd5b50565b61135b80620001ab6000396000f3fe608060405234801561001057600080fd5b50600436106100a95760003560e01c80637030090b116100715780637030090b146101675780639026d91114610185578063c1bce0b7146101b5578063ce606ee0146101e8578063d5787b6d14610206578063e1ec3c6814610224576100a9565b806334d9289e146100ae578063371fd8e6146100cc5780633b498602146100fd5780635257b5661461012d5780635f84f3021461014b575b600080fd5b6100b6610258565b6040516100c39190610f0c565b60405180910390f35b6100e660048036038101906100e19190610b9e565b61025e565b6040516100f4929190610e28565b60405180910390f35b61011760048036038101906101129190610b9e565b6104f7565b6040516101249190610df2565b60405180910390f35b610135610539565b6040516101429190610f0c565b60405180910390f35b61016560048036038101906101609190610b9e565b610543565b005b61016f6105dd565b60405161017c9190610e0d565b60405180910390f35b61019f600480360381019061019a9190610b9e565b610601565b6040516101ac9190610df2565b60405180910390f35b6101cf60048036038101906101ca9190610b0e565b610633565b6040516101df9493929190610f27565b60405180910390f35b6101f06109b8565b6040516101fd9190610d84565b60405180910390f35b61020e6109de565b60405161021b9190610d84565b60405180910390f35b61023e60048036038101906102399190610b9e565b610a04565b60405161024f959493929190610d9f565b60405180910390f35b60055481565b60606000600160009054906101000a900473ffffffffffffffffffffffffffffffffffffffff1673ffffffffffffffffffffffffffffffffffffffff163373ffffffffffffffffffffffffffffffffffffffff16146102f2576040517f08c379a00000000000000000000000000000000000000000000000000000000081526004016102e990610ea2565b60405180910390fd5b6000600460008581526020019081526020016000209050600115158160040160009054906101000a900460ff161515141561036a5760006040518060400160405280601381526020017f4c6f616e20616c726561647920726570616964000000000000000000000000008152509092509250506104f2565b6000606460035483600101546103809190611077565b61038a9190611046565b82600101546103999190610ff0565b905060008054906101000a900473ffffffffffffffffffffffffffffffffffffffff1673ffffffffffffffffffffffffffffffffffffffff1663af0563ec8360000160009054906101000a900473ffffffffffffffffffffffffffffffffffffffff16600260009054906101000a900473ffffffffffffffffffffffffffffffffffffffff16846040518463ffffffff1660e01b815260040161043e93929190610ec2565b600060405180830381600087803b15801561045857600080fd5b505af115801561046c573d6000803e3d6000fd5b505050506040513d6000823e3d601f19601f820116820180604052508101906104959190610b5d565b5060018260040160006101000a81548160ff021916908315150217905550806040518060400160405280601881526020017f4c6f616e2072657061796564207375636365737366756c790000000000000000815250909350935050505b915091565b60008060046000848152602001908152602001600020905080600301544211801561053157508060040160009054906101000a900460ff16155b915050919050565b6000600354905090565b600160009054906101000a900473ffffffffffffffffffffffffffffffffffffffff1673ffffffffffffffffffffffffffffffffffffffff163373ffffffffffffffffffffffffffffffffffffffff16146105d3576040517f08c379a00000000000000000000000000000000000000000000000000000000081526004016105ca90610ea2565b60405180910390fd5b8060038190555050565b60008054906101000a900473ffffffffffffffffffffffffffffffffffffffff1681565b6000806004600084815260200190815260200160002090508060040160009054906101000a900460ff16915050919050565b60008060006060600160009054906101000a900473ffffffffffffffffffffffffffffffffffffffff1673ffffffffffffffffffffffffffffffffffffffff163373ffffffffffffffffffffffffffffffffffffffff16146106ca576040517f08c379a00000000000000000000000000000000000000000000000000000000081526004016106c190610ea2565b60405180910390fd5b8560008054906101000a900473ffffffffffffffffffffffffffffffffffffffff1673ffffffffffffffffffffffffffffffffffffffff166370a08231600260009054906101000a900473ffffffffffffffffffffffffffffffffffffffff166040518263ffffffff1660e01b81526004016107469190610d69565b60206040518083038186803b15801561075e57600080fd5b505afa158015610772573d6000803e3d6000fd5b505050506040513d601f19601f820116820180604052508101906107969190610bc7565b10156107c75760008060006040518060600160405280602381526020016112ce6023913993509350935093506109af565b600085426107d59190610ff0565b905060006004600060055481526020019081526020016000209050888160000160006101000a81548173ffffffffffffffffffffffffffffffffffffffff021916908373ffffffffffffffffffffffffffffffffffffffff160217905550878160010181905550600354816002018190555081816003018190555060008160040160006101000a81548160ff0219169083151502179055506000600554905060056000815480929190610887906111b8565b919050555060008054906101000a900473ffffffffffffffffffffffffffffffffffffffff1673ffffffffffffffffffffffffffffffffffffffff1663af0563ec600260009054906101000a900473ffffffffffffffffffffffffffffffffffffffff168c8c6040518463ffffffff1660e01b815260040161090b93929190610e58565b600060405180830381600087803b15801561092557600080fd5b505af1158015610939573d6000803e3d6000fd5b505050506040513d6000823e3d601f19601f820116820180604052508101906109629190610b5d565b508060646003548b6109749190611077565b61097e9190611046565b8a6109899190610ff0565b846040518060600160405280603581526020016112f16035913996509650965096505050505b93509350935093565b600260009054906101000a900473ffffffffffffffffffffffffffffffffffffffff1681565b600160009054906101000a900473ffffffffffffffffffffffffffffffffffffffff1681565b60046020528060005260406000206000915090508060000160009054906101000a900473ffffffffffffffffffffffffffffffffffffffff16908060010154908060020154908060030154908060040160009054906101000a900460ff16905085565b6000610a7a610a7584610fa4565b610f73565b905082815260208101848484011115610a9257600080fd5b610a9d848285611185565b509392505050565b600081359050610ab48161129f565b92915050565b600082601f830112610acb57600080fd5b8151610adb848260208601610a67565b91505092915050565b600081359050610af3816112b6565b92915050565b600081519050610b08816112b6565b92915050565b600080600060608486031215610b2357600080fd5b6000610b3186828701610aa5565b9350506020610b4286828701610ae4565b9250506040610b5386828701610ae4565b9150509250925092565b600060208284031215610b6f57600080fd5b600082015167ffffffffffffffff811115610b8957600080fd5b610b9584828501610aba565b91505092915050565b600060208284031215610bb057600080fd5b6000610bbe84828501610ae4565b91505092915050565b600060208284031215610bd957600080fd5b6000610be784828501610af9565b91505092915050565b610bf98161112b565b82525050565b610c08816110e3565b82525050565b610c17816110d1565b82525050565b610c26816110f5565b82525050565b610c358161113d565b82525050565b6000610c4682610fd4565b610c508185610fdf565b9350610c60818560208601611185565b610c698161128e565b840191505092915050565b6000610c81600683610fdf565b91507f626f72726f7700000000000000000000000000000000000000000000000000006000830152602082019050919050565b6000610cc1602c83610fdf565b91507f4f6e6c79207468652063656e7472616c42616e6b2063616e2063616c6c20746860008301527f69732066756e6374696f6e2e00000000000000000000000000000000000000006020830152604082019050919050565b6000610d27600583610fdf565b91507f72657061790000000000000000000000000000000000000000000000000000006000830152602082019050919050565b610d6381611121565b82525050565b6000602082019050610d7e6000830184610bf0565b92915050565b6000602082019050610d996000830184610bff565b92915050565b600060a082019050610db46000830188610c0e565b610dc16020830187610d5a565b610dce6040830186610d5a565b610ddb6060830185610d5a565b610de86080830184610c1d565b9695505050505050565b6000602082019050610e076000830184610c1d565b92915050565b6000602082019050610e226000830184610c2c565b92915050565b60006040820190508181036000830152610e428185610c3b565b9050610e516020830184610d5a565b9392505050565b60006080820190508181036000830152610e7181610c74565b9050610e806020830186610bf0565b610e8d6040830185610c0e565b610e9a6060830184610d5a565b949350505050565b60006020820190508181036000830152610ebb81610cb4565b9050919050565b60006080820190508181036000830152610edb81610d1a565b9050610eea6020830186610c0e565b610ef76040830185610bf0565b610f046060830184610d5a565b949350505050565b6000602082019050610f216000830184610d5a565b92915050565b6000608082019050610f3c6000830187610d5a565b610f496020830186610d5a565b610f566040830185610d5a565b8181036060830152610f688184610c3b565b905095945050505050565b6000604051905081810181811067ffffffffffffffff82111715610f9a57610f9961125f565b5b8060405250919050565b600067ffffffffffffffff821115610fbf57610fbe61125f565b5b601f19601f8301169050602081019050919050565b600081519050919050565b600082825260208201905092915050565b6000610ffb82611121565b915061100683611121565b9250827fffffffffffffffffffffffffffffffffffffffffffffffffffffffffffffffff0382111561103b5761103a611201565b5b828201905092915050565b600061105182611121565b915061105c83611121565b92508261106c5761106b611230565b5b828204905092915050565b600061108282611121565b915061108d83611121565b9250817fffffffffffffffffffffffffffffffffffffffffffffffffffffffffffffffff04831182151516156110c6576110c5611201565b5b828202905092915050565b60006110dc82611101565b9050919050565b60006110ee82611101565b9050919050565b60008115159050919050565b600073ffffffffffffffffffffffffffffffffffffffff82169050919050565b6000819050919050565b600061113682611161565b9050919050565b60006111488261114f565b9050919050565b600061115a82611101565b9050919050565b600061116c82611173565b9050919050565b600061117e82611101565b9050919050565b60005b838110156111a3578082015181840152602081019050611188565b838111156111b2576000848401525b50505050565b60006111c382611121565b91507fffffffffffffffffffffffffffffffffffffffffffffffffffffffffffffffff8214156111f6576111f5611201565b5b600182019050919050565b7f4e487b7100000000000000000000000000000000000000000000000000000000600052601160045260246000fd5b7f4e487b7100000000000000000000000000000000000000000000000000000000600052601260045260246000fd5b7f4e487b7100000000000000000000000000000000000000000000000000000000600052604160045260246000fd5b6000601f19601f8301169050919050565b6112a8816110d1565b81146112b357600080fd5b50565b6112bf81611121565b81146112ca57600080fd5b5056fe496e73756666696369656e7420636f6e747261637420746f6b656e2062616c616e6365546865206c6f616e20686173206265656e20617070726f76656420616e642070726f636573736564207375636365737366756c6c79a264697066735822122019970cec83a6b96f8ae650aedc542a298a9e61e8e1bf2991cdc2dbdc5e49e4d664736f6c63430008000033",
  "immutableReferences": {},
  "source": "// SPDX-License-Identifier: MIT\n\npragma solidity ^0.8.0;\n\n// import \"@openzeppelin/contracts/token/ERC20/ERC20.sol\";\nimport \"@openzeppelin/contracts/access/Ownable.sol\";\nimport \"./InflaToken.sol\";\n\n// InflaToken interface to interact with the InflaToken contract\ninterface IInflaToken {\n    function balanceOf(address account) external view returns (uint256);\n    function transferTo(string memory actionType, address sender, address recipient, uint256 amount) external returns (string memory);\n}\n\ncontract LoanContract {\n\n    // Holds the inflaToken contract interface.\n    // Holds relevant methods and information,\n    // and the central bank.\n    IInflaToken public inflaToken;\n\n    // InflaToken address as central bank\n    address payable public inflaTokenAddress;\n\n    // Should be the central bank address\n    address payable public contractOwner;\n\n    // Interest rate precentage (TODO: be multiplied by TOKEN_MULTIPLIER for adjusted decimal precision)\n    uint256 internal INTEREST_RATE = 5;\n\n    // Include all the Loan necessary info\n    struct Loan {\n        address borrowerAddress;\n        uint256 borrowedAmount;\n        uint256 interest;\n        uint256 lDueDate;\n        bool isRepaid;\n    }\n\n    // Create a key:value map of loans\n    mapping(uint256 => Loan) public loans;\n    // Counter and id tracker for the loan map. Loan Id 0 represents an error.\n    uint256 public loanCounter = 1;\n\n    constructor (address _inflaTokenAddress) {\n        // LoanContract initialized with InflaToken\n        inflaToken = IInflaToken(_inflaTokenAddress);\n        inflaTokenAddress = payable(_inflaTokenAddress);\n        contractOwner = payable(msg.sender);\n    }\n\n    function setInterestRate (uint256 precentage) public onlyCentralBank {\n        // Enabling change of interest rate by the central bank.\n        INTEREST_RATE = precentage;\n    }\n\n    function getInterestRate () public view returns(uint256) {\n        // Returning interest rate value\n        return INTEREST_RATE;\n    }\n\n    function borrow(address borrower, uint256 amount, uint256 duration) public onlyCentralBank returns (uint256 loanId, uint256 repayAmount, uint256 dueDate, string memory) {\n        // Borrow InflaToken function, setting a due date\n\n        // Initial balance check. Loan Id 0 represents error.\n        if(inflaToken.balanceOf(contractOwner) < amount) return (0, 0, 0, \"Insufficient contract token balance\");\n\n        uint256 resDueDate = block.timestamp + duration;\n\n        // Saving loan information to storage\n        Loan storage l = loans[loanCounter];\n        l.borrowerAddress = borrower;\n        l.borrowedAmount = amount;\n        l.interest = INTEREST_RATE;\n        l.lDueDate = resDueDate;\n        l.isRepaid = false;\n\n        uint256 returnId = loanCounter;\n        loanCounter++;\n\n        // Transfer tokens from the contract to the borrower\n        inflaToken.transferTo('borrow', contractOwner, borrower, amount);\n        // Return loan id and relevant information\n        return (returnId, amount + ((amount * INTEREST_RATE) / 100), resDueDate, \"The loan has been approved and processed successfully\");\n    }\n\n    // Repay function to repay borrowed tokens\n    function repay (uint256 loanId) public onlyCentralBank returns (string memory, uint256 amount) {\n        Loan storage loan = loans[loanId];\n\n        if(loan.isRepaid == true) return (\"Loan already repaid\", 0);\n\n        // Calculate repay amount with interest\n        uint256 repayAmount = loan.borrowedAmount + ((loan.borrowedAmount * INTEREST_RATE) / 100);\n\n        // Transfer tokens back to the contract\n        inflaToken.transferTo('repay', loan.borrowerAddress, contractOwner, repayAmount);\n        loan.isRepaid = true;\n        return (\"Loan repayed successfuly\", repayAmount);\n    }\n\n    function isLoanOverdue(uint256 loanId) public view returns (bool) {\n        // Check if loan is overdue\n        Loan storage loan = loans[loanId];\n        return block.timestamp > loan.lDueDate && !loan.isRepaid;\n    }\n\n    function isLoanRepaid(uint256 loanId) public view returns (bool) {\n        // Check if loan is repaid\n        Loan storage loan = loans[loanId];\n        return loan.isRepaid;\n    }\n\n\n// -----------------------------------\n// MODIFIERS\n// -----------------------------------\n\n    modifier onlyCentralBank {\n        require(msg.sender == inflaTokenAddress, \"Only the centralBank can call this function.\");\n        _;\n    }\n\n    event DebugBorrow(string message);\n\n}\n",
  "sourcePath": "/home/shalevgur/eth-projects/InflaCoin/InflaCoin/contracts/LoanContract.sol",
  "compiler": {
    "name": "solc",
    "version": "0.8.0+commit.c7dfd78e.Emscripten.clang"
  },
  "schemaVersion": "3.4.16",
  "updatedAt": "2024-10-25T21:07:06.420Z",
  "networkType": "ethereum",
  "devdoc": {
    "kind": "dev",
    "methods": {},
    "version": 1
  },
  "userdoc": {
    "kind": "user",
    "methods": {},
    "version": 1
  }
}